:100000000C94C6030C94E3030C940E290C94E303A4
:100010000C94E3030C94E3030C94E3030C94E303C8
:100020000C94E3030C94E3030C94E0200C949C20C8
:100030000C94DC210C94E3030C94E3030C94E30391
:100040000C94E3030C94E3030C94E3030C94E30398
:100050000C94E3030C94B8210C94E3030C94E30395
:100060000C94E3030C94E3030C94E3030C94E30378
:100070000C94E3030C94E3030C94E3030C94E30368
:100080000C94E3030C94E3030C94E3030C94E30358
:100090000C94E3030C94E3030C94E3030C94E30348
:1000A0000C94E3030C94E3030C94E30305010902AD
:1000B000A10185020901A1000509190129081500FE
:1000C0002501950875018102050109300931158165
:1000D000257F95027508810609381581257F9501D0
:1000E00075088106050C0A38021581257F95017572
:1000F000088106C0C005010980A101850319012AF4
:10010000B700150126B700950175108100C0050CD8
:100110000901A101850419012AA002150126A002E6
:10012000950175108100C005010906A1018506052C
:100130000719E029E71500250195087501810205D9
:1001400007190029EF1500250195F07501810205B9
:10015000081901290595057501910295017503910D
:1001600001C00660FF0961A1010962150026FF00B8
:100170009520750881020963150026FF00952075FA
:10018000089102C005010906A101050719E029E748
:1001900015002501950875018102950175088101F9
:1001A0000507190029FF150026FF0095067508812F
:1001B000000508190129059505750191029501753C
:1001C000039101C0FD377A585A000004E6D6B446C0
:1001D0000200210116000000742FE5A3E006AC0127
:1001E0007F5D003D8889C65436C3174FE4FC4BB38E
:1001F000AF17431122238988BF2E4F3F4418274F42
:100200003D6B290C73D9CAC071B1D6D79060E9167D
:10021000D807DDDCA722B7A3C15BD857905B37B402
:100220001744CC56AD5396932FDA717F9A3A5B0DF3
:100230007DCAC63FB14E2395C2198C90472621B086
:10024000466465C053C2C765C40DCD1878AEAB9B7C
:1002500080BE4869D6DD7272237EF940F6DB66A95E
:10026000B529D03A5130A66F81F2DA0FD410B077A9
:10027000FF8EDD99688A90CCC2CE51A72108BD259A
:100280008F099928BCD7731D99CED6B99E1207B491
:10029000B60C8E01EACB04134A43BACC9145E41361
:1002A00029C477386112B1AB8DACC94DC5DED0DD44
:1002B000047820119D1A9DF8F83734B29D1BFAE599
:1002C00046FF24B14E5C05571CBD821EEBA3C10145
:1002D00053F8A57E451A75FC15BF9A0C877EFA7CEB
:1002E000E86FFE9611198396F8CC1176A8EDFDB54E
:1002F000163297911B76839F2BBDE739548A007D78
:1003000099A5F6E39632774146C9585B1EEBCD6856
:10031000A10449099DC03CD022E9F69BDDB5B81F78
:100320005B0ACDB7827DE5773912D5DC476FB24ADB
:10033000479B4DDD74C5D16BD53AD4D4B099242DEB
:100340000A7E318491E8FBB0B0C813E6D3336B6208
:10035000248979068F6B5764A8E99FF743BF6A59D0
:100360006449000089713AD2E930FB5900019B03CE
:10037000AD0D0000061A8D44B1C467FB02000000F9
:100380000004595A29003A003B003C003D003E0061
:10039000040001001E001F002000210022000400B4
:1003A0002B0014001A0009001300050004002900A6
:1003B00004001500160017000A000A00E1001D00E5
:1003C0001B000600070019000000000000001E00CE
:1003D0001F000000000021004400430042004100D3
:1003E00040003F00050001002700260025002400F2
:1003F00023000500280033001C0018000F000D002A
:100400000500000012000C0008001100100004009C
:10041000E5003800370036000B000E000000000039
:10042000000005000400000000002200010001009F
:1004300001000100010001000100010001000100B4
:1004400001000100010001000100010001000100A4
:100450000100010001000100010001000100010094
:100460000100010001000100010001000100010084
:100470000000000000000100010000000000010079
:100480000100010001000100010001000100010064
:100490000100010001000100010001000100010054
:1004A0000100010001000100010001000100010044
:1004B0000100010001000100010001000100010034
:1004C0000100010000000000000001000100000028
:1004D0000000010001000100010001000100010015
:1004E0000100010001000100010001000100010004
:1004F00001000100010001000100010001000100F4
:1005000001000100010001000100010001000100E3
:1005100001000100010001000000000000000100D6
:1005200001000000000001000100010001000100C5
:1005300001000100010001000100010001000100B3
:1005400001000100010001000100010001000100A3
:100550000100010001000100010001000100010093
:100560000100010001000100010001000000000085
:100570000000010001000000000001000100010076
:100580000100010001000100010001000100010063
:100590000100010001000100010001000100010053
:1005A0000100010001000100010001000100010043
:1005B0000100010001000100010001000100010033
:1005C0000000000000000100010000000000010028
:1005D0000100010001000100010001000100010013
:1005E0000100010001000100010001000100010003
:1005F00001000100010001000100010001000100F3
:1006000001000100010001000100010001000100E2
:1006100001000100000000000000010001000000D6
:100620000000010009025B00030100A0FA090400B8
:10063000000103010100092111010001224000070E
:1006400005810308000109040100020300000009FC
:100650002111010001222200070582032000010769
:100660000503032000010904020001030000000942
:10067000211101000122B6000705840320000112A8
:1006800001000200000008EEEEEBDE0001010203B3
:10069000011C037600690061006C003A00660036B8
:1006A0000034006300320062003300630000001079
:1006B000037700440061006300740079006C00005F
:1006C0000014034A0061006E0020004C0075006EAB
:1006D000006700650000000403090400000000003A
:1006E000000000000000000000000000000000000A
:1006F0000000000000000000000000000000007E7C
:100700000F00D4FFFFFFC7000000780000000000CA
:100710000000002A2B28000000000000000000005C
:1007200000000000000029000000002C1E342021E1
:100730002224342627252E362D3738271E1F202128
:1007400022232425263333362E37381F0405060787
:1007500008090A0B0C0D0E0F1011121314151617A1
:1007600018191A1B1C1D2F3130232D3504050607BF
:1007700008090A0B0C0D0E0F101112131415161781
:1007800018191A1B1C1D2F3130354C0011241FBEA7
:10079000CFEFDAE0DEBFCDBF11E0A0E0B1E0E2E1F3
:1007A000F7E502C005900D92A438B107D9F723E010
:1007B000A4E8B1E001C01D92AD37B207E1F70E9495
:1007C00003220C94272B0C940000982FE0917903BE
:1007D0004091400357E0E41302C080E008952E2FBB
:1007E00030E05E9FF0011124EF5BFC4F81816813C4
:1007F00006C08081981303C085818111EFCFF90174
:100800003196E770E8CFFC01AC014A5F5F4F8FEF94
:1008100091E32191822728E030E087FF09C0880F0B
:10082000892721503109C9F7E417F50791F7089591
:10083000880FF7CFE8EDF0E080818E7F8083109203
:10084000E2001092DA001092E100A0EEB0E08C918C
:1008500081608C9380818F77808319BCA7EDB0E095
:100860008C918E7F8C9380818F7E80831092110378
:1008700008952091E4003091E50095E6A9012091CA
:10088000EC00822F817020FF06C08091E80080FF7D
:1008900006C080E008952091E80022FD1AC08091F2
:1008A0003603882389F0853089F08091EB0085FD3F
:1008B0000FC02091E4003091E50042175307F9F290
:1008C0009150E1F684E0089582E0089583E0089570
:1008D00081E008958091380387FF13C08091E8007C
:1008E00082FF06C08091E8008B778093E80004C007
:1008F000809136038111F2CF0895809136038823C9
:10090000D9F38091E80080FFF8CF8091E8008E77DE
:10091000ECCF982F9093E900242F762F50E0891781
:1009200031F07091EC002091ED005091F00021FD2C
:1009300007C09F5F973071F78093E90081E00895C9
:100940003091EB003E7F3093EB003091ED003D7F26
:100950003093ED003091EB0031603093EB007093F9
:10096000EC002093ED005093F0002091EE0027FD65
:10097000E0CF80E00895B0E0A0E0E1ECF4E00C947A
:10098000352AC8EDD0E088818F7E8883E7EDF0E0DE
:1009900080818160808384E082BF81E08093110345
:1009A00088818E7F888302EE10E0F8011082109219
:1009B000DA0081EEC82ED12CF601108288818F7763
:1009C000888388818068888388818F7D888319BC2B
:1009D00010923603109237031092350310923403AD
:1009E00090EEE92EF12CF70180818B7F8083888146
:1009F0008160888342E060E080E00E948904F60123
:100A000080818E7F8083F8018081816080838081F6
:100A100088608083F70180818E7F808388818061F8
:100A20008883CDB7DEB7E8E00C94512AFC01CB01F6
:100A300020913E0330913F032617370790F000972F
:100A400029F42091E8002E772093E80040E00097F9
:100A500051F4411108C08091E80082FF31C080E06C
:100A60000895C901F3CF209136032223A9F125303F
:100A7000A9F12091E80023FD2DC02091E80022FD7E
:100A8000EACF2091E80020FFE2CF3091F3002091DF
:100A9000F200009719F02830310558F041E0283075
:100AA000310509F040E02091E8002E772093E8001E
:100AB000CECF41914093F10001972F5F3F4FE9CF97
:100AC00080913603882341F0853041F08091E80021
:100AD00083FFC1CF81E0089582E0089583E0089507
:100AE00080911303089587E797E790930108809317
:100AF000000888E19AE00FB6F894A895809360000A
:100B00000FBE90936000FFCF9C014FB7F894809187
:100B10000B0390910C03A0910D03B0910E034FBFF6
:100B2000821B930B0895A4E0B0E0E9E9F5E00C9492
:100B30003B2A8FB7F89420910B0330910C0340911E
:100B40000D0350910E0329833A834B835C838FBF3F
:100B500069817A818B819C812496E2E00C94572AEA
:100B60002FB7F89480910B0390910C03A0910D0383
:100B7000B0910E032FBF08959C018091220188231C
:100B8000C1F080910F0387FF14C0E62FE695E6952C
:100B9000E695603FF8F4E20FF32FF11D677021E056
:100BA00030E001C0220F6A95EAF78281822B8283AE
:100BB0000895F90132968FEF90E04191641751F05A
:100BC0008F3F19F4411101C0892F9F5F9630A9F71B
:100BD0008F3F09F40895280F311D87FD3A95F901DB
:100BE00062830895A3E0B0E0E8EFF5E00C943B2ABF
:100BF0009C01809108039091090382179307A1F04B
:100C00003093090320930803E0910603F091070352
:100C1000309751F084E089833B832A830680F781F3
:100C2000E02DCE01019609952396E2E00C94572A17
:100C3000A3E0B0E0EEE1F6E00C943B2A9C01809149
:100C400004039091050382179307A1F030930503E5
:100C500020930403E0910603F0910703309751F0CD
:100C600083E089833B832A830680F781E02DCE01D0
:100C7000019609952396E2E00C94572ACF93DF93CF
:100C8000D82FC92F4091F9025091FA026091FB02CE
:100C90007091FC022FB7F89480910B0390910C0394
:100CA000A0910D03B0910E032FBF841B950BA60BD3
:100CB000B70B843F9140A105B10518F58091F90269
:100CC0009091FA02A091FB02B091FC028093F50290
:100CD0009093F602A093F702B093F80284EF91E0AC
:100CE000A0E0B0E08093F1029093F202A093F302AF
:100CF000B093F402D0930003C0930103DF91CF912E
:100D000008950E9493056093F5027093F602809314
:100D1000F7029093F80282E390E0A0E0B0E0E2CF27
:100D2000FC018481862351F482818823B9F06823F1
:100D3000908593FF05C081E061110FC080E00895A8
:100D4000282F2F7082958F70282B962F9F70629579
:100D50006F70692B81E02613F1CF089581E0FDCFFC
:100D60000E94B00520915E0230915F02232B21F09A
:100D700080935A0290935B0220916002309161024D
:100D8000232B21F08093580290935902E09106039F
:100D9000F0910703309749F082E080935C02048071
:100DA000F581E02D8CE592E0099508958091570238
:100DB00080FD16C081FD16C082FD16C080915602CE
:100DC0008823A1F0883280F428E0829FC00111249A
:100DD00068E270E00E94622A862F672B39F008953E
:100DE00082E0089584E0089588E0089581E0089500
:100DF0008091570280FD14C081FD14C082FD16C091
:100E000080915502882381F08E3180F420E5829F05
:100E1000C00111246EE170E00E94622A862F0895BD
:100E200084E1089588E2089588E0089580E50895B2
:100E300080E00895F894E82FE295EF70F0E041A18A
:100E40008F7021E030E0B90102C0660F771F8A95EC
:100E5000E2F7CB01962F9095942391A392A1892B31
:100E600082A37894089590910F0392FF06C0282FD3
:100E700028712830F9F4877F846093FF06C0282FFB
:100E800028712831F1F4877E84612091100320FFBE
:100E900006C0382F38713830D9F4877F816021FF40
:100EA00006C0282F28712831D1F4877E816194FDF6
:100EB000877E0895282F24712430F9F68B7F88606F
:100EC000DCCF282F2471243101F78B7E8861DDCFA0
:100ED000382F3171313019F78E7F8860E0CF282F9D
:100EE0002171213121F78E7E8861E1CF803E91050D
:100EF000C1F1C8F48133910509F47DC048F4893209
:100F0000910509F46DC08A32910509F47BC00895FA
:100F100089339105D1F082389105B9F08533910577
:100F200009F459C00895843E9105C1F138F4823E18
:100F3000910521F1833E910531F10895863E910599
:100F4000C1F1873E9105E1F1089520910F032370CF
:100F500009F065C02091100323FF14C089E290E0DE
:100F6000089520910F0320FD43C03091100330FFFE
:100F700009C024FF4EC090E080E0089520910F0347
:100F800022FDF7CF089520910F0322FD45C0309137
:100F9000100330FD44C024FFF5CFEDCF20911003A6
:100FA00021FFF0CF80910F0384FDE5CF87EE90E025
:100FB000089520910F0323FFE5CF24FDDCCFF6CF6A
:100FC00020910F0323FD2EC03091100331FFE3CF9A
:100FD00084EE90E0089520910F0325FFD3CFBECF7C
:100FE00020910F0325FD21C02091100323FFCACFBC
:100FF00089E390E0C7CF20910F0326FFC3CF8AE299
:1010000090E0089520910F0326FFBCCF81E390E08C
:10101000089583EE90E0089582EE90E0089580EECA
:1010200090E0089586EE90E0089585E390E00895BD
:101030001F93CF93DF930E947607EC0181159245B1
:1010400008F05FC0C11580E5D80708F0DDC0C03EDC
:10105000D10538F5CD3CD10508F0AEC0C83AD10570
:1010600080F4C53AD10508F0A4C0C130D10509F417
:1010700043C0CE010497813A9105F0F1D0E0C0E081
:101080003BC0CE01885A91094B97C0F7C85AD0E0AF
:10109000CC0FDD1FC05DDE4F0990D881C02DD46418
:1010A0002BC0C11590E4D907F0F4C11520E2D20796
:1010B00008F0C4C0C83ED105F8F0CE019A9581155C
:1010C0009F41E0F68D2F0E943307182FCE019927FC
:1010D0000E947607C12FD0E0DC2FCC27CC27DF7110
:1010E000C82BD92B09C0CE0199270E947607CC279F
:1010F000DF70C82BD92BD06ACE01DF91CF911F9121
:101100000895C03882E5D807B8F5C03692E5D9070A
:1011100008F05BC0C03422E5D207C8F4C03282E5D3
:10112000D80708F04BC02C2F2695269590E2299FD2
:10113000900111248C2F8370C1E0D0E002C0CC0F4D
:10114000DD1F8A95E2F7C22BD32BDD68D5CF2C2F7C
:1011500026952695277080E2289F900111248C2FD8
:101160008370C1E0D0E002C0CC0FDD1F8A95E2F7AA
:10117000C22BD32BDC68C0CFC03C92E5D90760F40A
:101180008C2F8F71C03AD245A8F5C82FD0E0DC2F44
:10119000CC27C46FD06AB0CFCE01805C92458097D7
:1011A00008F06CCFDC2FCC27CC27DF71C06FD06A62
:1011B000A3CFA497D064A0CFD0659ECFCF71D0E04D
:1011C000DC2FCC27C16FD06A97CF2C2F2695269580
:1011D000277080E2289F900111248C2F8370C1E03A
:1011E000D0E002C0CC0FDD1F8A95E2F7C22BD32BD3
:1011F000DA6882CF0E943307C82FD0E0DC2FCC27DB
:10120000CC27DF71D06278CF8C2F8F710E9433078B
:1012100055E0D695C7955A95E1F7CF70D0E0DC2F11
:10122000CC27282F30E084FF05C044E0220F331F75
:101230004A95E1F7C22BD32BD0695ECF8D2F8F71EA
:101240000E943307182FCE0199270E947607C12FDD
:10125000D0E0DC2FCC27CC27DF71C82BD92BD2CF05
:101260008091F901882331F01092F9011092F80170
:101270001092F70108959091F901292F282361F028
:10128000809589238093F901882339F00E94B00565
:101290008093F7019093F801089580E090E0F8CFF3
:1012A000982F90958091F60189238093F6010895F7
:1012B0001092D4011092D3011092D201089590910E
:1012C000D101292F282321F0809589238093D101F2
:1012D0000895909122019923E1F090910F0397FFD7
:1012E00018C0E82FE695E695E695803FF0F4F0E02B
:1012F000EA57FE4F877021E030E0A90102C0440F99
:10130000551F8A95E2F7CA018095928189238283CD
:101310000895E8E8F1E09191891303C0DF01119786
:101320001C9251E0EE38F507B1F7089580917903EA
:1013300090914003981301C008958F5F8770FACF92
:10134000292F9C3078F5873068F590E037E0239FAF
:10135000800D911D1124682F677023E09695879565
:101360002A95E1F7FC01EE0FFF1FE80FF91FE75583
:10137000FE4F50E040E080E0219130E0062E02C0B8
:10138000369527950A94E2F721703327042E01C081
:10139000220F0A94EAF7822B4F5F5F4F43305105CB
:1013A00059F7089580E00895292F9C3090F58730F3
:1013B00080F590E037E0239F800D911D1124282FA8
:1013C000277041E001C0440F2A95EAF723E0969583
:1013D00087952A95E1F7FC01EE0FFF1FE80FF91F33
:1013E000E755FE4F90E080E070E05191DF011197EA
:1013F0009B01082E02C0369527950A94E2F72170CA
:1014000021952527242325272C93019683309105A8
:1014100061F708958093340208959091340221E099
:1014200030E0F90101C0EE0F8A95EAF7D90102C058
:10143000AA0FBB1F6A95E2F7EA2B01C0220F4A955B
:10144000EAF7892F8E23E81305C0292B822F0E94EB
:101450000A0A089520952923F9CF21E030E001C040
:10146000220F8A95EAF720958091340282230E9408
:101470000A0A08959091D401809589238093D4011C
:10148000282F277069F4891759F09091100392FF63
:1014900007C08695869586950E942D0A0E94580958
:1014A000089521E030E001C0220F8A95EAF780918B
:1014B0003402822B0E940A0A08959091100392FF31
:1014C00010C098E0899F90011124622B6093D40191
:1014D0000E94510A0E94B0059093D3018093D201DB
:1014E00008950E94510A0895809333020895662357
:1014F00009F45DC08D3C41F40E94F806819580930B
:101500005F020E94B00608958E3C19F40E94F8060E
:10151000F6CF8F3C31F40E94F806819580935E02ED
:10152000F0CF803D19F40E94F806F8CF893D29F4E8
:101530000E94D60680936002E4CF8A3D21F40E9487
:10154000D6068195F7CF8B3D31F40E94D606819562
:1015500080936102D6CF8C3D19F40E94D606F8CF55
:101560009FE2980F983070F4815D990B21E030E094
:1015700001C0220F8A95EAF780915D02822B809349
:101580005D02BFCF8D3D31F4809157028160809321
:101590005702B7CF8E3D21F4809157028260F7CF7A
:1015A0008F3D09F0AECF809157028460F0CF40911B
:1015B0005E028D3C59F480915F0287FF0DC010924E
:1015C0005F0241110BC01092550208C08E3C81F49D
:1015D00080915F0218169CF3442381F08091600291
:1015E00090916102892B09F08CCF1092560289CF1D
:1015F0008F3C49F447FFF0CF10925E0280915F026A
:101600008111ECCFE0CF803D19F41416ACF3E4CF98
:1016100090916002893D29F41916F4F61092600247
:10162000DBCF8A3D19F497FFD7CFF8CF90916102B5
:101630008B3D29F497FFD0CF10926102CDCF8C3D26
:1016400019F41916CCF3C8CF9FE2980F983090F494
:10165000815D990B21E030E0B90102C0660F771F70
:101660008A95E2F7CB01809590915D028923809362
:101670005D02B2CF8D3D31F4809157028E7F809311
:101680005702AACF8E3D21F4809157028D7FF7CF6C
:101690008F3D09F0A1CF809157028B7FF0CF9C0145
:1016A0009A9581159F4150F5D901AA27B170F9018A
:1016B000EE27F270B90166277470A90144275870AB
:1016C00034FF0EC080E1AB2B09F480E0EF2B09F072
:1016D0008062672B09F08064452B89F0806808954B
:1016E00081E0AB2B09F480E0EF2B09F08260672BDF
:1016F00009F08460452B19F08860089580E0089512
:101700000F931F93CF93DF938B01EA0190913603E0
:10171000943061F58093E9008FEF9091E80081505B
:1017200095FD06C095ED9A95F1F700008111F5CF72
:101730008091E80085FF1AC00E943904811111C010
:101740008091E80085FD06C08091E8008E77809347
:10175000E800F2CFF80181918F018093F100219789
:1017600079F78091E8008E778093E800DF91CF9140
:101770001F910F910895CF93DF93EC0188818C3FE7
:1017800089F489818230B9F08330D9F0813051F405
:101790008DEF89839A8181E001C0880F9A95EAF7DD
:1017A0000E940A0A40E250E0BE0182E00E94800BE3
:1017B000DF91CF9108958DEF89838A810E94510A2C
:1017C000F1CF8DEF89838A810E942D0AEBCFBC0176
:1017D00043E050E084E00E94800B0895BC0146E0A5
:1017E00050E084E00E94800B0895CF93DF93D82FC0
:1017F000C92F80912201811113C048E050E06D2F64
:10180000792F81E00E94800B80E2ED2FFC2FA4E174
:10181000B3E001900D928A95E1F7DF91CF910895A1
:1018200080910F0387FF06C040E284E050E06D2FF7
:101830007C2FE8CF48E081E0F9CFB0E0A0E0E3E220
:10184000FCE00C94332AF82EE92ED62EC72E8A01FE
:1018500080912002AA24A394B12C8A3018F48AE043
:10186000A82EB12CC1E0D0E06D2D7C2D8F2D9E2DAA
:10187000F8010995811104C02196AC16BD062CF41F
:10188000CDB7DEB7EAE00C944F2ACC9F9001CD9FF4
:10189000300D300D112490E080E045E34A95F1F7DA
:1018A0000000019682179307C1F7DECF80910602F0
:1018B000811110C08091D80080618093D8008AE1A6
:1018C0008A95F1F700C08091D90080FF0AC081E0BD
:1018D0008093060281E090910602913009F080E049
:1018E000089582E0809306020E941A041092360343
:1018F000F1CF0E94560C882359F0E0910603F09135
:101900000703309729F00190F081E02D09950895A3
:1019100080E00895A4E0B0E0E0E9FCE00C943B2A0C
:101920000E94560C882371F00E94930569837A8384
:101930008B839C8369817A818B819C812496E2E0F0
:101940000C94572A0E94930569837A838B839C8326
:101950008091210290912202A0912302B091240251
:1019600029813A814B815C81280F391F4A1F5B1FF7
:1019700029833A834B835C83DDCFCF93DF93C9E127
:10198000D3E060E0CE010E94EB2A2196C11584E0ED
:10199000D807B9F7DF91CF9108951F93CF93DF93C5
:1019A000962F122F632F8430D8F49C30C8F4473020
:1019B000B8F4C42FD0E0CC0FDD1F2EE0929FC00DF5
:1019C000D11D112498EA899FC00DD11D1124CE018B
:1019D00089960E94EB2A612FCE018A960E94EB2AFB
:1019E000DF91CF911F910895CF93C82F6FEF811191
:1019F00068E485E290E00E94EB2A6FEFC1116FE48A
:101A000086E290E00E94EB2A6FEFC11165E187E268
:101A100090E00E94EB2ACF910895AAE0B0E0E3E1C4
:101A2000FDE00C94302AA090EF02B090F00281E02B
:101A300090E09093F0028093EF02912C812C712C16
:101A4000640100E014C0F70125913491412F602F0B
:101A5000872D0E94CD0C22E0E20EF11C1F5F173093
:101A600091F737E0C30ED11C0F5F0C3049F0C6016F
:101A7000880F991FFC01EC57FC4F7F0110E0E3CF6A
:101A80007394F4E58F0E911C24E07212D9CFCE012D
:101A900001967C0189E0F70111928A95E9F78FEFB1
:101AA0009FEF9E838D831A8709EC12E04AE050E095
:101AB000B801C7010E940F2B065F1F4F0931F3E0E9
:101AC0001F07A1F7B092F002A092EF022A96EDE074
:101AD0000C944C2A80E00E94F40C60E088E290E0D4
:101AE0000E94EB2A0E940D0D0E94BD0C81E00E9415
:101AF000F40C08950F931F93CF93DF93843030F548
:101B00006C3020F5473010F5C42FD0E0CC0FDD1F2E
:101B10002EE0629FC00DD11D112438EA839FC00DB5
:101B2000D11D1124CE0189960E94CD2A082F10E0E4
:101B3000102F0027CE018A960E94CD2A9801282BCB
:101B4000C901DF91CF911F910F91089590E080E03E
:101B5000F8CF462F672F2091530230915402232B48
:101B600091F4703F39F4403F71F48091620290919A
:101B7000630208957C3038F4473028F4843018F438
:101B80000E947A0D089580E090E00895B0E0A0E012
:101B9000ECECFDE00C94362A7C010091340280913B
:101BA0003302082BC3E0D0E010E0DC2EC8010C2E7D
:101BB00002C0959587950A94E2F780FD09C02197A8
:101BC000A0F7D12C8D2DCDB7DEB7E7E00C94522ACB
:101BD000B7018C2F0E94A90D0E941808019779F374
:101BE000F1CFCF93DF93D82FC92F0E94C60D6D2F51
:101BF0007C2F0E94A90D0E941808DF91CF910895B3
:101C0000FC0184818823A1F0808191810E94F10DE3
:101C1000282F92959F70963091F060F4925F9F709C
:101C2000923030F481E0203F81F030F4283E30F0F3
:101C300080E004C09A5FF3CF243FD1F7089581E09C
:101C4000283E20F0213FA1F7F9CF08950895A6E09E
:101C5000B0E0EDE2FEE00C943A2A49835A83392F32
:101C600089819A81332399F0222389F00E94C60D3D
:101C7000182F682F89819A810E94D40969817A81FD
:101C8000812F0E94A90D2696E3E00C94562A0E940B
:101C9000A009182FF3CF85E290E00E94CD2A883466
:101CA00089F486E290E00E94CD2A8F3459F487E2CD
:101CB00090E00E94CD2A91E0853109F090E0892FD3
:101CC0008170089580E0FCCFAAE0B0E0EAE6FEE093
:101CD0000C94312A07E712E085E6C82E82E0D82E60
:101CE00099ECE92E92E0F92E26E0922E34E6A32E0E
:101CF00032E0B32E88248394D6010D931D936D0199
:101D00004AE050E0B701CE0101960E94BD2AF801D9
:101D10003996DF01892D1D928A95E9F789819A818B
:101D2000D80111969C938E938F8112968C93129763
:101D30008D8113968C931397888514968C931497A2
:101D4000898515968C9315978B819C8117969C930A
:101D50008E93169718961C9218978A8587FF3CC019
:101D60001E961C921E921D9780FF03C0D8011896E4
:101D70008C9281FF04C0F80190859260908782FF69
:101D800007C0D80118969C911897946018969C9358
:101D900083FF04C0F80190859860908784FF07C096
:101DA000D80118969C911897906118969C9385FF7E
:101DB00004C0F801808580628087015F1F4FFAE0D0
:101DC000EF0EF11C89E1E81683E0F80609F094CFE4
:101DD0002A96ECE00C944D2AF801B686A586C4CF6D
:101DE000CF938091F6019091F501892B8093860124
:101DF0008091F901882339F10E94B0052091F70103
:101E00003091F801821B930B8838934110F00E94A7
:101E10003009809186019091F901892B8093860188
:101E200080912201882309F447C080910F0387FF26
:101E300043C08EE1E8E8F1E090E0815008F03EC058
:101E400091110E943009C091FD02C09580918601D8
:101E5000C8238091FE02C82BC093860140E250E067
:101E600065ED71E086E891E00E94A02A892B11F1CE
:101E700080E2E6E8F1E0A5EDB1E001900D928A95EF
:101E8000E1F7E0910603F0910703309799F0809114
:101E90002201882349F080910F0387FF05C0C0937A
:101EA000870186E0809386010280F381E02D86E839
:101EB00091E00995CF91089586E0BCCF219122232E
:101EC00009F4BBCF9F5FB9CF1092F6018091220138
:101ED000E8E8F1E0882329F180910F0387FF21C012
:101EE0008EE1DF011D928A95E9F790E080E00E9483
:101EF000180690E080E00E94F2051092F5010E9421
:101F0000F00E86E0ECE5F2E0DF011D928A95E9F73C
:101F10001092550210925602109257020E94B0067B
:101F2000089586E0DECFAAE2B0E0E9E9FFE00C9494
:101F30003A2A88E393E0FC0101962091F100208386
:101F400023E080349207B9F780913903893009F48E
:101F500056C0C8F4823009F4B3C0833009F482C09B
:101F6000813071F18091E80083FF92C28091380343
:101F7000909139039A3008F08BC2E92FF0E0E75DC9
:101F8000F44D0C94762A8A3009F489C08B3051F7CD
:101F900080913803813231F780913C0390913D0369
:101FA000892B01F78091E800877F8093E8000E94E9
:101FB0006A0480913A03809322010E94640FD2CF79
:101FC00080913803813A71F68091E800877F809391
:101FD000E80080913C0390913D03892B61F460E21D
:101FE00084E193E070E00E9416058091E8008B7711
:101FF0008093E800B7CF60E090E080E0F3CF80917D
:102000003803813209F0AECF80913C0390913D03BB
:102010008D7F892B09F0A6CF8091E800877F809380
:10202000E8008091E80082FF18C09091F300809151
:10203000F200029731F48091F100813011F0863086
:1020400021F48091F100809313038091E8008B7755
:102050008093E8000E946A0485CF80913603811145
:10206000E0CF80CF80913803813A09F07BCF809117
:102070003C0390913D03892B09F074CF8091E800D7
:10208000877F8093E8008091E80080FFFCCF8091FB
:1020900022018093F1008091E8008E77D9CF809162
:1020A0003803813209F05ECF8091E800877F80930A
:1020B000E8000E946A0480913B038093120352CF90
:1020C00080913803813A09F04DCF8091E800877FF5
:1020D0008093E8008091E80080FFFCCF809112039C
:1020E000D8CF803899F0823809F0D2C180913C0372
:1020F0008F70873008F0CCC18093E9008091EB00AD
:1021000085FB882780F91092E90006C0809134038E
:1021100090913503911182609091E800977F9093A0
:10212000E8008093F1001092F1008091E8008E7732
:10213000ABC1882309F499C1823009F0A9C180910B
:102140003A0381119CC180913C038F702FEF280FBF
:10215000263008F09DC18093E9002091EB0020FF1C
:102160008EC1933031F48091EB0080628093EB005C
:1021700086C19091EB0090619093EB0021E030E0FC
:1021800001C0220F8A95EAF72093EA001092EA0034
:102190008091EB008860EACF81117AC110913A03F7
:1021A0001F778091E3008078812B8093E3008091FA
:1021B000E800877F8093E8000E946A048091E8002D
:1021C00080FFFCCF8091E30080688093E30082E091
:1021D000111183E0809336035BC18058823008F090
:1021E00057C140913A0350913B034C3D83E058075F
:1021F000A1F583E08A838AE289834FB7F894DE01F0
:10220000139620E03EE051E2E32FF0E050935700B8
:10221000E49120FF03C0E295EF703F5FEF708E2FD7
:1022200090E0EA30C0F0C7968D939D932F5F2431E4
:1022300059F74FBF8091E800877F8093E8006AE2FA
:1022400070E0CE0101960E9416058091E8008B7720
:102250008093E8001DC1C096E7CF80913C03909128
:102260003D03252F33272330310509F44AC078F583
:102270002130310509F486C08BE590E0E4E2F6E018
:102280002230310509F004C12091E800277F209316
:10229000E80020913E0330913F038217930708F432
:1022A0009C0140E02115310509F071C041116FC05A
:1022B0008091E80082FDC9CF80913603882329F2FE
:1022C000853019F28091E80083FFF2CFBECF213232
:1022D000310509F448C02232310509F0D9C08330F4
:1022E000910508F0D5C0FC01EE0FFF1FE858FE4F26
:1022F0000190F081E02D8B589E4FDC018C9190E095
:1023000026C0CA019927423031F18330910568F423
:102310000097B1F0019709F0BBC0E1ECF6E0E49161
:102320008E2F90E0E1ECF6E012C0039709F0B0C008
:10233000E1E9F6E0E4918E2F90E0E1E9F6E007C0F4
:10234000E7EDF6E0E4918E2F90E0E7EDF6E0009700
:1023500009F49EC099CFEFEAF6E0E4918E2F90E069
:10236000EFEAF6E0F4CF8330910508F091C0880FD2
:10237000991FFC01E258FE4F0190F081E02D89E0A9
:1023800090E082CF82E190E0EFE7F6E07DCF8091B0
:102390003603882309F459CF853009F456CF80914C
:1023A000E80083FD52CF8091E80082FD81CF8091CB
:1023B000E80080FF77CF9091F3008091F200211523
:1023C000310519F08830910550F041E0089709F087
:1023D00040E08091E8008E778093E80063CF4491DD
:1023E0004093F1003196215031090196E8CF8038B1
:1023F00009F04EC08091E800877F8093E8008091CB
:1024000037038093F10091CE811142C010913A03BD
:102410001230F0F58091E800877F8093E8001093F8
:1024200037030E946A04112311F084E005C08091F3
:10243000E30087FDFACF81E08093360342E061EC50
:1024400081E00E94890442E261EC84E00E948904F8
:1024500042E261EC82E00E94890442E260EC83E0A7
:102460000E9489048091360313C080913A03813021
:1024700079F481E0933009F080E080933503109285
:10248000E9008091E800877F8093E8000E946A0459
:102490008091E80083FF0AC08091E800877F8093E5
:1024A000E8008091EB0080628093EB00AA96E3E065
:1024B0000C94562A0E94640F2FEF84E39CE0215075
:1024C00080409040E1F700C0000088E19AE00FB63C
:1024D000F894A895809360000FBE90936000FFCFA2
:1024E000882341F080959091F50189238093F5012F
:1024F0000E94F00E0895882339F09091F501892B00
:102500008093F5010E94F00E0895882321F00E9427
:1025100050090E94F00E0895882339F09091F60139
:10252000892B8093F6010E94F00E0895882381F193
:102530009CEF980F913A28F40E9469090E94F00ECE
:10254000089590E2980F983050F4877091E001C0A0
:10255000990F8A95EAF7892F0E945009EFCF9BE5E2
:10256000980F933028F490E080E00E9418060895B8
:1025700098E5980F9B3128F490E080E00E94F205E6
:10258000089593E3980F933118F460E00E94770A5E
:102590000895FF920F931F93CF93DF93F82E00912E
:1025A0000203109103030115110509F449C01092AB
:1025B0000103109200031092FD021092FE02D80156
:1025C0001696CD91DC91CE019A9581159F4108F424
:1025D000D07ED1E0C11101C0D0E0D8011996ED91B3
:1025E000FC911A97309731F01B966D917C9180E0A9
:1025F0000995D823DD2339F08CEF8C0F813A30F523
:102600008C2F0E946909FF2099F0E0910203F0915C
:102610000303808584FD0CC08091FF02882341F074
:10262000808191819C01215031092F333E47A0F0D8
:102630000E94F00E10920303109202031092FF0208
:10264000C801CDB7DEB7E5E00C94542A0E94F00E25
:102650008C2F0E949612D7CF0E943E06E9CFCF93CF
:10266000C82F8823C1F18CEF8C0F813AB0F580918F
:102670002201882301F180910F0387FF1CC0EC2FFA
:10268000E695E695E695F0E0EA57FE4F828190E008
:102690004C2F477021E030E002C0220F331F4A95D3
:1026A000E2F782239323892B79F08C2F0E9469090A
:1026B0000E94F00E09C0E8E8F1E08191C817A9F383
:1026C00021E0EE38F207C9F76C2F86E891E00E940E
:1026D000BC050E94F00ECF91089580E28C0F8830E7
:1026E00068F4C77021E030E001C0220FCA95EAF714
:1026F0008091F601822B8093F601EBCF8BE58C0F56
:10270000833038F42C2F2452330BC9010E94180651
:10271000E2CFE8E5EC0FEB3150F4F0E0EE0FFF1FF5
:10272000E05DFE4F808191810E94F205D4CF83E36A
:102730008C0F833180F661E08C2F0E94770ACBCF1B
:102740000F931F93CF93C82F10E000E0893311F44B
:1027500000E510E08C2F0E942F130115110539F4AC
:102760008C2F0E949612CF911F910F9108958FE99F
:102770009FE00197F1F700C0000001501109EDCF73
:10278000FF920F931F93CF93DF93C62FD42F122F57
:10279000FC0185818823A9F060937C030E94B00529
:1027A00090937B0380937A03C77081E001C0880F08
:1027B000CA95EAF70E948C12CDB7DEB7E5E00C941B
:1027C000542A80917C03681330C080917A039091E1
:1027D0007B030E948405883C910538F500E20D0FCB
:1027E000CD17A9F0C770FF24F3948F2D01C0880F77
:1027F000CA95EAF70E948512083048F48D2F877039
:1028000001C0FF0C8A95EAF78F2D0E948C12812F50
:102810000E94A013083080F6D77081E001C0880FB5
:10282000DA95EAF70E948512C7CFC77081E001C030
:10283000880FCA95EAF7F6CFB0E0A0E0E2E2F4E153
:102840000C94332AEC018AE0A82E2881222309F473
:102850008FC02130C9F599818A81913021F4229667
:102860000E94A01305C0923029F422960E942F13D3
:102870002196EBCF933021F422960E949612F8CF46
:10288000943011F02196F4CF229630E020E0AE0192
:102890004F5F5F4F8053990B8A30910550F0215064
:1028A000310930F38FE99FE00197F1F700C0000094
:1028B000F6CFA29EB001A39E700D11249C01260F9D
:1028C000371F8981EA01E3CFE22FF0E0E55FF84F9F
:1028D000B490822F86958695869590E0FC01E55010
:1028E000F94FE4902770F12C022E02C0F594E79482
:1028F0000A94E2F731E0E322FF24FC01E551F94FAD
:10290000C490D12C022E02C0D594C7940A94E2F749
:1029100031E0C322DD24FC01E552F94F049110E0BF
:1029200002C0159507952A95E2F701701127E11469
:10293000F10419F081EE0E942F13C114D10419F093
:1029400086EE0E942F138B2D0E94A013C114D10478
:1029500019F086EE0E949612E114F10419F081EE4E
:102960000E9496120115110509F482CF8CE278CFEE
:10297000CDB7DEB7EAE00C944F2ACF93DF93EC019A
:102980000E944F0B9E01205E31092830310510F066
:10299000209741F40E948C128C2F0E942F13DF91FC
:1029A000CF9108950E947B12F7CF9091100392FB74
:1029B000222720F9281779F080FB92F990931003D1
:1029C00060910F037091100384E090E00E94092B46
:1029D00082E00E943A0A0895A7E0B0E0E2EFF4E155
:1029E0000C942B2A7C01DC0114968C91149788237B
:1029F00009F4F7C021E04C9111965C911197129661
:102A00006C91129713967C91139715969C910E9446
:102A1000270E8C01F7013580332009F4E6C0975763
:102A20008038910508F0B4C0D02EFFE0F01708F40C
:102A3000C8C08FEF93E00E94CD2A8111C2C009E186
:102A400013E0D1103EC08091230190912401A09108
:102A50002501B091260189839A83AB83BC83992495
:102A60009A9468013FEFC31AD30AC8010E94CD2A85
:102A700089831A82882309F4A4C0813009F082C0B6
:102A8000580182E0A80EB11CC6010E94CD2AD82EA2
:102A90008A83882309F495C0C5010E94CD2AC82ED7
:102AA0008FEF8D0D8330D8F4580193E0A90EB11C3F
:102AB000CB82CC2021F0CE0101960E941C1485010E
:102AC000D0CF011524E0120709F47BC0C8010E9491
:102AD000CD2A811101C0DA940F5F1F4FB2CF8BEF67
:102AE0008D0D833040F5C8010396CB825C01CC206C
:102AF00031F35801A4E0AA0EB11C0E94CD2A8C83A8
:102B00008823E9F20B811C810130BFEF1B0710F015
:102B1000102F0027E6E0DE1651F0F7E0DF1619F07F
:102B2000C8010E94F01DC8010E94B81DC8CFC8018D
:102B30000E94F01DC4CF24E0D212C1CF580134E06E
:102B4000A30EB11CC80103960E94CD2A282FCC20C9
:102B5000C1F18823B1F12150330B929EA001939EC5
:102B6000500D1124AC2DA150BB0BCD01840F951F2E
:102B7000019708F4A4CFEFE9FFE03197F1F700C027
:102B80000000F6CFCE0101960E941C14560197CF8B
:102B90000E352CE7120791F00F353CE7130741F093
:102BA0000D358CE7180709F580910001882331F075
:102BB0001092000180E00E94C91203C081E080935E
:102BC00000018091D401877061F0D70115968C9136
:102BD000882339F08091100382FF03C082E00E94B5
:102BE0003A0A2796E2E10C94472A80910001882353
:102BF00009F483C4480190EE891A91082090F901E4
:102C00008091D101282A8091F601282AA8E08A160D
:102C1000910408F086C098012770332781E090E086
:102C200001C0880F2A95EAF7332009F477C0282AD3
:102C3000F701808191810E94A00921E030E0290103
:102C400002C0440C551C8A95E2F720910203309192
:102C500003033F832E836090A6017090A7011D821D
:102C60003D81E32FF0E0EE0FFF1FEB59FD4FC080D9
:102C7000D180C114D10409F461C4211005C0D6016A
:102C800012968C91811189C0F601838190E0842194
:102C90009521892B09F481C08085982F977009F4BC
:102CA00087E0F8E08F16910408F055C0332009F44E
:102CB0004EC086958170882309F46FC0D601AD900F
:102CC000BC900A151B0519F4332009F466C0EE8187
:102CD000FF81CE16DF0609F460C0D6011D96ED9186
:102CE000FC91309721F08081882309F456C0622D31
:102CF000C6010E949006882309F44FC00A151B05DF
:102D000009F06FC40115110509F470C4311070C4C5
:102D1000A614B70409F041C0312C6AC4809528225A
:102D200087CF332009F4F3C31093A7010093A601C2
:102D30000E9493056093F9027093FA028093FB025C
:102D40009093FC02109201031092000371CF82FB5A
:102D5000882780F9B0CF332001F18170ACCF0E9479
:102D6000961265C40497813A910558F46A2D86E855
:102D700091E00E94BC05332009F4BFC30E94F00E0D
:102D800020CF0E94F00E8FE39CE90197F1F700C07D
:102D900000008A2D0E942F13EECF9D819F5F9D839F
:102DA0005FCFFC01208131810217130709F09EC318
:102DB00031109EC31092FF0280E00E94C9129DC391
:102DC00026E241EE61EEC7010E94C013FACE27E26F
:102DD00045EE65EEF8CF26E241EE60EEF4CF27E255
:102DE00045EE64EEF0CF26E241EE62EEECCF27E254
:102DF00045EE66EEE8CF28E241E0EBCF80910F038D
:102E0000816080930F0360910F037091100384E041
:102E100090E00E94092B0E94640FD3CE8091100392
:102E2000886080931003EFCF80910F038260E9CF19
:102E300080910F038460E5CF80910F038860E1CF1C
:102E4000809110038160EDCF809110038260E9CF03
:102E500080910F038061D5CF80910F038062D1CF25
:102E600080910F038064CDCF0E94640F80910F0387
:102E70008068C7CF80910F038C60C3CF809110030F
:102E80008360CFCF80910F038E7FBBCF80911003E3
:102E9000877FC7CF80910F038D7FB3CF80910F03C2
:102EA0008B7FAFCF80910F03877FABCF80911003D3
:102EB0008E7FB7CF809110038D7FB3CF80910F03AA
:102EC0008F7E9FCF80910F038F7D9BCF80910F03CB
:102ED0008F7B97CF0E94640F80910F038F7791CFE4
:102EE00080910F03837F8DCF809110038C7F99CFCA
:102EF00080910F0382FB992790F921E0922790FBA4
:102F000082F990FB83F97DCF80911003982F9095E3
:102F100091708E7F892B90FB81F983CF90910F0365
:102F2000892F8F7B96FF80646CCF0E94640F9091F5
:102F30000F03892F97FB87F9805863CF61E08EE0FC
:102F400090E00E94EB2A5FCF60E0F9CF90910F03F1
:102F5000892F8F7E94FF806154CF90910F03892F2A
:102F60008E7F90FF81604DCF90911003892F877FD6
:102F700093FF886056CF85E331C30837FCE71F070E
:102F800009F467C08823A9F00A352CE7120709F471
:102F90008DC008F064C001308CE7180709F484C0C4
:102FA00003309CE7190709F479C001151C4709F49F
:102FB00068C0F7018581C080D180882309F47AC078
:102FC000C6010E94C60D182F682FC6010E94D409A1
:102FD000B601812F0E94A90D0E9418088C01782E3D
:102FE000D7011596CC9015971696BC90B2942FE009
:102FF000B2228091D4018770F1F0AC2CCC20E1F0AA
:10300000812F807F803451F080E2800F883098F0EB
:10301000B11004C0812F807E803269F0809110034E
:1030200082FF09C082E00E943A0A8091D401877031
:10303000AA24A3948111A12C812F82958F70882EB0
:10304000912C8C3008F09BC0F401ED5CF44D0C9495
:10305000762A882311F082E024C382E030C30B3546
:10306000BCE71B0729F10C351C4709F0A2CF809162
:10307000100382FB882780F991E089270E94D514EC
:1030800098CF0E94640FFFEF24E33CE0F150204012
:103090003040E1F700C000000E9473056FEF7FEF42
:1030A00090E080E00E94092B0E945A1281E0E6CF56
:1030B00080E0E4CFC6010E94A009182F89CFB12F6C
:1030C000BF70DB2E107F19F0D29490EFD922802FA1
:1030D000CC20B9F0DD2069F090E2900F983010F02C
:1030E000011109C08091F601D82AD092F6010E9400
:1030F000F00E802F42C08091F501D82AD092F501C0
:10310000F6CF0E949612DD20D1F1005E083010F05B
:10311000711004C08D2D0E94500906C0D09480917A
:10312000F501D822D092F5010E94F00E28C0E12FBF
:10313000EF70DE2E107F103219F0D29480EFD8227B
:10314000772059F0F1E07F1609F490C0CC2009F403
:103150009CC0BB2009F449C0CCCF8091100382FDF4
:1031600040C0CC20C1F1DD2039F08091F601D82A91
:10317000D092F6010E94F00E80E00E942F13B8E07A
:103180008B1A9108E4E08E16910410F40E94790CD9
:10319000AA20B1F08091D40180FD12C0D70115960C
:1031A0001C928695869586950E94510AC7010E94B9
:1031B000EC148091D4018695869586950E942D0AFF
:1031C00020E0F70140815181628173818481958182
:1031D0000E94270E06CD80E00E949612DD2079F233
:1031E00099CFCC2071F1B11004C08D2D0E948C12AA
:1031F000C6CF21E0B21211C01091F9018D2D8123AB
:10320000D81609F4BCCF0E94B0059093F8018093C2
:10321000F701D12AD092F901B2CF35E0B312AFCF86
:103220008D2D0E948C128D2D0E943B098091D10121
:103230009D2D9823D91609F4A2CFD82AD092D10176
:103240009ECFB1100AC08D2D0E9485128D2D0E9437
:103250003B098D2D0E945F0992CF81E0B8128FCF7C
:103260008091F6018D2109F48ACFEDCFCC2029F091
:1032700095E09B1508F483CFB8CFA4E0AB1508F414
:103280007ECF8D2D0E9485127ACFBB20D1F30933DA
:1032900049F4BFEFE7EEF3E0B150E040F040E1F772
:1032A00000C00000802F0E94961269CF812F869562
:1032B0008695837061F0813009F061CFC801937009
:1032C000C11002C080E090E00E94F20558CFC80112
:1032D0009370C11002C080E090E00E9418064FCFAA
:1032E0006C2D802F0E94770A4ACF812F837091F531
:1032F000C11045CF402F429546954770440F440F6B
:10330000802F8F70042E01C0880F0A94EAF7202FB7
:10331000207104FF07C02FE030E001C0220F4A9562
:10332000EAF72095169516951370123071F0133048
:1033300051F030913302113029F0822B83230E9407
:10334000740A1DCF832B822BFACF282B8091330256
:103350008227F5CF8695CC2011F0812F81708823AC
:1033600009F40DCF402F429546954770440F440F06
:10337000802F8F70042E01C0880F0A94EAF7202F47
:10338000207104FF07C02FE030E001C0220F4A95F2
:10339000EAF72095169516951370123071F01330D8
:1033A00051F030913402113029F0822B83230E9496
:1033B0000A0AE5CE832B822BFACF282B8091340288
:1033C0008227F5CF1F70CC2029F0812F0E94510A4F
:1033D000802F0CCF802F0E948512812F0E942D0AF2
:1033E000CECE802F22EF7216B1F1271570F030EF9C
:1033F0007316D1F091EF791691F0CC2009F466C0E4
:10340000B11077CE812F8F712AC0A3EF7A1651F1B8
:10341000B4EF7B12F2CF8091100382FD2FC0812F79
:103420008F71CC20D9F21BC0CC2081F0E4E0EB15E9
:1034300008F4A5CE1F7181E090E0012E01C0880F35
:103440000A94EAF7909134028927B1CFF5E0FB1591
:1034500008F495CEEFCF812F8F71C110BFCF0E949E
:10346000510A8DCE80E0CC2009F4A1CF1F7181E0FC
:10347000012E01C0880F0A94EAF799CFCC20C9F039
:103480008091D4018770843041F40E945809812FC3
:103490008F710E942D0AA12C72CE24E02B15D8F337
:1034A0001F71812F0E94510A63E0812F0E945D0AE3
:1034B000F2CF34E03B1530F40E94580964E0812FCC
:1034C0008F71F4CF81E00E943A0AE5CFBB2059F01A
:1034D000893309F0E7CE8FEF97EEA3E0815090405B
:1034E000A040E1F7DDCE812F8F7178CF332029F016
:1034F000DC0118968C9185FF5FCCF801E851FC4700
:10350000E730F10570F5E15CF44D0C94762A80917A
:10351000A6019091A7010817190781F41092A7013D
:103520001092A6011092F9021092FA021092FB0278
:103530001092FC021092010310920003809102038A
:10354000909103030097C9F2A8E08A16910408F04D
:1035500028CC622D0E9490068111CFCF81E00E947D
:10356000C912F7018581882379F110927C039801B3
:1035700030572332310598F484E090E00E94D52A38
:103580009093100380930F03F801E150F047E2326B
:10359000F10508F033CCEA5BF44D0C94762A063141
:1035A000BCE71B0709F077C08091F6018A7A91E0A9
:1035B00009F490E09093A80169E2811165E386E83F
:1035C00091E00E94BC05DACB0631ECE71E0709F05A
:1035D00070C08091A8018111CECC89E20E94690956
:1035E000CDCBA114B10409F093CB312CB12CA12C7B
:1035F00080E00E94C912D0920303C092020381E0CE
:103600008093FF02D60115968C918093FD023110B4
:103610000EC0AB2861F0F601808191819C0124509D
:103620003109213A310508F09ACB0E946909D60187
:103630001696AD90BC90C5019A9581159F4110F4E6
:10364000E0EEBE2277247394C50101978F339E4725
:1036500008F0712CD6011996ED91FC911A973097CC
:1036600031F01B966D917C9181E00995782277204D
:1036700079F0F601868197810E944F0B8093FE02BC
:10368000C501F8E08F16910408F06CCB0E943E064D
:103690000E94F00E70CB0737FCE71F0709F06DCCD6
:1036A00081E00E94510A43E062E081E00E940D0A3D
:1036B00088CA07372CE7120709F05FCC81E00E9427
:1036C0002D0AF1CFCF93DF938091D001807F09F055
:1036D0004DC08091CF01882309F448C0E09179035F
:1036E00050914003C091CB01D091CA016091CC01AF
:1036F0007091CD0147E05E17C9F18E2F90E0E49FF5
:10370000F0011124EF5BFC4F2481222391F1489FAB
:10371000F001499FF00D1124DF01AF5BBC4F119602
:103720002C9111972C1325C02C912D1322C0159686
:103730002C91159721111DC012962D913C91261B9D
:10374000370B283C3105A8F48091D0018F7080613F
:103750008093D001E95BFC4F80818F708061808312
:103760008AEC91E00E94EC140E949609DF91CF91BF
:103770000895FC013196E770BECFADE0B0E0E3EC18
:10378000FBE10C94312A8C0186E0F801DE011896E9
:1037900001900D928A95E1F7F8018481E5809AEC19
:1037A000A92E91E0B92E9091CE01911128C08823C5
:1037B00019F1EE20F1F0C8010E94000EF82E8823C6
:1037C000C1F087E0F801D50101900D928A95E1F7EB
:1037D0008091CE01813031F48091CA019091CB016A
:1037E0000E94F10D0E94621B8F2D2D96ECE00C942F
:1037F0004D2AC8010E94EC14FF24F394F5CFD08029
:10380000C18082809380F090CF012091CC013091D3
:10381000CD01A401421B530BFF2009F4BCC0483C5E
:10382000510508F092C08823F9F29091CB01809164
:10383000D001282F207F09F056C0C91214C09091E2
:10384000CA01D91210C0E11048C08F708061809306
:10385000D0018AEC91E00E94EC148091D001F80133
:103860008683F12CC1CFE11038C06C2D8D2D0E94C4
:10387000E5036C2D8D2D0E94E503E82E8111F1CF1B
:10388000D886C986888599850E94F10D292F2295B1
:103890002F70903458F49F70223088F0992399F05B
:1038A000F8019681907F79F4FE2C9ECF2A5F2F70CD
:1038B000223068F0C8010E94EC14EF2CF5CF992358
:1038C00011F0882389F3805E883070F3F3CF803F56
:1038D00058F3815F833040F3EDCF8091D001816058
:1038E0008093D001BECFC91207C09091CA01D912EE
:1038F00003C0EE2009F470C0C8010E94000E8823A6
:1039000009F477CFEE2009F474CF8091D001803292
:1039100088F02091CA013091CB013A8329839C829F
:103920008B829091CE019D831E828F83CE01019662
:103930000E94EC1487E0F801AAECB1E001900D922E
:103940008A95E1F70E94621B57CF9091D001292FF1
:10395000207F51F48AEC91E00E94EC1487E0F5019D
:1039600011928A95E9F77DCF882309F43DCF8091A4
:10397000CB018C11C1CF8091CA01D812BDCFE1100B
:10398000BBCF9683C8010E94EC1487E0F501119229
:103990008A95E9F729CF483C5105B8F7882309F4FF
:1039A0002BCFFE2CEE2009F424CF8091CB018C117B
:1039B00020C08091CA01D8121CC08091D00180FD26
:1039C0000FC0982F907F61F08683903F31F0982F41
:1039D000907F905F8F70892B8683C8010E94EC14C2
:1039E00087E0F801AAECB1E001900D928A95E1F729
:1039F000FBCEC8010E94000E81119CCF8091D001A6
:103A000081608093D001C8010E94EC14EDCEABE13F
:103A1000B0E0EDE0FDE10C94392A4E8B5F8B688FAE
:103A2000798F8A8F192F9B8F91111092F5011D8A22
:103A300086E0FE017696DE011F9601900D928A9532
:103A4000E1F70A8D8091100382FF1CC00E94B0052F
:103A50002091D2013091D301821B930B883893417E
:103A600020F08091D40182FF7FC00E94B005209198
:103A7000F7013091F801821B930B8838934110F0C5
:103A80000E943009002341F021E04F85588969895F
:103A90007A89C8010E94270E0B8B1C8B87E0FE01E0
:103AA0003F96DE01189601900D928A95E1F7CE01BE
:103AB00008960E94BD1B81110CC087E0FE0138965C
:103AC000DE01119601900D928A95E1F74C85411126
:103AD0000BC017E08091790390914003891332C0A5
:103AE0006B96E4E00C94552A2091400330E0C90124
:103AF0000196877099275091790358171906A1F0FC
:103B00004D8397E0929FD001939FB00D1124AF5B3E
:103B1000BC4FFE01319601900D929A95E1F780938A
:103B200040030E949609D5CF0E94640F1092400373
:103B30001092790387E0EAECF1E0DF011D928A95AB
:103B4000E9F7C7CF819FC00111248F5B9C4F0E9472
:103B5000BD1B882329F28091790390E0019687703C
:103B6000992780937903B6CF82E00E943A0A7DCFED
:103B7000A6E0B0E0EEEBFDE10C94392A8C019093C5
:103B8000630280936202011580E21807C0F4802F5F
:103B90000E949612C8010E944F0B9801205E3109C5
:103BA0002830310518F00115110531F40E948512F5
:103BB0002696E4E00C94552A0E947012F9CF80EF0B
:103BC00089838A830E94B0058160682F9C838B83E0
:103BD00049815A817C8181E090E00E94071DE8CFF5
:103BE000A6E0B0E0E6EFFDE10C943B2A909363027F
:103BF00080936202811520E2920730F40E94BD1486
:103C00002696E2E00C94572A80EF89838A830E94EB
:103C1000B0058160682F9C838B8349815A817C81A8
:103C200081E091E00E94071DEBCFA6E0B0E0EBE160
:103C3000FEE10C94392A0E94B0058C018091FA01B2
:103C40009091FB018017910781F019821A820E94DE
:103C5000B005682F49815A81792F80E090E00E9459
:103C6000071D1093FB010093FA012696E4E00C94E3
:103C7000552AA8E0B0E0EFE3FEE10C943A2A409127
:103C80001C0250911D0260911E0270911F022FB7FD
:103C9000F89480910B0390910C03A0910D03B091C7
:103CA0000E032FBF841B950BA60BB70B11E08436B8
:103CB0009105A105B10578F10E948A0CDC01CB01C8
:103CC0000296A11DB11D89839A83AB83BC83809129
:103CD0001201909113018F5E9D4F20911101422F8F
:103CE00050E0253010F044E050E0BE016F5F7F4FA0
:103CF0000E94AD2A82E090E00E94B529182F882307
:103D000051F00E94930560931C0270931D028093F2
:103D10001E0290931F02812F2896E3E00C94562AEE
:103D2000A7E0B0E0E6E9FEE10C94382AF62E072F72
:103D300090E080E00E94B529182F882309F479C00B
:103D400080910401482F50E0882311F041E050E0B9
:103D500060910501709106016F5E7D4FCE0107965F
:103D60000E94AD2A40910D0250910E0260910F0207
:103D7000709110022FB7F89480910B0390910C036F
:103D8000A0910D03B0910E032FBF841B950BA60BC2
:103D9000B70B84369105A105B10540F482E192E0AC
:103DA0000E9403049F81891709F443C081E090E0D9
:103DB0000E94B52981110FC010E086E0E7E0F2E033
:103DC000AF2DB02F01900D928A95E1F7812F2796A4
:103DD000E5E00C94542A80910C01482F50E0873084
:103DE00010F046E050E060910D0170910E016F5EA1
:103DF0007D4FCE0101960E94AD2A82E192E00E94A1
:103E000003049F818913D8CF0E94930560930D020C
:103E100070930E0280930F029093100286E0FE01D1
:103E20003196A7E0B2E001900D928A95E1F711E09A
:103E3000C4CF86E0E2E1F2E0DE01119601900D923E
:103E40008A95E1F71111EACFB8CFA6E1B0E0EBE235
:103E5000FFE10C94312A1A821982FE0133968AE01E
:103E6000DF011D928A95E9F788E6E82E81E0F82EB9
:103E700010E000E0CC24C394D12C25E7A22E21E051
:103E8000B22EF70181917F018F3F09F445C0F8946C
:103E9000E82FE295EF70F0E021A18F70A60102C03B
:103EA000440F551F8A95E2F7CA01922F982B91A3D0
:103EB00092A18095892382A3789400C0EEE6F1E078
:103EC00031E0912C21912F3F09F470C0A22FA295CF
:103ED000AF70B0E090968C9190E02F7002C09595F5
:103EE00087952A95E2F780FD61C0832F982A330FCA
:103EF000AE16BF0639F7F701319780818F3F11F079
:103F00000E941A0750EA5A95F1F7E1E0F0E0EC0F51
:103F1000FD1FE00FF11F90820F5F1F4F063011054C
:103F200009F0AFCF4CE050E0BE016F5F7F4F85E2FC
:103F300092E00E94A02A9C01892B49F08CE0FE01AE
:103F40003196A5E2B2E001900D928A95E1F70091D9
:103F50003202232B69F181E08093FE010E94B005BB
:103F60009093FD018093FC018091FC019091FD01F3
:103F70000E948405059700F110E0095B1D4F46E0A3
:103F800050E065E272E0C8010E94A02AE12C892B72
:103F900051F086E0E5E2F2E0D80101900D928A95B9
:103FA000E1F7EE24E3941092FE0107C080E09ECF7B
:103FB0008091FE018111D8CFE12C0E94560CF82E81
:103FC000E0913202882309F475C01E861D869E0189
:103FD000215F3F4F84E0D9011D928A95E9F70E2FAA
:103FE00010E0095B1D4F809120028A3050F540E9B6
:103FF0005EE1BE01635F7F4FC8010E941D0C8823F4
:1040000009F447C049E35EE1BE01635F7F4FC80129
:104010000E941D0C8823E9F1109220028091310248
:1040200090E046E050E0BE01635F7F4F895B9D4FAB
:104030000E94A02A21E020930502892BC1F4F12CD3
:1040400022C08091FF01909100020E948405843F6C
:10405000914068F680910502882389F3FE013D9620
:1040600086E0DF011D928A95E9F710920502A09182
:104070003102B0E0A95BBD4F86E0FE013D960190A4
:104080000D928A95E1F78F2D8E296696ECE00C94BF
:104090004D2A809120028F3F31F08F5F8093200264
:1040A0008A3008F4BBCF0E94B00590930002809341
:1040B000FF01D0CFF0E0E95BFD4F86E0A2E1B2E086
:1040C00001900D928A95E1F782E192E00E9403044B
:1040D000809311028090180290901902A0901A0209
:1040E000B0901B028091010290910202A091030204
:1040F000B091040288169906AA06BB0609F49FCF60
:104100008092010290920202A0920302B0920402F5
:104110000E94560CF82E811192CF0E949305861AA8
:10412000970AA80AB90A8092210290922202A092CC
:104130002302B0922402A7CF1F920F920FB60F92C4
:1041400011242F933F934F935F936F937F938F939C
:104150009F93AF93BF93CF93DF93EF93FF93D09150
:10416000E900DF708091EC00C82FC17080FDC0E8CD
:104170001092E9008091F000877F8093F00078949E
:104180000E94930F1092E9008091F0008860809364
:10419000F000CD2BCF70C093E900FF91EF91DF913C
:1041A000CF91BF91AF919F918F917F916F915F91CF
:1041B0004F913F912F910F900FBE0F901F90189528
:1041C0001F920F920FB60F9211242F933F934F938C
:1041D0005F936F937F938F939F93AF93BF93EF936F
:1041E000FF938091E10082FF09C08091E20082FF8D
:1041F00005C08091E1008B7F8093E1008091DA001F
:1042000080FF24C08091D80080FF20C08091DA0018
:104210008E7F8093DA008091D90080FF9BC080E17F
:1042200089BD82E189BD09B400FEFDCF81E08093A4
:10423000360380911103811109C00E941A040E9463
:10424000BB048091E20084608093E2008091E100F1
:1042500080FF17C08091E20080FF13C08091E200D0
:104260008E7F8093E2008091E20080618093E20083
:104270008091D80080628093D80019BC85E080933B
:1042800036038091E10084FF29C08091E20084FF21
:1042900025C080E189BD82E189BD09B400FEFDCF62
:1042A0008091D8008F7D8093D8008091E1008F7E2F
:1042B0008093E1008091E2008F7E8093E200809104
:1042C000E20081608093E20080913703882309F443
:1042D00047C084E080933603809136038091E100EB
:1042E00083FF27C08091E20083FF23C08091E1001B
:1042F000877F8093E10082E080933603109237033A
:104300008091E1008E7F8093E1008091E2008E7FBA
:104310008093E2008091E20080618093E20042E0BD
:1043200060E080E00E9489048091F00088608093C2
:10433000F000FF91EF91BF91AF919F918F917F918D
:104340006F915F914F913F912F910F900FBE0F9002
:104350001F90189519BC109236031092110376CF56
:104360008091E30087FD02C081E0B4CF83E0B2CF4B
:1043700078941F921FB61F9211248F939F93AF932F
:10438000BF9380910B0390910C03A0910D03B0910A
:104390000E030196A11DB11D80930B0390930C0396
:1043A000A0930D03B0930E03BF91AF919F918F9196
:1043B0001F901FBE1F9018951F921FB61F921124A9
:1043C0008F939F93AF93BF9380910A03811113C082
:1043D00080910B0390910C03A0910D03B0910E03FB
:1043E0004196A11DB11D80930B0390930C03A093E4
:1043F0000D03B0930E03BF91AF919F918F911F90CA
:104400001FBE1F901895CDB7DEB7AF970FB6F894C3
:10441000DEBF0FBECDBF85B7806885BF85B780681A
:1044200085BF84B7877F84BF0FB6F894A895809125
:104430006000886180936000109260000FBE80E889
:1044400090E00FB6F89480936100909361000FBEE6
:1044500088E197E090938501809384010E94640E27
:104460000E941A040E94BB048091E2008460809341
:10447000E2007894809136038823A1F01091E9003E
:104480001F709091EC00892F817090FD80E8182BAF
:104490001092E9008091E80083FD0E94930F1F7045
:1044A0001093E90082E084BD93E095BD9AEF97BD3B
:1044B00080936E0010922102109222021092230229
:1044C000109224020E944B0E811102C00E946A0DBC
:1044D0000E94560C809319010E94560C81110E9473
:1044E000C828809119018091190196E0811190E00E
:1044F0009093320286E0891B8093310208E611E036
:10450000FEE6EF2EF1E0FF2ED8018D918D018F3F59
:1045100011F00E941A07E016F106B1F70EE611E05D
:10452000F80181918F018F3F11F00E941A07F1E08D
:1045300005371F07A9F78CE0E7E4F2E0DF01282F39
:104540001D922A95E9F7E5E2F2E0DF011D928A95D6
:10455000E9F790E080E00E94D52A863E9E4F21F444
:104560000E944B0E811167C066EE7EEF90E080E006
:104570000E94092B60E082E090E00E94EB2A60E05C
:1045800083E090E00E94EB2A1092330260E074E135
:1045900084E090E00E94092B60E086E090E00E94B9
:1045A000EB2A6FEF87E090E00E94EB2A40E050E0BA
:1045B000BA0188E090E00E94FD2A60E084E290E089
:1045C0000E94EB2A60E087E190E00E94EB2A60E025
:1045D0008CE090E00E94EB2A60E08DE090E00E9489
:1045E000EB2A19821A821B821C821D821E821F8264
:1045F000188648E050E068E170E0CE0101960E9424
:10460000DB2A40E050E0BA0180E290E00E94FD2AFF
:1046100080E00E94F40C0E946A0D40E050E0BA0174
:104620008FE090E00E94FD2A40E050E0BA0183E173
:1046300090E00E94FD2A82E090E00E94CD2A8093C3
:10464000350284E090E00E94D52A90931003809375
:104650000F030E94251FEFE3FCE93197F1F700C03B
:1046600000000E94251F8091470280FF08C06FEF65
:104670007FEF90E080E00E94092B0E94730583E0A9
:1046800090E00E94CD2A0E94740A0E94560C81116B
:1046900002C00E94CB288AE191E0909307038093A7
:1046A0000603E8E12E2E312C87E492E0FCE0F80FBF
:1046B000FFA78091360370E4F72E00E112E1853008
:1046C00009F485C00E94251F66E3C62E62E0D62E3F
:1046D00007E412E022E432E0D801F60191918D91D5
:1046E0002E173F0709F47DC09817C1F30E94560C9E
:1046F000682E57E4A52E52E0B52EF12C5524539484
:10470000D501ED905D01F60171906F017E1429F1E4
:104710007E24912C88248394872D8821B1F06620F3
:10472000A1F09982FA820E94B0059C838B835D82FE
:1047300091E08E2D882109F490E09E8349815A8171
:104740006B817C818D810E94071D9394880CF7E01A
:104750009F12E2CFF6013197E082F3942CE0F2123F
:10476000CFCF0E948A0C41C080913603843009F17A
:1047700010920A030FB6F894A895209260000FBE1D
:10478000F092600083B7817F846083BF83B78160CC
:1047900083BF7894889583B78E7F83BF0FB6F894D4
:1047A000A8958091600088618093600010926000FD
:1047B0000FBE80913503882351F00E94251FE7E446
:1047C000F2E08191811163C42FA52E13FACF80915D
:1047D0003603853009F4C8CF0E94640F0E94790C1B
:1047E00071CF981383CF0E94151E0E94560C882308
:1047F00009F445C08091000390910103892B09F4CD
:104800003EC04091F5025091F6026091F70270911E
:10481000F8022FB7F89480910B0390910C03A091AC
:104820000D03B0910E032FBF841B950BA60BB70B86
:104830004091F1025091F2026091F3027091F40202
:1048400084179507A607B707D0F0809100039091D1
:1048500001030E94BD1410920103109200031092F4
:10486000F5021092F6021092F7021092F8021092DE
:10487000F1021092F2021092F3021092F40286E01A
:10488000ECE5F2E0DE01119601900D928A95E1F7D8
:1048900010925E0210925F0210926002109261020A
:1048A0008B819C81892B09F44AC080915A02909196
:1048B0005B020E9484059C0180915502882309F4C3
:1048C00009C425313105D8F18F3F19F08F5F8093EE
:1048D0005502FB80FF2059F00E94F8069FEF1F143D
:1048E0000CF491E0899F802D112480935E02FC805E
:1048F000FF2059F00E94F8069FEF1F140CF491E07E
:10490000899F802D112480935F0230915E023323B2
:10491000B1F020915F02222391F045EB3403C001F6
:104920001124992309F4C0C090935E0245EB24033F
:1049300090011124332309F4BBC030935F028D81B1
:104940009E81892B09F44AC08091580290915902A6
:104950000E9484059C0180915602882309F4B5C306
:1049600021353105D8F18F3F19F08F5F80935602C2
:10497000FD80FF2059F00E94D6069FEF1F140CF413
:1049800091E0899F802D112480936002FE80FF209A
:1049900059F00E94D6069FEF1F140CF491E0899FF6
:1049A000802D112480936102309160023323B1F095
:1049B00020916102222391F045EB3403C0011124C0
:1049C000992309F479C09093600245EB2403900188
:1049D0001124332309F474C03093610246E050E09F
:1049E000BE016F5F7F4F8CE592E00E94A02A892B69
:1049F00061F480915E0290915F02892B9091600238
:104A0000892B90916102892B11F00E94B00686E0FB
:104A1000FE013196ACE5B2E001900D928A95E1F786
:104A20000E94790C90914202891721F080934202F2
:104A30000E94930580913603843009F03ACE83E0DA
:104A40008093E9008091E80082FF33CE8091E800F6
:104A500090E085FF05C00E9439048823A9F191E008
:104A60008091E8008B778093E800992309F421CEA8
:104A7000E0905302F0905402E981E114F10409F44A
:104A800041C0EE3F09F066C08A81833020F0855036
:104A9000833008F05FC0EA81EE3008F05BC0F0E0E0
:104AA000E859F44D0C94762A81E080935E023ECF63
:104AB00081E080935F0243CF81E08093600285CFE5
:104AC00081E0809361028ACF40E2E42EF12CCE0196
:104AD00001966C018091E80085FD0AC08091E80094
:104AE0008B778093E8000E943904882399F3B7CF2D
:104AF0008091F100D6018D936D01B1E0EB1AF108C0
:104B000049F7ADCFE43150F4EE2359F0E150E331F1
:104B100040F4F0E0EA58F44D0C94762AEE3F09F4A4
:104B2000BACFCE0101960E94BB0B14C01A8289E055
:104B30008B8310C08A81823009F4BFC2833099F020
:104B4000813079F70E9493050E947C2A6B837C83D5
:104B50008D839E8340E250E0BE016F5F7F4F82E015
:104B60000E94800BA6CD8091EF029091F002892BDC
:104B700089F3FE013396D8018D918D018193B2E0C6
:104B800003351B07C1F7E6CF8A81823051F68B814E
:104B90009C81AD81BE818BA79CA7ADA7BEA7BC01A0
:104BA000CD010E947C2A88E290E00E94EB2AD2CFBD
:104BB0004C816B818A810E947A0D982789279827DA
:104BC0009E838D83C7CF2D813E81322723273227B5
:104BD0004C816B818A810E94CD0CBCCF0E940D0D4F
:104BE000B9CF8FEF8983B6CF80E18A83B3CF1A82A2
:104BF00087EE9ECF8C81C82ED12C8D3108F0AACFA4
:104C00000A811B81102701271027DE0111967D01E3
:104C1000CA0EDB1EC801875E9C4FCE14DF0409F468
:104C200099CF073E110558F40E94CD2AD70114965A
:104C30008C930F5F1F4FFFEFEF1AFF0AEBCFF701C7
:104C40001482F7CF8091EF029091F002892B09F442
:104C500081CF8C81C82ED12C8D3108F07BCF0A8179
:104C60001B811027012710279E012F5F3F4F7901DD
:104C7000C20ED31EC801875E9C4FCE14DF0409F418
:104C800069CF073E110528F4D70114966C910E9454
:104C9000EB2ABFEFEB1AFB0A0F5F1F4FEBCF0E940F
:104CA000BD0C58CF84E0A1CF8C81C82ED12C8D3182
:104CB00008F050CF0A811B81102701271027FE0121
:104CC00031967F01CE0EDF1EC8018996CE14DF0417
:104CD00009F440CF003A32E0130758F40E94CD2A7D
:104CE000D70114968C930F5F1F4FFFEFEF1AFF0A47
:104CF000EBCFF7011482F7CF8C81E82EF12C8D31A8
:104D000008F028CF0A811B81102701271027003ABD
:104D100022E0120708F01ECF80EA92E0801B910B80
:104D20008E159F0508F416CF480139E2830E911CB9
:104D30008091EF029091F00238016E0C7F1C892B5C
:104D4000C1F0CE0101967C01C801899606151705B0
:104D500009F400CF003A42E0140728F4D701149672
:104D60006C910E94EB2ABFEFEB1AFB0A0F5F1F4FFB
:104D7000EBCF680191E0C922DD2400FF0DC0C8011E
:104D800088960E94CD2A9D81892798278927811599
:104D90009C4711F48FEF8D83570160FE17C0B1E07F
:104DA000AB1AB10835E0432E512C4C0E5D1E4A0C57
:104DB0005B1CC4018E0D9F1D0E94CD2AF2019081C3
:104DC00081159C4719F48FEFD2018C93E1E0F0E05C
:104DD000EC0FFD1FEC0DFD1D2FEFCA14DB0408F0D6
:104DE000B0CF9481858181159C4711F4248325835C
:104DF00032E0C30ED11C3296F0CF8091EF02909139
:104E0000F002892B09F4A6CE40E250E0BE016F5FAC
:104E10007F4F82E00E94800BEFEFF1EE24E0E15043
:104E2000F0402040E1F700C0000027CC88E0E7E236
:104E3000F1E0DE01919601900D928A95E1F7FE0175
:104E40003D9684E1DF011D928A95E9F786E089832A
:104E50001A821B821C8288E07496DE0115960190EE
:104E60000D928A95E1F776CE80EC898381E08A8382
:104E70001B821C826FCE8C81682F70E0762F662794
:104E80008B81860F972F911D092E000CAA0BBB0B4F
:104E900025E0880F991FAA1FBB1F2A95D1F7AC01E7
:104EA000BD01405E5F4F6F4F7F4F803EEFEF9E072B
:104EB000AE07BE0708F04ECE803CF1E09F07A1058B
:104EC000B10508F047CE413C21E05207610571056C
:104ED00020F040EC51E060E070E0481B590BBC0151
:104EE0006C537E4FCE0101960E94972A33CE4AE141
:104EF00050E06FEF70E0CE0107960E94B62A8091D5
:104F0000EF028983EA821B821C8282E08D8381E02A
:104F10008E8320CE81E090E09093540280935302E0
:104F200082E390E090934602809345020E94B00590
:104F300090934402809343020DCEEF2861F11091CB
:104F400047020091490280914302909144020E94DD
:104F500084058536910540F101FF26C010FF24C06D
:104F60000E94B005909344028093430280914502D1
:104F70009091460201979093460280934502892BB7
:104F800051F4109254021092530281E090E09093F9
:104F9000F0028093EF028091EF02898380915302A7
:104FA0008A8380914502C4CD82E390E090934602CB
:104FB00080934502F0CF1092F0021092EF02CACD1A
:104FC00040E250E06FEF70E0CE0101960E94B62AF9
:104FD000C1CD8B81853079F0863059F18111BACD00
:104FE000FE0134968DE1DF011D928A95E9F7198261
:104FF0001A8288E09DCD6C812AE0CE018196FC0169
:10500000322F11923A95E9F7683088F4629FB00127
:10501000112467537D4F4AE050E00E94BD2A80E092
:1050200089838AE0FE01B196DE01129618CF8FEFD8
:10503000F7CF6C818AE0FE013596DE0191960190F2
:105040000D928A95E1F78BA19CA181154CE79407FD
:1050500041F42091EF023091F002232B11F490E003
:1050600080E09CA38BA38FEF683068F48AE0689F90
:10507000B001112467537D4F4AE050E0CE01819684
:105080000E940F2B80E089830E94640E63CD09BDCE
:1050900019BD09B400FEFDCF8091D8008F7D8093AB
:1050A000D8008091E00082608093E0008091E00071
:1050B00081FDFCCF0E94640F8ACB88E290E00E94C1
:1050C000CD2A1B821C821D8223CF2B30310508F094
:1050D0004CCC84CC2B30310508F0F8CB30CC8EE1B1
:1050E000499B02C08150E1F7499BFECF0895599832
:1050F00080E28A95F1F7599A0895FC013BE03A95D0
:10510000F1F798E020E080E031E040E14A95F1F7E6
:10511000880F499B02C08160232742E04A95F1F73E
:10512000000040E14A95F1F7915079F790E19A95A6
:10513000F1F799B132E03A95F1F7000040E14A9574
:10514000F1F79695917092272081920F90830895A0
:10515000A1E0B0E0EEEAF8E20C94372A19828C0163
:105160007C01E60EF11C0E151F0541F481E09981CA
:10517000911180E02196E6E00C94532A0E946F285A
:10518000CE0101960E947D28F80181938F01EBCF1B
:10519000519A599A08955198599AE99AE9E6F0E096
:1051A0008081837F808308956150770B91E001C0F7
:1051B000990F6A95EAF720E031E0911108C02223A7
:1051C00091F0599A80E28A95F1F759980895492FFC
:1051D000482339F0599A232740E24A95F1F79695EA
:1051E000ECCF5998F9CF5998EDCFFF920F931F93B9
:1051F000CF93DF93EC018C01060F111DC017D1076F
:1052000029F4CDB7DEB7E5E00C94542AF9900E945A
:10521000772868E08F2D0E94D428F0CF1F920F923C
:105220000FB60F9211240F931F932F933F934F9319
:105230005F936F937F938F939F93AF93BF93EF93FE
:10524000FF93CF93DF930F92CDB7DEB719820E9401
:105250006F28CE0101960E947D28282F082F0695E1
:1052600006950695982F92959570802F8570980FCA
:10527000892F837096959695890F822787709981DB
:10528000892B09F05CC0043008F059C080E18A9590
:10529000F1F7599A519A82E08A95F1F700C059982E
:1052A00088E0089F80011124D801AF5FBE4F169699
:1052B000ED91FC9117973097A9F06091660170917C
:1052C000670114962D913C911597260F371F119663
:1052D0008D919C911297680F791F13964C9113979B
:1052E0008C910995F801EF5FFE4F6381662351F0C1
:1052F000209166013091670184819581820F931F0F
:105300000E94F5280E94772880E18A95F1F7599844
:105310005198599A80E18A95F1F7F801EF5FFE4FB5
:105320006081662351F0209166013091670181818F
:105330009281820F931F0E94A8280E946F280F90CD
:10534000DF91CF91FF91EF91BF91AF919F918F919D
:105350007F916F915F914F913F912F911F910F918D
:105360000F900FBE0F901F9018950F931F93CF9320
:10537000DF93EC0104970CF04CC0F894519A5998C3
:1053800085E08A95F1F700008C2F869585709C2F1B
:105390009570890F982F93708695869523E0CC0F92
:1053A000DD1F2A95E1F7890F8E01082B0E947728CF
:1053B00000C068E0802F0E94D42880E18A95F1F730
:1053C0005198599A499B1EC087E090E049991CC0AA
:1053D000FE01EF5FFE4F63816623F9F020916601C5
:1053E0003091670184819581820F931F0E94A828C4
:1053F000811113C0519A599A7894DF91CF911F91DE
:105400000F91089500C0DECF019729F4519A599A5F
:10541000789480E0F2CF00C0D9CF0E946F2880E25C
:105420008A95F1F75998519A80E18A95F1F7CF5F03
:10543000DE4F6881662351F020916601309167014B
:1054400089819A81820F931F0E94F5280E947728F4
:10545000789481E0D2CF2F923F924F925F926F92D9
:105460007F928F929F92AF92BF92CF92DF92EF92F4
:10547000FF920F931F93CF93DF93CDB7DEB7CA1B75
:10548000DB0B0FB6F894DEBF0FBECDBF09942A88A0
:10549000398848885F846E847D848C849B84AA8448
:1054A000B984C884DF80EE80FD800C811B81AA81D5
:1054B000B981CE0FD11D0FB6F894DEBF0FBECDBFA0
:1054C000ED01089597FB072E16F4009407D077FDA1
:1054D00009D00E94832A07FC05D03EF4909581955F
:1054E0009F4F0895709561957F4F0895EE0FFF1FB0
:1054F0000590F491E02D099469279627692778276C
:10550000872778270895AA1BBB1B51E107C0AA1F54
:10551000BB1FA617B70710F0A61BB70B881F991F54
:105520005A95A9F780959095BC01CD010895FB018E
:10553000DC0102C005900D9241505040D8F708950B
:10554000FB01DC0104C08D910190801921F44150D0
:105550005040C8F7881B990B0895FB01DC0102C07D
:1055600001900D9241505040D8F70895DC0101C0E0
:105570006D9341505040E0F70895DC01CB01FC01F0
:10558000F999FECF06C0F2BDE1BDF89A319600B49C
:105590000D9241505040B8F70895F999FECF92BD51
:1055A00081BDF89A992780B50895A8E1B0E042E05E
:1055B00050E00C94BF2ADC01A40FB51F41505040AD
:1055C00048F0CB01840F951F2E910E94EC2A415088
:1055D0005040D0F70895262FF999FECF92BD81BD96
:1055E000F89A019700B4021639F01FBA20BD0FB621
:1055F000F894FA9AF99A0FBE08950396272F0E94FD
:10560000EC2A0E94EB2A252F0E94EC2A242F0C94CE
:10561000EC2A0196272F0E94EC2A0C94EB2ADC013D
:10562000CB0103C02D910E941A2B41505040D0F75E
:105630000895262FF999FECF1FBA92BD81BD20BDD6
:105640000FB6F894FA9AF99A0FBE01960895F89455
:10565000FFCF71109910481299104812CC10ED101C
:105660004812F71104125F185F1897189718561907
:105670007019BF18BF187519E219F119F119EB1655
:10568000EF16E016E716F316F716FB164217AD17DE
:105690004A17141718174E171C1752175E1728179A
:1056A000A6172C176217301766178E1734176A174C
:1056B00095173A17701778172017561724175A1787
:1056C0003E17741784179E17A4170E174617B417A2
:1056D000162734273B27AA25AA2577278A279D271F
:1056E000DB27E027AA25AA25AA25E92796259A25BA
:1056F000C425D825E325EE25F125F125F1259125B1
:10570000FD26F425F725FA2522264F265226542673
:025710007C26F5
:10571200010000000100000000000000060100007E
:10572200000407000000000000017005F50BEE0BFD
:10573200E70B0100000000B29189F802B03B49007A
:10574200E200E900EA00B500B600B700CD0083012F
:10575200CC008A0192019401210223022402250233
:10576200260227022A02B300B4006F0070009F01D4
:10577200CB019F02A0021102F6F7313332363534E3
:10578200C6976694904022B684016201AC00360648
:045792004F066F0649
:00000001FF
