:100000000C9469030C94B0030C94B0030C94B003EB
:100010000C94B0030C94B0030C94B0030C94B00394
:100020000C94B0030C94B0030C9441260C94F62469
:100030000C94D2270C94B0030C94B0030C94B0032E
:100040000C94B0030C94B0030C94B0030C94B00364
:100050000C94B0030C9485270C94B0030C94B0035B
:100060000C94B0030C94B0030C94B0030C94B00344
:100070000C94B0030C94B0030C94B0030C94B00334
:100080000C94B0030C94B0030C94B0030C94B00324
:100090000C94B0030C94B0030C94B0030C94B00314
:1000A0000C94B0030C94B0030C94B003830B9F0B1F
:1000B000A50BDB0BEC0BF70B050C180C590C5E0CAD
:1000C000720C720C720C660CC40CCF0CF80C310D57
:1000D000C506960DD80DDB0DE00DE30DE80DEB0D1B
:1000E000F00DF30DF60DF90DFC0DFF0D020E050ED2
:1000F000080E0B0E0E0E130E540E950EDC0EDF0EB8
:10010000E20E8E0F1B101E1024102F1032103D1007
:1001100040104B104E1059105C1067106E10DA151D
:10012000DA15121612167E169A16C517C517A716D7
:10013000171724172417692290224324902243245E
:10014000DC22FF224324002410247E2E7E2E912EBA
:10015000912E872E912E912E912E7E2E7E2E8C2EDC
:10016000912E912E8C2EFD377A585A000004E6D637
:10017000B4460200210116000000742FE5A3E00040
:10018000F8009D5D003D8889C65436C3174FE4D200
:100190001B819C61B6FB26ACE67585145746F95E5B
:1001A000B0C93D1BCC0CE9B9FB475BB6106AB7FA86
:1001B00000BF8B541EB248110EF819027DDE4D337C
:1001C0003128C6DA132C77E5A69527694DDF7B83A6
:1001D000168848E5452E98F7CDCB9EF416D82327F0
:1001E0006DBA32AB27103451AB3FD96934ED166488
:1001F000D4EC37D7F50F56072921C8120126461C23
:1002000024FE4C11A633934DB50F3E3A7B02BEB48B
:10021000D7EBF586EF640B74CE64379D92FA82FDBE
:10022000C9F50000000014CACFB938E91C26000146
:10023000B901F9010000CA8C5C39B1C467FB020046
:1002400000000004595A0000000001002A000200CA
:100250000100030002000400030005000400060082
:1002600005000700060008000700090008000A0052
:1002700009000B000A000C000B000D000C000E0022
:100280000D000F000E0010000F00110010001200F2
:1002900011001300120014001300150014001600C2
:1002A00015001700160018001700190018001A0092
:1002B00019001B001A001C001B001D001C001E0062
:1002C0001D001F001E0020001F0021002000220032
:1002D0002100230022002400230025002400260002
:1002E00025002700260028002700290028002A00D2
:1002F00029000000000000000000000000000000D5
:1003000000000000000000000000000000000000ED
:100310000000000000007E0F00D4FFFFFFC70000B8
:10032000007800000000000000002A2B28000000D8
:100330000000000000000000000000000029000094
:1003400000002C1E3420212224342627252E362D71
:100350003738271E1F202122232425263333362E0B
:1003600037381F0405060708090A0B0C0D0E0F107D
:100370001112131415161718191A1B1C1D2F3130C2
:10038000232D350405060708090A0B0C0D0E0F1066
:100390001112131415161718191A1B1C1D2F3130A2
:1003A000354C05010902A10185020901A1000509D9
:1003B0001901290515002501950575018102950191
:1003C000750381010501093009311581257F9502E9
:1003D0007508810609381581257F95017508810604
:1003E000050C0A38021581257F950175088106C024
:1003F000C005010980A101850319012AB700150173
:1004000026B700950175108100C0050C0901A101F6
:10041000850419012AA002150126A0029501751074
:100420008100C005010906A1018505050719E0291C
:10043000E7150025019508750181020507190029B6
:10044000EF1500250195F0750181020508190129B4
:1004500005950575019102950175039101C006602E
:10046000FF0961A1010962150026FF0095207508AA
:1004700081020963150026FF00952075089102C0CE
:1004800005010906A101050719E029E71500250165
:10049000950875018102950175088101050719000C
:1004A00029FF150026FF009506750881000508192B
:1004B000012905950575019102950175039101C00A
:1004C00009025B00030100A0FA0904000001030116
:1004D00001000921110100012240000705810308E4
:1004E000000A0904010002030000000921110100B3
:1004F00001222200070582032000010705030320D3
:10050000000109040200010300000009211101009B
:100510000122BC000705840320000A12010002002A
:10052000000008EEEE19200100010203011C037611
:1005300000690061006C003A006600360034006318
:1005400000320062003300630000001A03770033BA
:1005500000620079003200200052006F00740061D8
:100560000072007900000014034A0061006E002050
:10057000004C0075006E0067006500000004030970
:10058000041E001F00010001000100010001000124
:100590000005000700090001000400060008000A29
:1005A0000001000100010001000100010001000143
:1005B0000001000100010001000100010001000133
:1005C0000001000100010001000100010001000123
:1005D0000000010101010101010101020202020208
:1005E00002020202030303030303030304040404DB
:1005F00004040405050505050606060606070707A3
:10060000070708080808090909090A0A0A0B0B0B59
:100610000C0C0C0D0D0D0E0E0E0F0F0F10101111F6
:10062000111212131314141515161617171818197A
:10063000191A1A1B1B1C1D1D1E1E1F2020212222E1
:10064000232424252626272829292A2B2C2D2D2E24
:100650002F30313232333435363738393A3B3C3D3E
:100660003E3F404142434445464748494A4C4D4E2F
:100670004F50515354555658595A5B5D5E5F6162F5
:1006800064656668696B6C6D6F7072737577787A84
:100690007B7D7E8082838587888A8C8E8F919395DF
:1006A00096989A9C9EA0A2A3A5A7A9ABADAFB1B303
:1006B000B5B7BABCBEC0C2C4C6C9CBCDCFD1D4D6E3
:1006C000D8DBDDDFE2E4E7E9EBEEF0F3F5F8FAFD85
:1006D000FF0011241FBECFEFDAE0DEBFCDBF04B6AE
:1006E00003FE27C08091FA029091FB02A091FC02C8
:1006F000B091FD028730904BA740B04BD1F41092DF
:10070000FA021092FB021092FC021092FD0214BE3B
:1007100084B7877F84BF0FB6F894A8958091600056
:10072000886180936000109260000FBEE0E0F8E303
:10073000099511E0A0E0B1E0ECEDFBE602C0059008
:100740000D92A839B107D9F722E0A8E9B1E001C0BC
:100750001D92AA3FB207E1F70E94B2030C94EC3558
:100760000C940000CF93DF93CDB7DEB7E5970FB6BB
:10077000F894DEBF0FBECDBF84B7877F84BF0FB6AE
:10078000F894A89580916000886180936000109231
:1007900060000FBE90E080E80FB6F894809361008F
:1007A000909361000FBE85B7806885BF85B780686C
:1007B00085BF82E999E290939901809398010E9404
:1007C0003A250E94E0258091E20084608093E20057
:1007D000789480916A028823A1F01091E9001F703B
:1007E0009091EC00892F817090FD80E8182B109279
:1007F000E9008091E80083FD0E9483211F7010931F
:10080000E90082E084BD93E095BD9AEF97BD8093A7
:100810006E000E94071D811102C00E94F81C86EF25
:100820000E94D72982E30E94D72902E211E026E242
:10083000E22E21E0F22ED8018D918D018F3F11F033
:100840000E94D729E016F106B1F710929A01109292
:10085000F20110929B011092F3010E94632C81110E
:1008600002C00E946E2C82E090E00E94F5348093DA
:10087000D9010E94522C9093800280937F020E94A3
:10088000EE29EFE3FCE93197F1F700C000000E9488
:10089000EE298091F20180FF08C06FEF7FEF80E0CA
:1008A00090E00E9431350E94742783E090E00E941E
:1008B000F5340E94AC3010924002E9E5F2E08FEF8F
:1008C0009FEF8193919322E0E936F207D1F71092DE
:1008D0009C01E5EBF1E08FEF9FEF8193919331E085
:1008E000E53CF307D1F70E94632C811104C00E94FC
:1008F0006E2C0E94371E46E050E06CE170E08AE307
:1009000092E00E94E53480913A028C7F11F40E94BB
:10091000371E5098589A5198599A89B1982F9170CA
:10092000499B02C082E001C080E0892B8093D701FF
:1009300084E091E0909377028093760280916A023E
:10094000853009F045C090E4F92E00E112E1809174
:100950006A02853009F038C080916A02843019F14A
:1009600010927A0288E190E00FB6F894A8958093EF
:1009700060000FBEF092600083B7817F846083BF08
:1009800083B7816083BF7894889583B78E7F83BF58
:100990000FB6F894A89580916000886180936000FC
:1009A000109260000FBE80912C02882309F4CFCFF3
:1009B0000E94EE298091F201811199C78091F30183
:1009C000882309F4C4CF93C70E94B0300E948428C2
:1009D0000E94EE2981110E94BA27E2EFF1E0AAED10
:1009E000B1E000E010E0E02EC1908D918C2509F47B
:1009F00020C1F12CDD24D394982F9D2109F414C13A
:100A0000F9A6EAA6CD2081E009F480E08BA70E9438
:100A1000C6278160782F9DA78CA749A55AA56BA5ED
:100A20008DA50E945B11F801E652FE4F8081D82609
:100A3000D082CC2049F0AE014F5F5F4F6F2D8E2DDD
:100A40000E941D1E982E01C0912CC92CD12C809182
:100A50009C01D601A80FB11D19976CF188E090E0B8
:100A60005C01AC18BD08B60163567E4FA5018DE947
:100A700091E00E94DC35B6016B557E4FA50185EAF9
:100A800091E00E94DC35A501440F551FB601660FA9
:100A9000771F6B547E4F85EB91E00E94DC35B601E9
:100AA00063557E4FA5018DEA91E00E94DC3588E018
:100AB000891980939C01D0909C01FE0131965F01C1
:100AC00060E0862F8D0D961649F190E0D5017D915D
:100AD0005D01272F30E0DC01A456BE4FA901440F71
:100AE000551F435B5E4FFA01408111964C9311975D
:100AF000220F331F2B5B3E4FF901218519962C9352
:100B0000199751967C93880F991FDC01A456BE4F0C
:100B10005A961C921E9259976F5FD3CF80939C0177
:100B200080913A028C7F803709F099C0AFEFAF0D0A
:100B300061E06F0D000F111F000F111FAF1560F462
:100B4000C80183539E4F8A0F911DFC01208130E123
:100B5000230F08F42FEF20838F2D90E003531E4FB7
:100B60009801280F391FF901408150E2450F08F420
:100B70004FEF4083643049F0060F111DF8012081CA
:100B800030E1230F08F42FEF2083EE2021F0F1E075
:100B9000EF1649F164C0AF1560F4B0E0A353BE4F47
:100BA00014962C9114973DE0230F08F42FEF149620
:100BB0002C93DC01A353BE4F14962C91149730E173
:100BC000230F08F42FEF14962C93643009F447C0D8
:100BD000E62FF0E0E353FE4F24813DE0230F08F4BD
:100BE0002FEF24833CC0AF1548F4B0E0A353BE4FB1
:100BF0002C913DE0230F08F42FEF2C93DC01A3533D
:100C0000BE4F2C9130E1230F08F42FEF2C9364306A
:100C100031F1E62FF0E0E353FE4F20813DE0230F5A
:100C200008F42FEF20831BC0F394DD0C24E0F212B4
:100C3000E3CE0F5F1F4F0230110509F0D4CE8FEFC6
:100C40008EA78FA718AA0E94C6278160782F9AAB1B
:100C500089AB4EA55FA568A98AA90E945B11809106
:100C6000C5019091C601A091C701B091C8012FB7ED
:100C7000F894C0907B02D0907C02E0907D02F090CE
:100C80007E022FBFC81AD90AEA0AFB0A0E94BA27B5
:100C90006093C5017093C6018093C7019093C8010A
:100CA000A0919C01ECE9F1E02A2F30E088248A949D
:100CB000982CA12CB12C8C189D08AE08BF08A31746
:100CC00099F0418D528D2A01612C712C8414950468
:100CD000A604B70410F4215004C04C0D5D1D528FC2
:100CE000418F3F5F3296EBCF20939C0130913A02C7
:100CF000232F237021F0E32EE694E69401C0E12C2B
:100D0000209110012130E9F038F0223009F472C04E
:100D1000233009F478C09BC0109212016093360210
:100D200070933702809338029093390289E2ECE99C
:100D3000F1E0A0E4B2E001900D928A95E1F781E044
:100D400056C090910F01E9120DC0832F837090E07F
:100D500040910E0150E021E08417950709F420E04E
:100D6000822F01C081E081708093140180913F0245
:100D700090911301981709F4DAC58093130140E0AC
:100D800060E080E00E94AC1DD2C5F0901201FF0C23
:100D900072E0D72EDF0CA6E0AD1510F466E0D62E7B
:100DA000B0903C02A0903D0220913E0250E4C52E3E
:100DB0003C2D329F312D1124C32EFD1408F48FC613
:100DC00081E045E04D1510F40C94971090911201BC
:100DD0009F5F909312018111B5C582E0809310014D
:100DE000809114018111AEC5E110AFC583E08093FD
:100DF00010012DC0E0920F01832F837080930E01AC
:100E00000E941B1AF3CF8091F50181110E942F1EC1
:100E10001092F501409136025091370260913802EC
:100E2000709139022FB7F89480917B0290917C02E7
:100E3000A0917D02B0917E022FBF841B950BA60B63
:100E4000B70B4097A105B10510F0109210018091E9
:100E5000D701E82FEE0FEE0FE093D70189B180FBA9
:100E6000222420F8312C499B03C082E090E002C08C
:100E700080E090E0822993298E2B8093D7018F7098
:100E8000E82FF0E0EA5DFE4F90818091D601890F56
:100E90008093D60184305CF08091D5018F5F809380
:100EA000D50160E080E00E94861C21E001C020E0C6
:100EB0008091D6018D3F54F48091D501815080936B
:100EC000D50161E080E00E94861C21E08091D6017E
:100ED000082E000C990B64E070E00E94AE35809300
:100EE000D60121110E94BA2786E0E4EFF2E08E01DC
:100EF0000F5F1F4FD80101900D928A95E1F7C090C6
:100F0000F602F090F702D090F802E090F902109209
:100F1000F6021092F7021092F8021092F902C11034
:100F200003C0FF2009F452C08091F2029091F302B5
:100F30000E94AB279C019091EE02992311F40C942E
:100F40009A102333310508F441C09F3F19F09F5F89
:100F50009093EE02CC2061F00E94F8331C1414F43C
:100F600091E001C09FEF899F802D11248093F602AC
:100F7000FF2061F00E94F8331F1414F491E001C0C7
:100F80009FEF899F802D11248093F7023091F60204
:100F90003323E1F02091F7022223C1F045EB340323
:100FA000C0011124992319F09093F60203C081E047
:100FB0008093F60235EB2303C0011124992319F025
:100FC0009093F70203C081E08093F702D11003C031
:100FD000EE2009F452C08091F0029091F1020E943B
:100FE000AB279C019091ED02992311F40C94A11070
:100FF0002536310508F441C09F3F19F09F5F90935B
:10100000ED02DD2061F00E94D6331D1414F491E04E
:1010100001C09FEF899F802D11248093F802EE205C
:1010200061F00E94D6331E1414F491E001C09FEFCA
:10103000899F802D11248093F9023091F802332387
:10104000E1F02091F9022223C1F045EB3403C00105
:101050001124992319F09093F80203C081E0809342
:10106000F80235EB2303C0011124992319F0909362
:10107000F90203C081E08093F9028091F6028111A8
:101080000BC08091F702811107C08091F802811195
:1010900003C08091F90281110E942733CB82FC8228
:1010A000DD82EE8286E0F801A4EFB2E001900D92BD
:1010B0008A95E1F70E9484289091D801891721F040
:1010C0000E9484288093D80180916A02843009F0BC
:1010D00035CC83E08093E9008091E80082FF2ECC3C
:1010E0008091E80085FF21C00E94592581111BC015
:1010F00020E2C22ED12C780109C08091F100D701E5
:101100008D937D01B1E0CB1AD10869F08091E800A0
:1011100085FDF3CF8091E8008B778093E8000E94F3
:101120005925882399F391E001C090E08091E8006F
:101130008B778093E800992309F400CCE0906F024C
:10114000F09070028981E114F10461F08E3F09F0A2
:10115000C9C38A81833008F4CAC28550833008F03D
:10116000C1C3C5C28B3009F4ACC240F5853009F467
:101170006DC0B0F48230F1F130F4813009F0AFC3CA
:101180001A8289E094C3833009F451C0843009F095
:10119000A6C34C816B818A810E94581C9D83C5C364
:1011A000873009F461C008F45CC0883009F4CEC00F
:1011B000893009F094C30E942F1E94C3803109F432
:1011C000C4C160F48D3009F462C108F45EC18E3090
:1011D00009F461C18F3009F489C181C3823109F4F6
:1011E000BAC108F4B5C1833109F4DEC18E3F09F4F8
:1011F0007EC275C38A81823009F490C3833051F076
:10120000813009F06CC30E94BA279B838C837D8355
:101210006E8368C380916B0290916C02892B09F4F4
:1012200061C38091F2018B838091F301D3C28A81E3
:10123000823009F054C36B817C818D819E810E9434
:10124000C83586E290E00E9413354CC32D813E8163
:101250003227232732274C816B818A810E94221CEE
:1012600041C30E942F293EC38A81813421F08234F8
:1012700009F43AC037C34B815C8180913A02982FC0
:1012800093704115510539F49111109210018C7F22
:1012900080933A021EC0911102C0109210018C7FFF
:1012A000816080933A0226E432E0F901329685911A
:1012B0009491F901659174914617570739F02C5FA5
:1012C0003F4FE2E0223F3E0781F780E060E00E946E
:1012D0007E1D8D8180933E028E8120E048856F8146
:1012E00090E00E94261DFEC24B815C818D81F3E05F
:1012F0008F9F900111242E3131050CF0F3C2D801DB
:10130000FA01EE0FFF1FE40FF51FE052FE4F20E041
:1013100030E090E02817390708F0E4C21396BA01CC
:10132000620F731F6630710508F0DCC212966C9173
:101330001297608313966C911397618314966C9146
:10134000149762832F5F3F4F3396E4CF8A818234B4
:1013500009F442C028F4803451F0813471F0C2C2E3
:10136000833409F459C0843409F459C0BBC281E004
:101370008B831C828FEF8D83B5C280913A02982FA8
:101380009370B1F08695869590E026E432E062EFA6
:1013900072E0F9013296A591B491F9014591549109
:1013A0008A179B0741F02C5F3F4F6217730789F73D
:1013B00090E080E002C0942F852F9B838C838091E6
:1013C0003E028D8380913B028E8380913C028F830D
:1013D00080913D02888786C2EB80FC804EE150E020
:1013E0006FEF70E0CE0103960E94E53586E492E04F
:1013F000DE0113962EE1FC0145915491E416F506A9
:1014000028F4223018F04D935D932250049632E078
:10141000823F930781F766C286E08B8394C18B81FC
:1014200090E0863091050CF05DC2FC01EE0FFF1FCD
:10143000E35BFE4F20812B83FC01EE0FFF1FEB5B74
:10144000FE4F21852C83FC01EB5BFE4F24892D830D
:10145000009769F08130910561F08230910561F06B
:101460008530910559F0049759F481E00AC080E075
:1014700001C081E090E006C082E0FCCF80E001C0C6
:1014800082E091E09E838F832DC280E162C083E081
:101490008A8389E80CC2EA80FB80FE24EF24FE24C4
:1014A000AC80B12C4DE1A416B10408F01BC2680158
:1014B000C70189589F4F9601201B310B2A153B0508
:1014C00008F010C2A9E8EA16A3E0FA0628F40E9480
:1014D000F534F601848303C0D60114961C92BFEF45
:1014E000EB1AFB0AEFEFCE1ADE0AE2CF80916B0215
:1014F00090916C02892B09F4F5C1EA80FB80FE24EF
:10150000EF24FE24CC80D12CFDE1CF16D10408F0CD
:10151000E9C15801C70189589F4F9501201B310B24
:101520002C153D0508F0DEC129E8E21623E0F2069D
:1015300028F4D50114966C910E941335BFEFEB1A75
:10154000FB0AEFEFAE1ABE0AE5CF0E940329CAC11B
:1015500084E08A83C7C1EA80FB80FE24EF24FE2456
:10156000AC80B12CFDE1AF16B10408F0BBC168013D
:10157000C70187969601201B310B2A153B0508F001
:10158000B1C120E4E216F10430F40E94F534D60132
:1015900014968C9302C0F6011482FFEFEF1AFF0A33
:1015A0002FEFC21AD20AE4CFEA80FB80FE24EF2498
:1015B000FE24AC80B12C3DE1A316B10408F092C129
:1015C00040E4E416F10408F08DC180E490E08E1947
:1015D0009F098A159B0508F485C1370187E2680ECB
:1015E000711C80916B0290916C02892B11F0680143
:1015F0005FC0E0FE0FC0C70186960E94F53490E000
:10160000982F88272D81822B81159C4531F48FEFEF
:101610008D8303C0C12CD12C03C0CC24C394D12C06
:10162000C5018E0D9F1D450180FF1BC0B1E08B1AC7
:10163000910855E0452E512C4C0E5D1E480C591C4E
:10164000C3018A0D9B1D0E94F534F201208130E018
:10165000322F2227282B21153C4519F48FEFD20178
:101660008C93F801EC0DFD1D2FEFCF01801B910B2A
:101670008815990508F0BBCF848190E0982F8827C2
:101680003581832B81159C4511F424832583329663
:10169000ECCFE0E4EE16F10428F4D60114966C9138
:1016A0000E941335BFEFEB1AFB0AEFEFCE1ADE0AEA
:1016B000C70187969601201B310B2A153B0548F37D
:1016C00011C180916B0290916C02892B09F40AC1BF
:1016D000C8010E94761EFFEF21EE34E0F150204059
:1016E0003040E1F700C000000E947427FBC0EA818F
:1016F0008E2F90E08E30910508F0F4C0FC01EA5A7C
:10170000FF4F0C94C23588E0E5E1F1E0DE019196EF
:1017100001900D928A95E1F780E2D8011D928A9599
:10172000E9F784E0898388E0FE01B196DE01159631
:1017300001900D928A95E1F781E08D87D3C080EE0C
:1017400089831A821B821C82CDC08C8190E0982FE5
:1017500088272B81820F911D092E000CAA0BBB0B31
:1017600035E0880F991FAA1FBB1F3A95D1F7AC012E
:10177000BD01405E5F4F6F4F7F4F481759076A07A3
:101780007B0708F4AFC0803E9105A105B10508F0C4
:10179000A9C0413E51056105710520F040EE50E0C1
:1017A00060E070E0481B590BBC016A597E4FC801CC
:1017B0000E94DC3497C0FB80EC8040E06E2D8F2DC2
:1017C0000E94F81B99838A8341E06E2D8F2D0E9421
:1017D000F81B9B838C8386C02E813F813227232771
:1017E00032274D816C818B810E94C61B7BC040E2F9
:1017F00050E06FEF70E0C8010E94E53580916B0208
:101800008983EA8281E08B838EC081E090E09093AF
:10181000700280936F0282E390E09093DF018093E7
:10182000DE010E94C6279093DD018093DC015AC03F
:10183000EF28A9F1F090F201F1FAFF24F0F880917D
:10184000F301F8228091DC019091DD010E94AB2729
:1018500085369105F0F0FF20E1F00E94C6279093B5
:10186000DD018093DC018091DE019091DF01019721
:101870009093DF018093DE01892B89F4109270022E
:1018800010926F0281E090E090936C0280936B0263
:1018900006C082E390E09093DF018093DE018091A7
:1018A0006B02898380916F028A838091DE018B8332
:1018B00019C010926C0210926B0214C040E250E00A
:1018C0006FEF70E0C8010E94E5350CC08B8181117B
:1018D00009C080E2F80111928A95E9F703C0C801B6
:1018E0000E949C1EC8010E94761E0C949E0409BD95
:1018F00019BD09B400FEFDCF8091D8008F7D809383
:10190000D8008091E00082608093E0008091E00048
:1019100081FDFCCF0E94B0300C94A70486E290E0D9
:101920000E94F5341B821C821D828E83DBCF8E2D9C
:1019300090E08B32910518F1809112018F5F8093B6
:1019400012014BCAEE2009F482CA809169020E94FA
:10195000FF17823049F0833079F0813009F077CA7F
:101960002FEF4FEF6FEF03C02FEF40E060E082E01A
:1019700090E00E94AE1D6BCA20E04FEFF7CFFC0154
:10198000EC59FF4F0C94C23580911401882309F45F
:10199000CEC340E060E080E00E94AC1DC8C310915F
:1019A0001201110F02E0010F073008F006E060910C
:1019B0003B0270913C0280913D020E949732F62ECC
:1019C000D72EC82E101708F0F1C1E12FF0E0DF018B
:1019D000AB5BBE4F54968C9190911301982331F0DC
:1019E0002C2D4F2D6D2DCF010E94AE1D1F5FEACF14
:1019F00010911201110F02E0010F073008F006E00C
:101A0000D0903C02F0903D02C0903B02B6018F2D79
:101A10000E949732B62EA72E982E60913E026C0D32
:101A20007D2D8F2D0E949732F62ED72EC82E10179F
:101A300008F0BCC1812F90E0FC01EB5BFE4F3489C4
:101A400020911301232359F030FF04C02C2D4F2D7A
:101A50006D2D03C0292D4B2D6A2D0E94AE1D1F5FD9
:101A6000E6CFF0901201FF0C02E0D02EDF0C36E042
:101A70003D1510F416E0D12EB0903C02A0903D022E
:101A800020913E02B0E4CB2E4C2D429F412D1124DB
:101A9000C42EFD1408F045C30F2D10E0F801EB5BD8
:101AA000FE4F9489809113018923B9F0F801EE0F5C
:101AB000FF1FEB5BFE4F818582958F7060913B022B
:101AC0008C9D600D11247B2D8A2D0E949732462F0C
:101AD000282F672FC8010E94AE1DF394DACF0F2D77
:101AE00010E0F801EB5BFE4F94898091130189238C
:101AF000D9F0F801EE0FFF1FE35BFE4F6081C69E39
:101B0000B001112445E0759567954A95E1F78091FC
:101B10003B02680F7B2D8A2D0E949732462F282F7B
:101B2000672FC8010E94AE1DF39447C9109112019E
:101B3000110F02E0010F073008F006E0D0903B02E1
:101B4000F0903C02C0903D0260913E026695669521
:101B5000669580913602909137020E948D320E94E4
:101B60003B32805887FD8195880F282F3C2D239F7D
:101B7000212D1124822F6D2D7F2D0E949732F62E5C
:101B8000D72EC82E101708F011C1E12FF0E0DF01A9
:101B9000AB5BBE4F54968C9190911301982331F01A
:101BA0002C2D4F2D6D2DCF010E94AE1D1F5FEACF52
:101BB0008DED91E302C081EB91E30E94082006C9FC
:101BC0008FE79BE102C080E69BE10E942A21FEC8CC
:101BD00085E49BE102C089E29BE10E94B120F6C846
:101BE00089E19AE1EACF80E19AE1E7CF87E09AE1E3
:101BF000E4CF8CEE99E1E1CF8DED99E1EECF8DE967
:101C00009BE1E3CF88E19BE1E0CF84E09BE1E5CF7E
:101C10008FEA99E105C08DE799E102C08FE399E170
:101C20000E945320D3C88091140181111EC060917D
:101C30003E0220E1620F08F46FEF8091360290912E
:101C400037020E948D326AE070E00E949A35892B3B
:101C500009F06DC20E94CC3466E070E00E94AE359F
:101C6000609113010E94D71D62C200911201000F02
:101C700022E0F22EF00E46E04F1510F496E0F92E19
:101C800010E0CF2CD12C0C151D0544F460911301EC
:101C9000C8010E94D71D0F5F1F4FF5CF81E095E06F
:101CA0009F1508F093C843C28091140181111EC092
:101CB00060913E0220E1620F08F46FEF80913602DE
:101CC000909137020E948D3265E070E00E949A3553
:101CD000892B09F02CC20E94CC3466E070E00E948F
:101CE000AE35609113010E94B01D21C20091120116
:101CF000000F82E0F82EF00EA6E0AF1510F416E00B
:101D0000F12E10E0CF2CD12C0C151D0544F4609160
:101D10001301C8010E94B01D0F5F1F4FF5CF81E076
:101D2000B5E0BF1508F052C802C210911201110FA0
:101D300002E0010F073008F006E0D0903C02F0907E
:101D40003D02C0903B0260913E02669566956695A5
:101D500080913602909137020E948D320E943B3270
:101D6000805887FD8195880F682F2CE0629F612D38
:101D700011246C0D7D2D8F2D0E949732F62ED72EBB
:101D8000C82E101798F4E12FF0E0DF01AB5BBE4FD7
:101D900054968C9190911301982331F02C2D4F2D56
:101DA0006D2DCF010E94AE1D1F5FEBCF81E006308D
:101DB00010F40C94E606BBC180EE9AE1FECE8EE2F2
:101DC00099E1FBCE00911201000FB2E07B2E700E64
:101DD000E8E0E71510F4A8E07A2E8091140188233A
:101DE00061F040E060E080E00E94AC1D88E0EDEC36
:101DF000F1E0DF011D928A95E9F7809112018111CE
:101E000015C08091CA019091CB010E94AB2721E0BF
:101E10008931910508F420E02093C901499730F0F9
:101E20000E94C6279093CB018093CA0110E0472CF3
:101E3000512CFE0131964F01FAEA6F2E041515055B
:101E40000CF065C06801D594C794C80181709927CA
:101E50009C01220F331F220F331F3CAB2BABF90128
:101E6000E353FE4FEC0DFD1DF080A4016C2D0E948C
:101E70001D1E8DAB54018A2D8819EDA98E1708F00F
:101E800032C0D501EC91F0E0EB5BFE4F948980917C
:101E90001301892321F13F2D25E5321B08F430E0A1
:101EA00070913C02262D4F2D240F08F42FEF409106
:101EB0003D0282E0289F200D11242E5F249F212DBA
:101EC0001124662D631B822F0E949732462FD50165
:101ED0009C91282F672F892F90E00E94AE1DBFEFA5
:101EE000AB1ABB0AC8CF8091C901882369F02F2D96
:101EF00031E0231B08F420E08BA99CA983539E4F5B
:101F0000FC01EC0DFD1D20830F5F1F4F97CF81E07B
:101F100047E0471510F00C94E60609C180911401C2
:101F2000882371F040E060E080E00E94AC1D88E012
:101F3000EDECF1E0DF011D928A95E9F71092CC01FA
:101F40000DEC11E05801912C88248A9460EC762ED7
:101F50006501F12CF1100CC08091CC01811108C0F9
:101F60000E94CC34853595401CF4F501808206C072
:101F7000D6018C9181508E3F08F48C93AE014F5F57
:101F80005F4F692D8F2D0E941D1E882319F1F601C8
:101F900040813981413D78F050E0405D5109749EA7
:101FA000C001759E900D11246FE270E00E949A3579
:101FB000262F4FEF0BC0FFEF4F9FC001112460EDA4
:101FC00070E00E949A35462F20E060E0832F90E079
:101FD0000E94AE1DF39424E0C20ED11C32E0F31235
:101FE000B9CF93944FEFA41AB40A84E09812B0CFFB
:101FF0008091CC018F5F8D3118F48093CC0197C014
:102000001092CC018EEFD80114969C9114979F3FAB
:1020100079F0D8019C919F3F39F00F5F1F4FB1E0DD
:10202000013D1B0781F783C0F80180839483F5CFBE
:1020300014968C93EECF87E299E102C081E299E198
:102040000E94961F0C94E6068091400221E0382FF2
:10205000321B08F430E0832F68E079E13BC068E090
:1020600079E137C08091400221E0482F421B08F4FB
:1020700040E0842F60ED78E12DC060ED78E129C06B
:102080008091400221E0382F321B08F430E0832F8A
:102090006EE978E11FC06EE978E11BC080914002D3
:1020A00021E0482F421B08F440E0842F66E878E1E5
:1020B00011C066E878E10DC08091400221E0382F20
:1020C000321B08F430E0832F60E778E103C060E75B
:1020D00078E180E00E94D11E0C94E606F090120197
:1020E000FF0C52E0D52EDF0C46E04D1510F446E013
:1020F000D42EFD14B0F40F2D10E0F801EE0FFF1FE9
:10210000E00FF11FE052FE4F6081718182810E94D9
:102110009732462F282F672FC8010E94AE1DF394D7
:10212000E8CF81E095E09D1510F00C94E60680E084
:102130000C94E6062D32314010F00C94A7070C9455
:10214000E6072D32314010F00C94FE070C943D0848
:10215000AF92BF92CF92DF92EF92FF920F931F93B5
:10216000CF93DF93EC018AE0A82E2881222309F483
:1021700097C0213009F041C08981813039F48E0146
:102180000E5F1F4F8A810E94953108C0823041F452
:102190008E010E5F1F4F8A810E941D31E8017EC0B3
:1021A000833039F48E010E5F1F4F8A810E94EB301D
:1021B000F5CF843011F0219671C02A81229680E0FB
:1021C00090E030E0205331092A30310558F4A89EC0
:1021D000A001A99E500D1124C901840F951F2196BD
:1021E0002881EFCF009709F459C0EFE9FFE031975C
:1021F000F1F700C000000197F5CFE22FF0E0EE5DAF
:10220000FC4FB490822F86958695869590E0FC01D0
:10221000EE5EFC4FE4902770F12C022E02C0F59484
:10222000E7940A94E2F7F1E0EF22FF24FC01EE5F6D
:10223000FC4FC490D12C022E02C0D594C7940A94AE
:10224000E2F731E0C322DD24FC01EE50FD4F0491A2
:1022500010E002C0159507952A95E2F70170112745
:10226000E114F10419F081EE0E941D31C114D10472
:1022700019F086EE0E941D318B2D0E949531CD28DC
:1022800019F086EE0E94EB30EF2819F081EE0E94E3
:10229000EB30012B19F08CE20E949531219665CF2D
:1022A000DF91CF911F910F91FF90EF90DF90CF9032
:1022B000BF90AF900895DF92EF92FF920F931F931C
:1022C000CF93DF93CDB7DEB767970FB6F894DEBF35
:1022D0000FBECDBF4B8B5C8B162F6D8B7E8B8F8B88
:1022E00061111092E202DE011D9686E0FD0111925D
:1022F0008A95E9F785E0FE01739601900D928A9523
:10230000E1F7DB880C89EE88FF880E94C6272091C0
:10231000DE023091DF02821B930B8838934140F03C
:102320008091E00282FB992790F981E0892701C022
:1023300080E080FF03C082E00E94612D0E94C627DA
:102340002091E4023091E502821B930B883893417F
:1023500010F00E94D82CDD860E871F87F98AE88A44
:1023600086E0FE013D96DE01179601900D928A955A
:10237000E1F7CE0107960E94952E81113EC086E0BE
:10238000FE013796DE01119601900D928A95E1F7D4
:10239000FF81E8856A857B856115710531F0EF3F26
:1023A00031F481E0FF3F19F403C081E001C080E017
:1023B00080FD23C02091AB0230E0C90101968770F7
:1023C00099274091DC0250E08417950779F1F98351
:1023D000EA837D836C8396E0929FD001939FB00D3A
:1023E0001124A455BD4FFE01319601900D929A958E
:1023F000E1F78093AB020E949A2D16E08091DC02F7
:102400009091AB028917F9F0189FC00111248455EF
:102410009D4F0E94952E8823B1F08091DC0290E0C0
:102420000196877099278093DC02E8CF0E94B03034
:102430001092AB021092DC02E5EAF2E086E0DF01E6
:102440001D928A95E9F767960FB6F894DEBF0FBE26
:10245000CDBFDF91CF911F910F91FF90EF90DF9053
:1024600008958F929F92AF92BF92CF92DF92EF9298
:10247000FF920F931F93CF93DF93CDB7DEB72997CA
:102480000FB6F894DEBF0FBECDBFFC0180819181F5
:1024900023813481232B31F09F3F31F491E08F3F32
:1024A00019F403C091E001C090E090FD95C56F0163
:1024B00085E0DE01119601900D928A95E1F7F60113
:1024C000228189819A81222349F00E942D2E182F82
:1024D000682F89819A810E94653003C00E9436303E
:1024E000182F69817A81812F0E9413298C01F601AE
:1024F0008281882309F482C0980122513F4520310E
:10250000310508F093C08FEF93E00E94F5348111FC
:102510007FC02EEEF22EF00E07E710E0FF2071F0E4
:102520000115F4E01F0709F473C0C8010E94F534D7
:10253000811101C0FA940F5F1F4FF0CF1E821F82DE
:1025400018861986AA24AA9478012FEFE21AF20AB3
:10255000C8010E94F5348E831F82882309F458C075
:10256000813009F046C0480182E0880E911CC70105
:102570000E94F5348F83882309F44AC09FEF980F97
:10258000933060F4780193E0E90EF11CC4010E94DD
:10259000F534888781112DC08701D6CF843011F0A2
:1025A0007401FACFC4010E94F534B82E7801E4E03A
:1025B000EE0EF11CC80103960E94F534BB2041F1D8
:1025C000882331F1282F30E021503109A29EA0014B
:1025D000A39E500D11248B2D90E00197840F951F21
:1025E0000197D0F2EFE9FFE03197F1F700C000006A
:1025F000F7CFCE0106960E94A810CECF00319FE5FE
:10260000190709F0E0C481E00E9495300E94C61EBF
:102610008091E002877009F4DFC4F601828188238B
:1026200009F4DAC482E00E94612DD6C40031FFE5CE
:102630001F0711F481E005C001312FE5120721F4D5
:1026400082E00E94A130E2CF033FFCE51F0749F47E
:1026500006E221EE40EE63EF7CE5C6010E94902881
:10266000D7CF043F2CE5120708F049C1083D9CE58F
:10267000190731F407E225EE45EE68ED7CE5EDCF74
:10268000093DECE51E0731F408E221E045EE69ED75
:102690007CE5E3CF073DFCE51F0731F406E221EEC0
:1026A00041EE67ED7CE5D9CF882309F45DC1109236
:1026B000730202302CE5120708F440C106318CE5A4
:1026C000180730F0C8018A5F9C45099708F036C1A9
:1026D0000E94522C9093800280937F0200319CE5EF
:1026E000190709F4C3C008F041C00830FCE51F0712
:1026F00009F49AC0F0F404308CE5180709F487C097
:1027000068F40230ECE51E0709F477C003301C457D
:1027100009F0E5C080917F02826076C006302CE52A
:10272000120709F46EC008F07BC080917F028860B8
:102730006BC00C309CE5190709F485C068F40A30B9
:10274000FCE51F0709F474C008F079C00E94B0309E
:1027500080917F02806858C00E308CE5180709F41C
:1027600076C008F07FC080917F028BC00B3FECE504
:102770001E0709F44FC018F503312CE5120709F4C0
:102780007DC078F401319CE5190709F473C002316A
:102790001C4509F0A4C00E94B03080917F028F7761
:1027A00033C00531FCE51F0709F472C008F486C088
:1027B0000A3F1C4509F093C0809180023EC00F3F44
:1027C0009CE5190709F45FC058F40D3FFCE51F07AD
:1027D00009F444C008F43FC08091800282602DC09B
:1027E00001308DE5180709F475C008F45DC00230AA
:1027F0001D4509F074C060E06EC080917F02816069
:1028000003C080917F02806180937F0268C08091C5
:102810007F0211C0809180028260809380025FC03D
:1028200080917F028062F0CF80917F028064ECCF44
:1028300080917F0288608460E7CF8160EECF8091D5
:102840007F028E7FE1CF80917F028D7FDDCF8091EF
:102850007F02877FD9CF8091800218C0809180024B
:102860008D7FDBCF80917F028F7ECECF80917F02E4
:102870008F7DCACF80917F028F7BC6CF80917F02F0
:10288000877F8B7FC1CF809180028D7F8E7FC5CF68
:1028900080917F0282FB222720F991E0922790FB12
:1028A00082F990FB83F9B0CF80918002982F9095A8
:1028B00091708E7F892B90FB81F9AFCF0E94B03051
:1028C00080917F0287FB222720F991E0922790FBDD
:1028D00087F99ACF61E08EE090E00E941335609115
:1028E0007F021091800284E090E00E941335612FF6
:1028F00082E290E00E9413350E94B03089CE053FFD
:102900002CE5120731F406E221EE42EE65EF7CE59C
:10291000A4CE053F9CE5190730F407E225EE44EE0E
:1029200064EF7CE59ACE063FECE51E0709F0BCCECD
:1029300007E225EE46EE66EF7CE58FCE8091E3025E
:102940000631FCE51F0709F58A7A91E009F490E069
:102950009093F401882311F065E301C069E285E8F2
:1029600092E00E9423280EC006311C4509F0DAC00F
:102970008091F401882309F42DC365E385E892E092
:102980000E94FB270E94EA2C43CE82720A3CFCE59F
:102990001F0709F47DC098F5053C9CE5190709F46B
:1029A00063C0B8F4033CFCE51F0709F453C008F00A
:1029B00056C0023C8CE5180709F083C080913A02AA
:1029C00091E0892780933A02109210019093F501CB
:1029D0001FCE073C9CE5190709F450C008F449C014
:1029E000083CFCE51F0709F44EC0093C2CE5120722
:1029F00009F067C046E35DE163E47DE157C00F3C49
:102A00009CE5190709F458C0A0F40C3CFCE51F072D
:102A100009F448C008F441C00D3C8CE5180709F4DE
:102A200048C00E3C9CE5190709F04BC061E085E009
:102A300045C0063DECE51E0738F4013D1C4508F095
:102A4000E7CD61E082E13AC00D352DE5120709F4CA
:102A5000DFCD37C047E95DE161EA7DE127C041EAAA
:102A60005DE167E97DE122C04AE65DE164E77DE181
:102A70001DC044E75DE16AE67DE118C040E55DE127
:102A80006DE57DE113C04DE55DE160E57DE10EC0E2
:102A900043E45DE166E37DE109C048E558E164E6B1
:102AA00078E104C044E658E168E578E10E94201D21
:102AB000AFCD61E081E002C061E08DE00E947E1D4B
:102AC000A7CD0A358DE5180741F150F40115ECE565
:102AD0001E07A9F00E3D1C4529F50E946E2C98CDCD
:102AE0000B352DE51207D9F00C351D45D9F4809131
:102AF000800282FB882780F991E0892711C00E941B
:102B0000B0309FEFE4E3FCE09150E040F040E1F7AB
:102B100000C000000E9474277BCD81E001C080E0EE
:102B20000E94402DF601828100811181882349F0A5
:102B3000C8010E942D2EF82E682FC8010E94653012
:102B400004C0C8010E943630F82EB8018F2D0E94B3
:102B500013290E94A02A8C01982EF601E280F580AC
:102B6000F2949FE0F9228091E002877099F0EE20C4
:102B700089F0812F807F803421F080E2800F8830BF
:102B800048F082E00E94612D8091E0028770BB24B2
:102B9000B3948111B12CA12EA2948FE0A8228A2D8A
:102BA00090E08C30910508F0F0C1FC01E157FF4F37
:102BB0000C94C235812F807F1F70882311F01295ED
:102BC000107FEE20B9F0112309F4BAC180E2800F22
:102BD000883010F0911006C08091E302182B1093FA
:102BE000E30205C08091E202182B1093E2020E94DA
:102BF000EA2CA6C1802F0E94EB30112309F4C5C135
:102C0000005E083010F0911004C0812F0E94E32C68
:102C100006C010958091E20218231093E2020E94F0
:102C2000EA2CB3C1812F807F1F70803211F0129582
:102C3000107F802F992029F0F1E09F1609F443C0FE
:102C40004EC0EE2051F1FF2011F121E0F21213C02D
:102C50008091800282FD99C18091E602182B18179D
:102C600009F493C10E94C6279093E5028093E40281
:102C70001093E6028AC185E0F81209C00E94D82CA0
:102C80008091DD021817A9F11093DD0232C0809106
:102C9000E602812B0E94E13078C1FF2051F091E0E3
:102CA000F9120DC09091E302912309F46EC10E94C4
:102CB000942D0E94D82C812F0E94DA3066C1E5E065
:102CC000FE12F7CF62C1EE2029F0F5E0FF1508F4FF
:102CD0005CC10FC024E02F1508F457C1ECCFEE20E3
:102CE00051F0FF2031F0F601958190FF29C19F70CE
:102CF0009583812FCFCFF1102EC1DDCF812F869507
:102D00008695837019F0813059F03FC1EE2019F09B
:102D1000C801937002C080E090E00E946E2835C127
:102D2000EE2019F0C801937002C080E090E00E948C
:102D300058282BC1802FEE2029F00E9418340E94C1
:102D4000273302C00E9451330E9427331EC1812FB6
:102D50008370A1F5E11019C1402F42954695477047
:102D6000440F440F202F2F7030E0C901042E01C002
:102D7000880F0A94EAF704FF08C02FE030E001C092
:102D8000220F4A95EAF7209501C020E01695169586
:102D90001370123051F070F430910802113019F0B4
:102DA000822B832308C0832B05C0282B8091080227
:102DB000822701C0822B0E94AC30E7C0EE2019F0C0
:102DC000812F817001C08695882309F4DEC0402FD1
:102DD000429546954770440F440F202F2F7030E0E6
:102DE000C901042E01C0880F0A94EAF704FF08C045
:102DF0002FE030E001C0220F4A95EAF7209501C08C
:102E000020E0169516951370123051F070F4309141
:102E10006902113019F0822B832356C0832B05C021
:102E2000282B8091690282274FC0822B4DC01F70D2
:102E3000EE2029F0812F0E94A130802F2BCF802FF0
:102E40000E94DA30812F9DC0802FF2EF9F1661F132
:102E5000F91538F020EF921659F091EF9916F1F02C
:102E60006BC0E3EF9E1631F1F4EF9F1681F164C061
:102E7000EE2029F024E02F1508F487C004C085E077
:102E80008F1508F482C01F7181E090E001C0880FA7
:102E90001A95EAF790916902892716C0812F8F71E0
:102EA000EE2009F46EC052C0812F8F71EE2009F41C
:102EB0004DC067C0EE2039F01F7181E001C0880F5E
:102EC0001A95EAF701C080E00E9491305EC0EE20C2
:102ED000D9F08091DD020E94E32C8091E00287709E
:102EE000843039F40E945A2D812F8F710E949530C1
:102EF0004BC094E09F1508F447C01F71812F0E94BA
:102F0000A13063E0812F11C09091E3028091DD0236
:102F1000892B8093E302E4E0EF1550F40E945A2DD0
:102F20000E94942D64E0812F8F710E947E2D2CC011
:102F300081E00E94612D28C0EE2059F0FF2021F091
:102F4000802F0E941D3121C0812F8F710E94A130DE
:102F50001CC0FF20A1F0893341F4FFEF27EE83E08E
:102F6000F15020408040E1F704C0EFE3FCE93197E5
:102F7000F1F700C00000802F0E94EB3006C0812FC7
:102F80008F710E94953001C0B12C88EF8A0D84307A
:102F900010F40E948428BB20F9F08091E00280FDAB
:102FA0001BC0F60112828595859585950E94A130FA
:102FB000C6010E9431128091E00285958595859524
:102FC0000E94953009C00131EFE51E0709F03CCBA6
:102FD00082E01ACB69E2D2CC29960FB6F894DEBF14
:102FE0000FBECDBFDF91CF911F910F91FF90EF905A
:102FF000DF90CF90BF90AF909F908F900895982FC3
:1030000092959F7019F0892F24E001C020E0982F3D
:103010009695969511F02E5F892F982F969509F029
:103020002F5F822F08959C013A9521153F4130F57D
:10303000BC0166277270AC01442754709C012227A2
:10304000387094FF0FC090FF02C080E101C080E0A3
:10305000672B09F08062452B09F08064232B79F0FF
:1030600080680895892F8170672B09F08260452B55
:1030700009F08460232B19F08860089580E008959A
:10308000E6EFF1E092E0E830F90729F08183608310
:1030900042833396F7CF0895FC01EE0FFF1F8E0F8A
:1030A0009F1FFC01EA50FE4F6183408322830895F5
:1030B000EAE3F2E0248130E1231B08F420E02483DA
:1030C00081E08093F5010895EAE3F2E0248130E1A4
:1030D000230F08F42FEF248381E08093F5010895F6
:1030E000EF92FF920F939701201B31092F3F31057B
:1030F00019F010F02FEF30E02095382F320F08F440
:103100003FEF832F0F91FF90EF900895EF92FF9282
:103110000F939701201B31092F3F310519F010F053
:103120002FEF30E0322F3095482F430F08F44FEF48
:10313000842F620F0F91FF90EF900895EF92FF920E
:103140000F93972F093438F4B701601B71096F3F53
:10315000710519F010F06FEF70E0485F5F4F41317B
:10316000510540F0A901485F5F4F4131510510F012
:103170006FEF70E06095482F460F08F44FEF842FF3
:1031800037FF02C02D5F3F4F359527953595279521
:1031900060913B02620F792F0F91FF90EF9008959D
:1031A000EF92FF920F93E00EF11CF90137FF03C07D
:1031B000F195E195F10924E0EE0FFF1F2A95E1F763
:1031C000EF3FF10519F014F0EFEFF0E09A0157FF2F
:1031D00003C031952195310994E0220F331F9A9550
:1031E000E1F72E173F070CF4F901EE0DFF1DEF3F3D
:1031F000F10519F010F0EFEFF0E02E2F2095382FA9
:10320000320F08F43FEF832F0F91FF90EF90089556
:10321000EF92FF920F93970195E0099F200D311DCA
:1032200011242F3F310519F010F02FEF30E02095D9
:10323000382F320F08F43FEF832F0F91FF90EF905C
:10324000089522E8241B08F420E0620F08954095B9
:10325000282F429F412D1124842F0895E42FF0E060
:10326000EE0FFF1FE35BFE4F9081921B97FD919540
:10327000292F38E1239F212D1124620F08950F93E8
:103280001F9310E0F801EE0FFF1FE35BFE4F9081EC
:10329000905797FD9195000F111FF801EB5BFE4FC2
:1032A000E185F0E0B097DF01AA0FBB1F8D010E0F83
:1032B0001F1F2003D001219FB00D1124E8E3F0E08F
:1032C000E91BF10997FDF3959F01220F331F890137
:1032D0000E0F1F1F40039001419F300D11242A0F34
:1032E0003B1F37FF02C021583F4F220F232F221FC1
:1032F000330B620F1F910F9108950F931F93522F5D
:1033000010E0F801EE0FFF1FEB5BFE4FE185F0E0F0
:10331000B097EE0FFF1F9F015203D001539FB00DD6
:103320001124000F111FF801E35BFE4F008110E034
:1033300000571109000F111F40039001419F300DEC
:1033400011242A0F3B1F37FF02C021583F4F220F85
:10335000232F221F330B620F1F910F9108950F939C
:103360001F93522F10E0F801EE0FFF1FEB5BFE4F93
:10337000E185F0E0B0979F015203D001539FB00D5B
:103380001124000F111FF801E35BFE4F008110E0D4
:103390000057110940039001419F300D11242A0F5D
:1033A0003B1F37FF02C021583F4F220F232F221F00
:1033B000330B620F1F910F910895EF920F931F939C
:1033C00093E0099F80011124159507956E2D600FDC
:1033D0001F910F91EF900895A22F50E0FA01EE0F88
:1033E000FF1FEB5BFE4F9185905297FD9195440F27
:1033F000551FFA01E35BFE4F3081232F30E02A1B7B
:103400003109290F311D97FD3A95620F0895E42F78
:10341000F0E0EE0FFF1FEB5BFE4F6185621B08952E
:10342000E42FF0E0EE0FFF1FE35BFE4F6081621BB5
:103430000895622F0895849A81B38F7E91B390612D
:103440002FB7F894E6EFF1E032E0E830F30789F0C7
:10345000319148E091BB000000C037FF81BB330FC2
:10346000000000C000C000C081BB00C04A9591F7B9
:10347000EBCF2FBF8FE594E00197F1F700C000007C
:1034800008950F931F93CF93DF9300D000D01F9226
:10349000CDB7DEB78C0190936E0280936D0201155B
:1034A00080E2180738F5802F0E94EB30C801805E5B
:1034B0009109089718F00115110571F4C8010E94CF
:1034C00013180F900F900F900F900F90DF91CF91E6
:1034D0001F910F910C94DA30C8010E9413180F90BD
:1034E0000F900F900F900F90DF91CF911F910F9140
:1034F0000C94C5308EEF89838A831B820E94C62775
:103500008160782F9D838C8349815A816B818D8165
:103510000E945B110F900F900F900F900F90DF9112
:10352000CF911F910F9108950F931F93CF93DF9326
:1035300000D000D01F92CDB7DEB78C0190936E0201
:1035400080936D02011580E21807F8F4C801805ECF
:103550009109089718F00115110531F4C8010E946E
:1035600013180E94E13005C0C8010E9413180E9480
:10357000D030802F0F900F900F900F900F90DF9111
:10358000CF911F910F910C941D318EEF89838A8307
:1035900081E08B830E94C6278160782F9D838C8376
:1035A00049815A816B818D810E945B110F900F9030
:1035B0000F900F900F90DF91CF911F910F91089571
:1035C0000F931F93CF93DF93D62F072F182FC42F5E
:1035D000822F0E943B32EC2FF0E0EE0FFF1FE35BE7
:1035E000FE4F90819058890F87FD8195880F682F35
:1035F0002CE0629F612D11246D0F702F812FDF91C0
:10360000CF911F910F910895EF920F93CF93DF9376
:10361000D72FC82FC9010E19BA010E940832602F96
:10362000681B7D2F8C2FDF91CF910F91EF90089524
:103630000F93CF93DF93D72FC82FC901BA010E94F0
:103640000832682F600F7D2F8C2FDF91CF910F9163
:103650000895EF920F931F93CF93DF93D62FC72F29
:10366000182FC9010E19010FBA010E940832081B58
:10367000202F219F212D1124822F6D2F7C2FDF9150
:10368000CF911F910F91EF900895EF920F931F9399
:10369000CF93DF93D62F172FC82FC9010E19070F0D
:1036A000BA010E940832702F781B719F712D11246E
:1036B0006D2F8C2FDF91CF911F910F91EF90089577
:1036C000FF920F931F93CF93DF93F62ED72F182FD0
:1036D000C901C12FC01BBA010E940832982F990F4F
:1036E000890FC81B2C2F219F212D1124822F6F2D74
:1036F0007D2FDF91CF911F910F91FF900895FF9241
:103700000F931F93CF93DF93F62E172FD82FC90156
:10371000C72FC01BBA010E940832982F990F890F3A
:103720007C2F781B719F712D11246F2D8D2FDF91B0
:10373000CF911F910F91FF9008950F93CF93DF9337
:10374000D72FC82F47FD4195E8E3F0E0CF01841B58
:10375000910947FD9395889FB001899F700D700D69
:103760001124229FC001239F900D900D1124860FDC
:10377000971F0E945C32682F660F860F682F600FBC
:103780007D2F8C2FDF91CF910F9108950F931F9371
:10379000CF93DF93843038F5611125C0423018F59E
:1037A00021159CE5390731F460916B0270916C0230
:1037B000672BC9F08901C42FD0E0CC0FDD1F94E046
:1037C000899FC00DD11D1124C959DF4F612FCE0132
:1037D0000E941335602FCE010196DF91CF911F918A
:1037E0000F910C941335DF91CF911F910F91089594
:1037F0000F931F93CF93DF938430E8F461111BC0C4
:103800004230C8F4C42FD0E0CC0FDD1F24E0829FEB
:10381000C00DD11D1124C959DF4FCE010E94F534CE
:1038200090E0182F0027CE0101960E94F5349801F0
:10383000282BC90102C080E090E0DF91CF911F9159
:103840000F9108950F931F93CF93DF93843058F512
:10385000623048F5443038F521159CE5390731F4DC
:10386000E0916B02F0916C02EF2BE9F08901C42F1B
:10387000D0E0CC0FDD1F98E0699FC00DD11D112451
:1038800090E1899FC00DD11D1124612FCE01879633
:103890000E941335602FCE018896DF91CF911F9142
:1038A0000F910C941335DF91CF911F910F910895D3
:1038B0000F931F93CF93DF93843008F56230F8F4B1
:1038C0004430E8F4C42FD0E0CC0FDD1F28E0629F25
:1038D000C00DD11D112430E1839FC00DD11D1124D5
:1038E000CE0187960E94F53490E0182F0027CE0174
:1038F00088960E94F5349801282BC90102C080E007
:1039000090E0DF91CF911F910F910895AF92BF92F8
:10391000CF92DF92EF92FF920F931F93CF93DF939B
:10392000B82EA62EC090690280910802C82AC7E06E
:10393000D0E0D12CE12CF12CD701C6010C2E04C013
:10394000B695A795979587950A94D2F780FF13C0EF
:103950004A2D6B2D8C2F0E94F81B8C018130910514
:1039600051F00E94941A8FE39CE90197F1F700C08F
:103970000000C80111C02197F8F64A2D6B2D80E098
:103980000E94F81BEC010E94941A8FE39CE90197B6
:10399000F1F700C00000CE010E94411A81E0DF91E2
:1039A000CF911F910F91FF90EF90DF90CF90BF903C
:1039B000AF900895CF93C82F811102C06FEF01C05F
:1039C0006EE983E290E00E941335C11102C06FEFEF
:1039D00001C069E284E290E00E941335C11102C087
:1039E0006FEF01C06DED85E290E0CF910C9413353F
:1039F00080E00E94DA1C60E086E290E00E941335CD
:103A00000E942F290E94032981E00C94DA1C83E292
:103A100090E00E94F5348E3981F484E290E00E94B7
:103A2000F534893251F485E290E00E94F53491E05A
:103A30008D3D09F090E0892F01C080E081700895EC
:103A4000882311F0FA0101C0FB01099490913A0218
:103A5000937059F080933B0260933C0240933D0287
:103A60008091F501282B2093F5010895EAE3F2E017
:103A7000438120E1421B08F440E0818121E0628122
:103A800090E00C94261DEAE3F2E0438120E1420F2E
:103A900008F44FEF818121E0628190E00C94261DB3
:103AA000EAE3F2E0628120E1621B08F460E08181D8
:103AB00021E0438190E00C94261DEAE3F2E062816C
:103AC00020E1620F08F46FEF818121E0438190E0F3
:103AD0000C94261DEAE3F2E0818190E021E043812D
:103AE000628108970C94261DEAE3F2E0818190E060
:103AF00021E04381628108960C94261D90913A0240
:103B00009370A1F0811102C0946007C08B3210F055
:103B1000986A03C0880F880F982B90933A021092EE
:103B200010018091F501682B6093F5010895809153
:103B30003A0286958695815009F48AE261E00C94F8
:103B40007E1D80913A02869586958F5F8B3208F0B4
:103B500081E061E00C947E1D0C9440180C944C188C
:103B60001F93CF93DF93FC01EB5BFE4F248962230D
:103B7000D1F0EC010E94CC34182F0E94CC348F7706
:103B8000782F20E8720F08F47FEF612F80913D02BB
:103B90000E949732462F282F672FCE01DF91CF91B9
:103BA0001F910C94AE1DDF91CF911F910895DF926C
:103BB000EF92FF920F931F93CF93DF93EC01FC01E1
:103BC000EB5BFE4F9489692381F1D0903C02009118
:103BD0003D0210913B02E12EF12C0E94CC34282FA3
:103BE000C7018C549F4F68E671E00E94AE358E1974
:103BF0009F0997FD039695958795959587952370D1
:103C0000612F289F600D11247D2D802F0E949732F7
:103C1000462F282F672FCE01DF91CF911F910F9153
:103C2000FF90EF90DF900C94AE1DDF91CF911F912C
:103C30000F91FF90EF90DF90089524E0829FC001E4
:103C40001124FC01EB5BFE4FE60FF11D80818F3FDD
:103C500021F0FA01808381E0089580E0089546E034
:103C600050E06CE170E08AE392E00C940335EAE303
:103C7000F2E085E3808380911D0190911E01A09167
:103C80001F0181839283A3838FE784838FEF8583D2
:103C90000C942F1EEF92FF920F931F93CF93DF93FD
:103CA0007C018B010E945925811119C0E701011582
:103CB0001105A1F08091E80085FD0AC08091E8001F
:103CC0008E778093E8000E945925882381F307C0EE
:103CD00089918093F10001501109E9CF80E0DF91D3
:103CE000CF911F910F91FF90EF900895CF93209166
:103CF0006A022430F9F4C091E900CF703091EC00F1
:103D0000232F217030FD20E8C22B22E02093E90010
:103D10002091E80020FF0BC040E050E060E270E03E
:103D20000E944A1E8091E8008E778093E800CF7051
:103D3000C093E900CF910895CF93DF93EC01888180
:103D40008C3FF9F48981823089F08330A9F0813089
:103D5000C1F48DEF898381E090E00A8002C0880F72
:103D6000991F0A94E2F70E9491300BC08DEF89836E
:103D70008A810E94A13005C08DEF89838A810E94CB
:103D80009530CE01DF91CF910C94761E809169021F
:103D9000982F9670963011F4886001C0877F0C943C
:103DA00091302F923F924F925F926F927F928F92BB
:103DB0009F92AF92BF92CF92DF92EF92FF920F93BA
:103DC0001F93CF93DF93CDB7DEB727970FB6F89445
:103DD000DEBF0FBECDBF282E4B0120911201220F56
:103DE0002E83122F1E5F173008F016E0309140022C
:103DF0003983AE81A11708F07CC08E81682E712CAA
:103E0000F301EB5BFE4F948980911301892309F440
:103E10006CC030903B0240903C02522C1F82C30188
:103E2000880F991FDC01A35BBE4FBB83AA83C3012C
:103E3000880F991FFC01E25BFE4FFD83EC83F98143
:103E40005F1608F040C0E52CF12CAA81BB81CC9014
:103E5000D12CF701E05CFD4F8181C81AD108AC81FB
:103E6000BD81AC90B12C8185A81AB108CC9C900181
:103E7000CD9C300D300D1124AA9CC001AB9C900D3F
:103E8000900D1124820F931F0E945C32082F6091C5
:103E90003E0221E0620F08F46FEFF701EE0FFF1F03
:103EA000E05CFD4F818D928D0E948D327C019501E9
:103EB000A601632D742D8F81F4010995362E472EAE
:103EC0008F835394BCCF20913D028F81382F329F36
:103ED000312D1124832F632D742D0E949732462F8C
:103EE000282F672FC3010E94AE1D8E818F5F8E83A6
:103EF00080CF81E0163008F080E027960FB6F89466
:103F0000DEBF0FBECDBFDF91CF911F910F91FF900C
:103F1000EF90DF90CF90BF90AF909F908F907F9069
:103F20006F905F904F903F902F900895CF92DF92C7
:103F3000EF92FF920F931F93CF93DF938C01C09169
:103F40001201CC0FD2E0DC0FD73008F0D6E0209180
:103F50003E0231E0230F08F42FEF30E040E050E064
:103F60006FEF7FEF80E090E00E9437357901CD1749
:103F700008F041C0CC2ED12CF601EB5BFE4F9489AA
:103F8000809113018923A9F190914002915097FDEE
:103F900015C0492F092E000C550BFA01E05CFD4FAE
:103FA0008189C813F3CF440F551FFA01E05CFD4F20
:103FB000218D328D2E153F0548F701C09701609184
:103FC0003E0241E0640F08F46FEFC9010E948D3298
:103FD000AC0160913B0270913C0280913D02F8017E
:103FE00009950E949732462F282F672FC6010E94FD
:103FF000AE1DCF5FBCCF81E0D63008F080E0DF910E
:10400000CF911F910F91FF90EF90DF90CF90089587
:10401000DF92EF92FF920F931F93CF93DF938C0168
:10402000C0911201CC0FD2E0DC0FD73008F0D6E0FF
:1040300060913E026695669521E0620F08F46FEF8D
:1040400080913602909137020E948D32D82ECD1782
:10405000F0F4EC2EF12CF701EB5BFE4F948980918C
:104060001301892391F060913B0270913C02809191
:104070003D022D2D4C2FF80109950E949732462FB5
:10408000282F672FC7010E94AE1DCF5FE0CF81E0D0
:10409000D63008F080E0DF91CF911F910F91FF9013
:1040A000EF90DF9008959F92AF92BF92CF92DF92F0
:1040B000EF92FF920F931F93CF93DF936C01C09108
:1040C0001201CC0FD2E0DC0FD73008F0D6E06091BF
:1040D0003E026695669580913602909137020E9465
:1040E0008D32182F80E4810F0E943B3290E8F92E28
:1040F000F80E812F0E943B3220E8922E980ECD17A9
:1041000000F5AC2EB12CF501EB5BFE4F948980914C
:1041100013018923A1F060913B0270913C028091D0
:104120003D02E12E0C2F292D4F2DF60109950E94FD
:104130009732462F282F672FC5010E94AE1DCF5FF3
:10414000DECF81E0D63008F080E0DF91CF911F9183
:104150000F91FF90EF90DF90CF90BF90AF909F9026
:1041600008956F927F928F929F92AF92BF92CF925B
:10417000DF92EF920F931F93CF93DF933C01C09197
:104180001201CC0FD2E0DC0FD73008F0D6E06091FE
:104190003E02669580913602909137020E948D32E0
:1041A000182FCD1708F044C08C2E912CF401EB5B36
:1041B000FE4F9489809113018923C1F1F401EE0F20
:1041C000FF1FE35BFE4FC080D12C80E7C81AD108E7
:1041D000F401EE0FFF1FEB5BFE4FA184B12CE0E278
:1041E000AE1AB108CC9C9001CD9C300D300D11243D
:1041F000AA9CC001AB9C900D900D1124820F931FBF
:104200000E945C32082F60913B0270913C028091C9
:104210003D02E12E9501A601F30109950E94973216
:10422000462F282F672FC4010E94AE1DCF5FB9CF44
:1042300081E0D63008F080E0DF91CF911F910F919F
:10424000EF90DF90CF90BF90AF909F908F907F9036
:104250006F900895CF92DF92EF92FF920F931F938A
:10426000CF93DF936C01C0911201CC0FD2E0DC0F31
:10427000D73008F0D6E060913E0266958091360214
:10428000909137020E948D32182FCD1778F5EC2EC1
:10429000F12CF701EB5BFE4F948980911301892388
:1042A00019F1F701EE0FFF1FEB5BFE4F218530E0A8
:1042B00020523109F701EE0FFF1FE35BFE4F4081F3
:1042C00050E04057510960913B0270913C0280914F
:1042D0003D02012FF60109950E949732462F282FA3
:1042E000672FC7010E94AE1DCF5FCFCF81E0D630D0
:1042F00008F080E0DF91CF911F910F91FF90EF9038
:10430000DF90CF9008951F93CF93DF93CDB7DEB7A3
:10431000AA970FB6F894DEBF0FBECDBFEEE2F2E073
:104320008091F100819342E0E633F407C9F7809170
:104330002F02833009F462C030F4813071F0823092
:1043400009F49CC0B3C08A3009F488C08B3009F4EA
:104350006DC0893009F0AAC020C080912E02813A38
:1043600009F0A4C08091E800877F8093E8008091E5
:10437000320290913302892B21F460E28BE092E0CB
:1043800003C060E080E090E070E00E94162780911A
:10439000E8008B778093E80089C080912E028132FB
:1043A00009F084C08091320290913302009719F095
:1043B000029709F07BC08091E800877F8093E80036
:1043C0008091E80082FD05C080916A028111F8CFDA
:1043D0006DC02091F3008091F20090E0922B029743
:1043E00029F48091F1008B7F813021F48091F100DC
:1043F00080930A028091E8008B7754C080912E024E
:10440000813A09F053C08091320290913302892B96
:1044100009F04CC08091E800877F8093E80080918C
:10442000E80080FFFCCF8091110137C080912E02FF
:104430008132E1F58091320290913302892BB1F5FE
:104440008091E800877F8093E8000E948C2580910E
:104450003002809311010E94B03028C080912E025A
:10446000813221F58091E800877F8093E8000E94E7
:104470008C25809131028093090218C080912E0210
:10448000813AA1F48091E800877F8093E8008091D1
:10449000E80080FFFCCF809109028093F1008091B9
:1044A000E8008E778093E8000E948C258091E800D8
:1044B00083FFE9C180912E0290912F02492F50E095
:1044C0004A30510508F0DFC1FA01E556FF4F0C9460
:1044D000C235803821F0823809F0D5C108C08091FA
:1044E0002B0290912C02992389F082600FC0809159
:1044F00032028F70873008F0C6C18093E900809146
:10450000EB0085FB882780F91092E9009091E80084
:10451000977F9093E8008093F1001092F1007CC1A6
:10452000282F2D7F09F0AFC1882319F0823061F068
:10453000AAC180913002813009F0A5C1933009F001
:1045400080E080932C022EC08091300281112AC01D
:10455000809132028F702FEF280F263008F093C120
:104560008093E9002091EB0020FF1CC0933021F4E0
:104570008091EB00806214C09091EB009061909369
:10458000EB0021E030E0A90102C0440F551F8A95DD
:10459000E2F74093EA001092EA008091EB00886015
:1045A0008093EB001092E9008091E800877F809370
:1045B000E8000E948C2567C1811165C1109130020D
:1045C0001F778091E3008078812B8093E3008091B6
:1045D000E800877F8093E8000E948C258091E800A6
:1045E00080FFFCCF8091E30080688093E30011118D
:1045F00002C082E001C083E080936A0244C1805817
:10460000823008F040C120913002309131022C3DBF
:1046100053E0350779F583E08A838AE289834FB7CF
:10462000F894DE01139620E03EE051E2E32FF0E043
:1046300050935700E49120FF03C0E295EF703F5F75
:10464000EF708E2F90E0EA3010F0C79601C0C09650
:104650008D939D932F5F243149F74FBF8091E800E0
:10466000877F8093E8006AE270E0CE0101960E94A5
:104670001627C0C08091320290913302432F5527F4
:1046800043305105B1F068F44130510509F40AC1D5
:104690004230510509F0F7C08BE590E0E0ECF4E022
:1046A00057C04132510589F14232510509F43CC0ED
:1046B000EAC0C901992781309105B9F070F08230C4
:1046C0009105D9F0039709F0DEC0EDE2F5E0E49141
:1046D0008E2F90E0EDE2F5E038C0EDE7F5E0E491F3
:1046E0008E2F90E0EDE7F5E030C0E7E6F5E0E491ED
:1046F0008E2F90E0E7E6F5E028C0EBE4F5E0E491EA
:104700008E2F90E0EBE4F5E020C08330910508F0B7
:10471000BAC0880F991FFC01E15CFE4F0190F08147
:10472000E02D89E090E014C08330910508F0ABC023
:10473000FC01EE0FFF1FE75CFE4F0190F081E02DC2
:10474000DC01AA5CBE4F8C9190E0009709F49BC0FD
:104750002091E800277F2093E800209134023091D7
:1047600035022817390708F4C90140E0009789F19C
:1047700020916A02222309F43DC02530D9F120910D
:10478000E80023FD37C02091E80022FD2FC02091D2
:10479000E80020FFEBCF4091F3002091F20030E0E1
:1047A000342B009759F02830310540F44491409360
:1047B000F100319601972F5F3F4FF3CF41E0283052
:1047C000310509F040E02091E8002E772093E800C1
:1047D000CDCF4111CDCF0AC080916A02882351F01C
:1047E000853041F08091E80083FD04C08091E800AD
:1047F00082FFF2CF8091E8008B778093E80043C07E
:10480000803809F040C08091E800877F8093E800FD
:1048100080912D028093F1008091E8008E77C7CEC1
:10482000811131C080913002909131029927029715
:1048300054F58091E800877F8093E8001091300262
:1048400010932D020E948C25111106C08091E30067
:1048500087FD02C081E001C084E080936A0242E0EB
:1048600061EC81E00E94AB2542E261EC84E00E94B1
:10487000AB2542E261EC82E00E94AB2542E260ECB3
:1048800083E00E94AB258091E80083FF10C08091F7
:10489000E800877F8093E8008091EB00806280933E
:1048A000EB0005C082E190E0EBE1F5E051CFAA9684
:1048B0000FB6F894DEBF0FBECDBFDF91CF911F9131
:1048C000089580910A02089590916A02943029F522
:1048D0008093810270938302609382029093E90037
:1048E0008FEF9091E800815095FD06C095ED9A9567
:1048F000F1F700008111F5CF8091E80085FF0DC030
:1049000040E050E063E070E081E892E00E944A1EDF
:104910008091E8008E778093E8000895BC0184E0E0
:104920000C946424BC0183E00C94642424E0209360
:10493000E9002FEF3091E800215035FD06C035ED3C
:104940003A95F1F700002111F5CF2091E80025FFFD
:104950000BC040E050E066E070E00E944A1E80918B
:10496000E8008E778093E8000895CF93DF9320913D
:104970001101222339F020917F0227FF03C060E25A
:1049800024E002C068E021E02093E9002FEF30919D
:10499000E800215035FD06C035ED3A95F1F70000ED
:1049A0002111F5CF2091E80025FF1DC0EC01809179
:1049B0001101811105C040E050E068E070E003C0E3
:1049C00070E040E050E0CE010E944A1E8091E80075
:1049D0008E778093E80080E2FE01ABE0B2E00190C8
:1049E0000D928A95E1F7DF91CF9108951F920F9272
:1049F0000FB60F9211242F933F934F935F936F93B2
:104A00007F938F939F93AF93BF93CF93DF93EF9356
:104A1000FF93C091E900CF708091EC00D82FD17046
:104A200080FDD0E81092E9008091F000877F8093AC
:104A3000F00078940E9483211092E9008091F000A8
:104A400088608093F000CD2BCF70C093E900FF9178
:104A5000EF91DF91CF91BF91AF919F918F917F9116
:104A60006F915F914F913F912F910F900FBE0F90DB
:104A70001F901895E8EDF0E080818E7F8083109282
:104A8000E2001092DA001092E100A0EEB0E08C910A
:104A900081608C9380818F77808319BCA7EDB0E013
:104AA0008C918E7F8C9380818F7E80831092840284
:104AB00008952091E4003091E50095E64091EC00E6
:104AC000842F817040FF23C08091E80080FD1DC0CD
:104AD00080916A02882399F0853099F08091EB00EB
:104AE00085FD11C04091E4005091E5002417350781
:104AF00029F3915011F09A01E1CF84E0089582E00A
:104B0000089583E0089581E0089580E0089540913C
:104B1000E80042FFDDCF089580912E0287FF11C08B
:104B20008091E80082FD05C080916A028111F8CF72
:104B300011C08091E8008B770BC080916A028823B6
:104B400049F08091E80080FFF8CF8091E8008E77EF
:104B50008093E8000895982F973068F59093E900C6
:104B6000981739F07091EC002091ED005091F00011
:104B700003C0242F762F50E021FD02C09F5FECCFB1
:104B80003091EB003E7F3093EB003091ED003D7FA4
:104B90003093ED003091EB0031603093EB00709377
:104BA000EC002093ED005093F0002091EE0027FDE3
:104BB000E5CF80E008958F708093E90081E008954B
:104BC000CF92DF92EF92FF920F931F93CF93DF93D9
:104BD000C8EDD0E088818F7E8883E7EDF0E08081AA
:104BE0008160808384E082BF81E080938402888139
:104BF0008E7F888302EE10E0F80110821092DA00B6
:104C000081EEC82ED12CF601108288818F7788839F
:104C100088818068888388818F7D888319BC109201
:104C20006A0210922D0210922C0210922B0290EE2A
:104C3000E92EF12CF70180818B7F80838881816050
:104C4000888342E060E080E00E94AB25F60180812D
:104C50008E7F8083F801808181608083808188607D
:104C60008083F70180818E7F808388818061888343
:104C7000DF91CF911F910F91FF90EF90DF90CF9038
:104C800008951F920F920FB60F9211242F933F9306
:104C90004F935F936F937F938F939F93AF93BF9344
:104CA000EF93FF938091E10082FF09C08091E200C1
:104CB00082FF05C08091E1008B7F8093E1008091AD
:104CC000DA0080FF2AC08091D80080FF26C0809142
:104CD000DA008E7F8093DA008091D90080FF18C0BF
:104CE00080E189BD82E189BD09B400FEFDCF81E08C
:104CF00080936A028091840281110FC00E943A253C
:104D00000E94E0258091E20084608093E20005C06B
:104D100019BC10926A02109284028091E10080FF17
:104D200017C08091E20080FF13C08091E2008E7F67
:104D30008093E2008091E20080618093E2008091A4
:104D4000D80080628093D80019BC85E080936A0205
:104D50008091E10084FF2EC08091E20084FF2AC090
:104D600080E189BD82E189BD09B400FEFDCF80915B
:104D7000D8008F7D8093D8008091E1008F7E809352
:104D8000E1008091E2008F7E8093E2008091E2005A
:104D900081608093E20080912D02882311F084E0ED
:104DA00007C08091E30087FD02C081E001C083E07D
:104DB00080936A028091E10083FF27C08091E20026
:104DC00083FF23C08091E100877F8093E10082E030
:104DD00080936A0210922D028091E1008E7F809371
:104DE000E1008091E2008E7F8093E2008091E200FA
:104DF00080618093E20042E060E080E00E94AB25A9
:104E00008091F00088608093F000FF91EF91BF9156
:104E1000AF919F918F917F916F915F914F913F9152
:104E20002F910F900FBE0F901F9018952091340274
:104E3000309135022617370748F06115710539F4AE
:104E40002091E8002E772093E80001C0B901FC0111
:104E500020E06115710579F180916A028823F1F1F2
:104E60008530F1F18091E80083FD3CC08091E8003D
:104E700082FD2EC08091E80080FFEBCF2091F300EF
:104E80008091F20090E0922B6115710551F088300D
:104E9000910538F421912093F10061507109019638
:104EA000F3CF21E0089709F020E08091E8008E77A9
:104EB0008093E800CECF2111CFCF0AC080916A0243
:104EC000882361F0853061F08091E80083FD0AC09D
:104ED0008091E80082FFF2CF80E0089582E008959B
:104EE00083E0089581E0089587E797E790930108AC
:104EF000809300089AE088E10FB6F894A895809313
:104F000060000FBE90936000FFCF78941F920F92C5
:104F10000FB60F9211248F939F93AF93BF938091FD
:104F20007B0290917C02A0917D02B0917E0201965D
:104F3000A11DB11D80937B0290937C02A0937D0202
:104F4000B0937E02BF91AF919F918F910F900FBE52
:104F50000F901F9018959C014FB7F89480917B0299
:104F600090917C02A0917D02B0917E024FBF821B86
:104F7000930B08952FB7F89460917B0270917C0297
:104F800080917D0290917E022FBF08952FB7F894F3
:104F900080917B0290917C02A0917D02B0917E0273
:104FA0002FBF08951F920F920FB60F9211248F9367
:104FB0009F93AF93BF9380917A02811113C0809128
:104FC0007B0290917C02A0917D02B0917E0241967D
:104FD000A11DB11D80937B0290937C02A0937D0262
:104FE000B0937E02BF91AF919F918F910F900FBEB2
:104FF0000F901F901895209111012223C9F0209144
:105000007F0227FF15C0262F2695269526952E313F
:10501000C8F4FC01E20FF11D677081E090E001C06F
:10502000880F6A95EAF78095928189238283089593
:10503000FC0106962281621301C012823196E817A4
:10504000F907C1F70895209111012223C1F02091A1
:105050007F0227FF14C0262F2695269526952E31F0
:1050600030F5FC01E20FF11D677081E090E001C0B6
:10507000880F6A95EAF79281892B82830895FC0153
:1050800032962FEF30E04191641789F02F3F19F4E9
:10509000411101C0232F3F5F3630A9F72F3F39F070
:1050A000FC01E20FF11D27FDFA9562830895089532
:1050B00020917802309179022817390771F0909386
:1050C000790280937802E0917602F091770230972E
:1050D00021F00084F185E02D099408952091740257
:1050E000309175022817390771F0909375028093FB
:1050F0007402E0917602F0917702309721F00680F9
:10510000F781E02D09940895E0917602F0917702FD
:10511000309721F00190F081E02D099480E008950E
:105120000F931F93CF93DF93C42FD22FFC01828163
:105130008823C9F0409373020E94C627909372029D
:105140008093710280E28C0F883008F057C0C770DE
:1051500081E001C0880FCA95EAF7DF91CF911F91D6
:105160000F910C94E13080917302481330C080910C
:105170007102909172020E94AB27883C910538F52C
:1051800010E21D0FCD17B9F080E28C0F883040F48B
:10519000C77081E001C0880FCA95EAF70E94DA3033
:1051A000183028F581E09D2F977001C0880F9A95DF
:1051B000EAF70E94E130802F0E9495311830F0F418
:1051C000D77081E001C0880FDA95EAF70AC080E263
:1051D0008C0F883098F4C77081E001C0880FCA95A1
:1051E000EAF7DF91CF911F910F910C94DA30802F65
:1051F000DF91CF911F910F910C949531DF91CF9159
:105200001F910F910895CF93DF93C7E7D0E060E03F
:10521000CE010E9413352196C11584E0D807B9F755
:10522000DF91CF910895462F20916F023091700247
:10523000232B91F47E3F39F46E3F71F480916D021F
:1052400090916E020895843038F4723028F46430FE
:1052500018F4672F0C94581C80E090E008958F920A
:105260009F92AF92BF92CF92DF92EF92FF920F93F5
:105270001F93CF93DF93A0906B02B0906C0281E0FC
:1052800090E090936C0280936B0201E815E0C12CD2
:10529000D12C912C7601812CC0E0D0E0FE01EE0DE6
:1052A000FF1DEE0FFF1FEF56FA4F259134914C2F43
:1052B000682D892D0E94221C2196C430D10571F7DA
:1052C00084E0E80EF11C839482E08812E5CFF801B7
:1052D0002591349140E060E0892D0E94C61BF801C1
:1052E00032962591349141E060E0892D0E94C61BE1
:1052F0000C5F1F4F939488E0C80ED11C84E0981275
:10530000C9CFB0926C02A0926B02DF91CF911F9136
:105310000F91FF90EF90DF90CF90BF90AF909F9054
:105320008F90089580E0089590917F0292FF0DC0C4
:10533000282F2871283019F4877F846006C0282F11
:105340002471243011F48B7F886093FF0DC0282FC7
:105350002871283119F4877E846106C0282F2471B2
:10536000243111F48B7E88612091800220FF0DC0D2
:10537000382F3871383019F4877F816006C0382F94
:105380003171313011F48E7F886021FF0DC0282FDC
:105390002871283119F4877E816106C0282F217178
:1053A000213111F48E7E886194FD877E0895F894F2
:1053B000E82FE295EF70F0E031A1282F2F7081E007
:1053C00090E001C0880F2A95EAF7982F90959323D3
:1053D00091A392A1892B82A3789408959F92AF9272
:1053E000BF92CF92DF92EF92FF920F931F93CF93D2
:1053F000DF9300D0CDB7DEB71A82198200E211E048
:10540000AE014F5F5F4F7A015A01CC24C394D12C77
:10541000D8018C918F3F09F448C0F894E82FE295A9
:10542000EF70F0E021A18F70A60102C0440F551F5C
:105430008A95E2F7CA01922F982B91A392A18095A9
:10544000892382A3789400C0E2E2F1E020E030E01A
:10545000912C81918F3FB9F0A82FA295AF70B0E049
:1054600090964C9150E08F70DA0102C0B595A795E7
:105470008A95E2F7A0FD07C08C2D022E01C0880F8F
:105480000A94EAF701C080E0982A2F5F3F4F24304A
:105490003105F9F6F80180818F3F11F00E94D7297C
:1054A000F0EAFA95F1F7D7019C920F5F1F4FBFEF1B
:1054B000EB1AFB0AE1E002321E0709F0A9CF42E035
:1054C00050E0B5018AE991E00E94CF3511E00097E4
:1054D00009F410E0892B79F089819A8190939B01DE
:1054E00080939A0181E08093E9020E94C6279093FD
:1054F000E8028093E7028091E902882391F080918D
:10550000E7029091E8020E94AB27059750F0809146
:105510009A018093F20180919B018093F301109294
:10552000E902812F0F900F90DF91CF911F910F9182
:10553000FF90EF90DF90CF90BF90AF909F90089535
:10554000CF93DF938238910569F1B0F481339105EF
:1055500009F46FC048F48932910509F465C08A32B4
:10556000910509F46BC08AC08533910509F457C0D1
:1055700089339105B9F082C0833E910571F138F409
:10558000803E9105B1F0823E910511F177C0863ED3
:105590009105B9F1873E9105C9F1843E910509F065
:1055A0006DC024C020917F0220FD53C021FD51C059
:1055B00065C080917F0280FD46C08091800280FF9F
:1055C00048C080917F0284FD68C183EE90E067C18E
:1055D00080917F0282FF3AC0F4CF80917F0282FDEA
:1055E00035C08091800280FD34C0EBCF8091800275
:1055F00081FF35C080917F0284FD4FC187EE90E02E
:105600004EC180917F0283FF27C0F4CF80917F023B
:1056100083FD22C08091800281FD21C0EBCF80916B
:105620007F0285FD1FC021C080917F0285FD1DC0C6
:1056300019C080917F0286FD1BC01DC080917F0232
:1056400086FD19C015C089E390E029C182EE90E083
:1056500026C180EE90E023C186EE90E020C184EE6A
:1056600090E01DC189E290E01AC185E390E017C186
:105670008AE290E014C181E390E011C1811530E528
:10568000930708F066C0811540E4940718F09F70F6
:10569000906A05C1883E9105B0F5803E910508F0FD
:1056A000FEC0883A9105B8F4853A910548F0855ACC
:1056B000E82FF0E0E15AFE4F808190E09064EFC067
:1056C0008130910509F4E6C008F4E7C08430910503
:1056D00008F4E3C0E4C08F3B910558F4885AE82FE2
:1056E000F0E0EE0FFF1FEE59FE4F80819181946430
:1056F000D6C0803C910508F4D0C0880F991FFC01EA
:10570000EF5AFB4F0EC0811520E2920768F0811519
:1057100040E39407A0F4FC01FF70EE0FFF1FEF526F
:10572000FA4F85919491BBC0811531E0930708F041
:10573000B6C0803F910508F4B0C09065B0C0EC01E0
:10574000DD2793FF03C0CE01986CA9C0CE01906CF9
:10575000A6C0811525E5920708F05CC0811534E5E7
:10576000930728F0982F8827846F906A98C0811536
:1057700042E5940738F5811521E59207F0F49C0184
:1057800074E0369527957A95E1F72370982F9370FA
:10579000C1E0D0E002C0CC0FDD1F9A95E2F7DC68D3
:1057A000D22BE82FEF70E695E69520E2E29FF0011C
:1057B0001124CE018E2B9F2B72C0982F8827816FCA
:1057C000906A6DC0AC0143705527282F2695269509
:1057D0008115934578F481E090E002C0880F991F0D
:1057E0004A95E2F740E2249F90011124822B932BEB
:1057F0009C6855C081E090E0FC0102C0EE0FFF1FE5
:105800004A95E2F730E2239FC00111248E2B9F2B93
:105810009A6845C0EC01811549E59407B0F4C115BB
:1058200088E5D80728F09C2F8827806F906A37C0BA
:10583000C11526E5D20788F58C2F0E9494298F7117
:1058400090E0982F882790622AC081153AE5930747
:1058500090F48C2F8F700E94942994E0D695C79570
:105860009A95E1F7CF70D0E0DC2FCC27D0699E016C
:10587000282BC90114C090568115904270F48D2FC9
:105880008F710E949429282F2F71CE019927906241
:10589000922B05C081E090E002C080E090E0DF91B3
:1058A000CF910895CF9384E090E00E94F534C82F03
:1058B00082E290E00E94F5342C2F30E0A901582BB1
:1058C000CA01CF91089580E090E00E94FD348A3EA5
:1058D0009E4F11F40C94071D80E008956AEE7EEF50
:1058E00080E090E00E94313560E082E090E00E942C
:1058F000133560E083E090E00E94133510920802B7
:1059000060E084E090E00E94133560E082E290E085
:105910000E94133560E085E090E00E94133560E05E
:1059200086E090E00E9413356FEF87E090E00E94E0
:10593000133540E050E0BA0188E090E00E94253540
:1059400060E08DE090E00E94133540E050E0BA0145
:1059500088E190E00E94253560E087E190E00E94B8
:10596000133540E050E0BA018CE190E00E9425350B
:1059700060E070E080E290E00E94313540E050E06D
:10598000BA0188E190E00E94253580E00E94DA1C8F
:105990000E94F81C40E050E0BA018FE090E00E94C5
:1059A000253540E050E0BA0183E190E00C942535C4
:1059B0008091E602882331F01092E6021092E5020F
:1059C0001092E402089580959091E30289238093D8
:1059D000E30208959091E3028091E202892B909175
:1059E000E102892B809385028091E602882361F190
:1059F0000E94C6272091E4023091E502821B930B9E
:105A00008838934110F00E94D82C909185028091A3
:105A1000E602892B8093850280911101882331F061
:105A200080917F0287FF02C08EE101C086E0E7E837
:105A3000F2E090E0815028F021912223D9F39F5F7A
:105A4000F9CF91110E94D82CE0917602F091770263
:105A50003097A9F080911101882359F080917F023D
:105A600087FF07C0809185028093860285E080933E
:105A700085020280F381E02D85E892E00994089583
:105A8000CF93C0918002C2FB992790F9981781F0BB
:105A900080FBC2F9C093800260917F0284E090E0B5
:105AA0000E9413356C2F82E290E0CF910C94133555
:105AB000CF9108951092E0021092DF021092DE0260
:105AC00008952091E002809582238093E002982F30
:105AD000977041F430E0482F082E000C550B241726
