:100000000C946C090C948B090C948B090C948B093F
:100010000C948B090C948B090C948B090C948B0910
:100020000C948B090C948B090C94ED330C94C33411
:100030000C944D2D0C948B090C948B090C948B090A
:100040000C948B090C948B090C948B090C948B09E0
:100050000C948B090C94A62D0C948B090C948B0991
:100060000C948B090C948B090C948B090C948B09C0
:100070000C948B090C948B090C948B090C948B09B0
:100080000C948B090C948B090C948B090C948B09A0
:100090000C948B090C948B092A1318133813B7117D
:1000A0000D140D1415130D140D1465130D1479137F
:1000B000ED130D140D140D140D14A9130D140D14BE
:1000C00096130D1451130D140D140714071407146F
:1000D00007140714071407140714071409140D1440
:1000E0002A130E130D140D140D140D140D140D14EC
:1000F0000D140D140D140D1409140D140D141513F5
:100100000D1405140514051405140514051405141F
:10011000051405140914821A9B1AA71A691B691B76
:10012000EB1A081B1B1B651BBD22BD22EF22EF2211
:100130003A235823782478246523FA2309240924B0
:100140006924782478247224182518252A252A253C
:1001500021252A252A252A251825182526252A2558
:100160002A25262534355B3553365B355336A7357E
:10017000CA35533621363036290000003A003B009C
:100180003C003D003E003F00400041004200430073
:100190004400450046004700480000000000000001
:1001A000000064001E001F00200021002200230028
:1001B00024002500260027002D002E002A004900DB
:1001C0004A004B0053005400550056002B00140009
:1001D0001A000800150017001C0018000C0012007F
:1001E00013002F00300028004C004D004E005F002F
:1001F0006000610057003900040016000700090084
:100200000A000B000D000E000F0033003400320016
:1002100000000000000000005C005D005E000000C7
:10022000E10035001D001B0006001900050011004B
:1002300010003600370038000000E50000005200D2
:10024000000059005A005B005800E000E300E200A3
:100250000000000000002C00000000000000E6008C
:10026000E7001E00E400500051004F006200000053
:1002700063000000290000003A003B003C003D0004
:100280003E003F0040004100420043004400450062
:100290004600470048000000000000000000640025
:1002A0001E001F0020002100220023002400250042
:1002B000260027002D002E002A0049004A004B008E
:1002C00053005400550056002B0014001A0008007B
:1002D000150017001C0018000C00120013002F005E
:1002E000300028004C004D004E005F0060006100AF
:1002F0005700390004001600070009000A000B002F
:100300000D000E000F00330034003200000000002A
:10031000000000005C005D005E000000E1003500B0
:100320001D001B000600190005001100100036001A
:10033000370038000000E5000000520000005900BE
:100340005A005B005800E000E300E20000000000FB
:1003500000002C00000000000000E600E7001E0086
:10036000E400500051004F006200000063000000F4
:10037000290000003A003B003C003D003E003F00E9
:100380004000410042004300440045004600470051
:100390004800000000000000000064001E001F0074
:1003A0002000210022002300240025002600270031
:1003B0002D002E002A0049004A004B005300540033
:1003C000550056002B0014001A00080015001700F5
:1003D0001C0018000C00120013002F003000280031
:1003E0004C004D004E005F00600061005700390076
:1003F00004001600070009000A000B000D000E00A3
:100400000F00330034003200000000000000000044
:100410005C005D005E000000E10035001D001B0077
:1004200006001900050011001000360037003800E2
:100430000000E50000005200000059005A005B0077
:100440005800E000E300E2000000000000002C0083
:10045000000000000000E600E7001E00E40050007D
:1004600051004F00620000006300000029000000FE
:100470003A003B003C003D003E003F004000410090
:100480004200430044004500460047004800000089
:1004900000000000000064001E001F00200021007A
:1004A0002200230024002500260027002D002E0016
:1004B0002A0049004A004B005300540055005600E2
:1004C0002B0014001A000800150017001C0018006B
:1004D0000C00120013002F00300028004C004D00CB
:1004E0004E005F00600061005700390004001600F4
:1004F000070009000A000B000D000E000F0033007A
:100500003400320000000000000000005C005D00CC
:100510005E000000E10035001D001B000600190010
:100520000500110010003600370038000000E5001B
:1005300000005200000059005A005B005800E00023
:10054000E300E2000000000000002C0000000000BA
:100550000000E600E7001E00E400500051004F00DC
:1005600062000000630000000000000000000000C6
:100570002A2B2800000000000000000000000000FE
:1005800000000029000000002C1E34202122243409
:100590002627252E362D3738271E1F2021222324DB
:1005A00025263333362E37381F0405060708090A77
:1005B0000B0C0D0E0F101112131415161718191A13
:1005C0001B1C1D2F3130232D350405060708090A91
:1005D0000B0C0D0E0F101112131415161718191AF3
:1005E0001B1C1D2F3130354C0000000000000000A6
:1005F00000000000000000000000000000000000FB
:100600000000000000000000000000007E0F00D489
:10061000FFFFFFC7000000780A00253033326C620C
:10062000003A200025303258000A722F6320303102
:100630003233343536373839414243444546303118
:1006400032333435363738394142434445460A005F
:100650006D6B5F776865656C5F74696D655F746FFE
:100660005F6D6178203D2025640A006D6B5F7768BF
:1006700065656C5F6D61785F7370656564203D20B2
:1006800025640A006D6B5F74696D655F746F5F6DE3
:100690006178203D2025640A006D6B5F6D61785F95
:1006A0007370656564203D2025640A006D6B5F6989
:1006B0006E74657276616C203D2025640A006D6B56
:1006C0005F64656C6179203D2025640A006D6B5F75
:1006D000776865656C5F74696D655F746F5F6D6188
:1006E00078203D2025640A006D6B5F776865656C36
:1006F0005F6D61785F7370656564203D2025640AD5
:10070000006D6B5F74696D655F746F5F6D617820FC
:100710003D2025640A006D6B5F6D61785F737065C5
:100720006564203D2025640A006D6B5F696E746509
:100730007276616C203D2025640A006D6B5F6465F4
:100740006C6179203D2025640A000A002575003679
:100750003A20776865656C5F74696D655F746F5F7B
:100760006D61783A20000A00257500353A207768D7
:1007700065656C5F6D61785F73706565643A2000D4
:100780000A00257500343A2074696D655F746F5FE7
:100790006D61783A20000A00257500333A206D61BA
:1007A000785F73706565643A20000A002575003231
:1007B0003A20696E74657276616C286D73293A20EF
:1007C000000A00257500313A2064656C6179282A99
:1007D00031306D73293A20000A092D2056616C755D
:1007E0006573202D0A004D3E004D25643E20003FDC
:1007F000007365742064656661756C740A00433E1D
:10080000200077686572652064656C74613A2063C6
:100810007572736F723D25642C20776865656C3D39
:1008200025640A53656520687474703A2F2F656ECD
:100830002E77696B6970656469612E6F72672F77B7
:10084000696B692F4D6F7573655F6B6579730A000E
:100850000A092D204D6F7573656B6579202D0A454A
:1008600053432F713A09717569740A313A09646505
:100870006C6179282A31306D73290A323A09696E20
:1008800074657276616C286D73290A333A096D615B
:10089000785F73706565640A343A0974696D655FE1
:1008A000746F5F6D61780A353A09776865656C5FCA
:1008B0006D61785F73706565640A363A09776865BB
:1008C000656C5F74696D655F746F5F6D61780A0A4E
:1008D000703A097072696E742076616C7565730A7E
:1008E000643A097365742064656661756C74730A93
:1008F00075703A092B310A646F776E3A092D310A07
:10090000706775703A092B31300A7067646F776EC3
:100910003A092D31300A0A7370656564203D206400
:10092000656C7461202A206D61785F737065656401
:10093000202A2028726570656174202F2074696DEB
:10094000655F746F5F6D6178290A003F004D3E203E
:1009500000433E20004C25640A0074696D65725F97
:1009600072656164333228293A202530346C580A84
:10097000006B65796D61705F636F6E6669672E6E7F
:100980006B726F3A2025580A006B6579626F61724D
:10099000645F69646C653A2025580A006B6579626A
:1009A0006F6172645F70726F746F636F6C3A202551
:1009B000580A00686F73745F6B6579626F61726467
:1009C0005F6C65647328293A2025580A000A092DAE
:1009D00020537461747573202D0A004743433A20F5
:1009E000352E342E30204156522D4C4942433A2068
:1009F000322E302E30204156525F415243483A2029
:100A000061767235310A004F5054494F4E533A20A7
:100A10004C554641204D4F5553454B45592045585F
:100A20005452414B455920434F4E534F4C45204360
:100A30004F4D4D414E44204E4B524F2031303234B9
:100A40000A004255494C443A20202841756720311C
:100A5000312032303231290A005649443A20307868
:100A600045454545284A616E204C756E67652920CD
:100A70005049443A203078323032312877313030A2
:100A800029205645523A203078303030310A000A59
:100A9000092D2056657273696F6E202D0A000A09B0
:100AA0002D20436F6E736F6C65202D0A4553432FC5
:100AB000713A09717569740A6D3A096D6F757365DC
:100AC0006B65790A000A092D204D61676963202D45
:100AD0000A443A094465627567204D65737361671E
:100AE0006520546F67676C650A583A094D617472E6
:100AF0006978204465627567204D6F646520546F86
:100B000067676C65202D2053686F77206B6579705F
:100B100072657373657320696E206D617472697894
:100B200020677269640A4B3A094B6579626F61729A
:100B30006420446562756720546F67676C65202D7B
:100B40002053686F77206B657970726573732072BC
:100B500065706F72740A4D3A094465627567204D7D
:100B60006F75736520546F67676C650A563A09564E
:100B7000657273696F6E0A533A09537461747573C1
:100B80000A433A09416374697661746520436F6E64
:100B9000736F6C65204D6F64650A46312D463130A8
:100BA0003A0953776974636820746F204C617965E2
:100BB0007220302D392028463130203D204C3029FC
:100BC0000A302D393A0953776974636820746F20AD
:100BD0004C6179657220302D390A47524156453AA9
:100BE0000953776974636820746F204C617965726A
:100BF00020302028616C7465726E617465290A4228
:100C00003A094A756D7020746F20426F6F746C6F73
:100C1000616465720A4553433A094A756D702074E0
:100C20006F20426F6F746C6F616465722028616C15
:100C30007465726E617465290A453A095072696E6D
:100C40007420454550524F4D2053657474696E674A
:100C5000730A4253504143453A09436C656172201F
:100C6000454550524F4D0A4E3A094E4B524F205473
:100C70006F67676C650A000A002575002E6E6B723F
:100C80006F3A20000A002575002E737761705F624D
:100C900061636B736C6173685F6261636B737061D6
:100CA00063653A20000A002575002E737761705F36
:100CB00067726176655F6573633A20000A00257587
:100CC000002E6E6F5F6775693A20000A0025750077
:100CD0002E737761705F72616C745F726775693AC9
:100CE00020000A002575002E737761705F6C616CBF
:100CF000745F6C6775693A20000A002575002E73D1
:100D00007761705F7263746C5F726775693A200017
:100D10000A002575002E737761705F6C63746C5FD9
:100D20006C6775693A20000A002575002E636170B2
:100D3000736C6F636B5F746F5F636F6E74726F6CF5
:100D40003A20000A002575002E737761705F636F8B
:100D50006E74726F6C5F636170736C6F636B3A205B
:100D6000000A0025303258006B65796D61705F6351
:100D70006F6E6669672E7261773A20000A002575EA
:100D8000002E6D6F7573653A20000A002575002EE0
:100D90006B6579626F6172643A20000A0025750004
:100DA0002E6D61747269783A20000A002575002E54
:100DB000656E61626C653A20000A00253032580089
:100DC00064656275675F636F6E6669672E726177CF
:100DD0003A20000A0025750064656661756C745FD1
:100DE0006C617965723A20003F004E4B524F3A20B9
:100DF0006F66660A004E4B524F3A206F6E0A000A29
:100E00006D6F7573653A206F66660A000A6D6F75BF
:100E100073653A206F6E0A000A6B6579626F6172C2
:100E2000643A206F66660A000A6B6579626F6172C8
:100E3000643A206F6E0A000A6D61747269783A2014
:100E40006F66660A000A6D61747269783A206F6E87
:100E50000A000A64656275673A206F66660A000ACE
:100E600064656275673A206F6E0A000A0A4A756DFA
:100E700070696E6720746F20626F6F746C6F61644D
:100E800065722E2E2E2000433E2000436C65617259
:100E9000696E6720454550524F4D0A006565636F86
:100EA0006E6669673A0A00290A002575002F002539
:100EB00075005D28002564002000256400200025C1
:100EC000640020002564007C0025303258006D6FDE
:100ED0007573656B6579205B62746E7C7820792010
:100EE0007620685D287265702F61636C293A205BFB
:100EF00000FD377A585A000004E6D6B446020021B5
:100F00000116000000742FE5A3E0049E016A5D0055
:100F10003D8889C65436C3174FE4FC3FC90301130B
:100F2000D9CD2E2B835416E5E40DE482CD2976E34A
:100F3000A9CA5469743744169F96A1EEE7E816B221
:100F4000A035BE8F8F80AE1B9E76BBF9F519742D30
:100F50007C56966C3E6F27CC6A9061800AC498C814
:100F60004975FA09EA4D237B4544B9929DDAF4F7B5
:100F700070F00F6AAF3948A882C6CF3256290435BF
:100F8000CC386A3CFBE667025D9D558340C2B4F7EE
:100F9000F515317EEEACE99951307754A9A087DD83
:100FA000362D9590BB39204B22AF6B57F2D1D37EB3
:100FB000656A564B11B8924E5FFBCC3542F68DCD2B
:100FC0002619748242CD5283034DEF857FE9C772A3
:100FD0000782EBD877F745FB55A3964E6D35A60EE5
:100FE00086B8EC7808E177A69837853F70118B2991
:100FF000F0F0A61E5D706D7169D27499E325D2433D
:1010000072ECB599CD716285B706FCEE674883C472
:101010001FDF0CC34219191A4B5656C5052DF9206E
:10102000F5A3CFB645F35120853DE4B9B5D7F1EE30
:101030004F220F5F4D7B58221C6F506E56C0CF2D34
:1010400030C1B8418443489DB701DE826B70DEB287
:101050005FE5A86A631EBBE5ADC23E5D7D722424D8
:1010600019F83D08F26DF12C664C2C0DB5CCA08022
:1010700000AF942B5AB515388156000000E3A5BE89
:10108000A36F1AF85A000186039F090000B593EE7A
:10109000A6B1C467FB020000000004595A5B735DEF
:1010A000004B6579626F6172642073746172742E93
:1010B0000A005B575D005B535D005B525D005B4463
:1010C0005D005B435D001C037600690061006C00FD
:1010D0003A006600360034006300320062003300DC
:1010E000630000000A037700310030003000000088
:1010F00014034A0061006E0020004C0075006E0071
:101100006700650000000403090409027B00040174
:1011100000A0FA09040000010301010009211101E6
:1011200000012240000705810308000A09040100AC
:10113000020300000009211101000122220007051D
:1011400082032000010705030320000109040200B7
:10115000010300000009211101000122BC00070564
:10116000840320000A09040300020300000009218F
:101170001101000122220007058503200001070557
:1011800005032000011201100100000008EEEE210D
:10119000200100010203010631FF0974A101097554
:1011A000150026FF00952075088102097615002696
:1011B000FF00952075089102C00660FF0961A1013A
:1011C0000962150026FF0095207508810209631544
:1011D0000026FF00952075089102C005010902A1B3
:1011E0000185020901A1000509190129051500253C
:1011F00001950575018102950175038101050109BC
:101200003009311581257F95027508810609381549
:1012100081257F950175088106050C0A3802158124
:10122000257F950175088106C0C005010980A101CF
:10123000850319012AB700150126B700950175101D
:101240008100C0050C0901A101850419012AA00231
:10125000150126A002950175108100C0050109063F
:10126000A1018505050719E029E715002501950865
:10127000750181020507190029EF1500250195F078
:10128000750181020508190129059505750191026D
:10129000950175039101C005010906A10105071912
:1012A000E029E71500250195087501810295017572
:1012B0000881010507190029FF150026FF00950682
:1012C0007508810005081901290595057501910228
:1012D000950175039101C00011241FBECFEFD0E22C
:1012E000DEBFCDBF11E0A0E0B1E0ECE3FEE600E040
:1012F0000BBF02C007900D92A83BB107D9F723E0BE
:10130000A8EBB1E001C01D92AF31B207E1F70E9436
:101310009F300C941C370C940000FF93EF93E091E6
:10132000B801F091B901309709F00995EF91FF915B
:101330000895FC018591803011F0EFDFFBCF089517
:10134000FF27E0E230E247FF0CC0419597FF09C05C
:10135000EDE26095709580959095611D711D811DE0
:10136000911D27FF02C0219530E350E2AA27660FA6
:10137000771F881F991FAA1FA41710F0A41B63953D
:101380005A95A9F7AA3008F0A95FA05DAF93F3952D
:10139000611571058105910541F7ED3211F4EF9367
:1013A000F395F21718F43F93F395FBCF8F91B5DFC8
:1013B000FA95E1F70895E991F9918591803021F04E
:1013C000853219F0AADFF9CF089520E0E89455910D
:1013D0005532C1F3503311F4689455915A3348F49F
:1013E000505390F3220F022E220F220F200D250FB3
:1013F000F4CF0EF4219589919991533619F353370F
:1014000029F1533559F1BC0188279927E8945C36B6
:1014100021F48991999168945591543639F446EFA5
:101420007EF077FF0DC08FEF9FEF0AC055374AE07F
:1014300039F0583540E121F0523642E009F0089584
:10144000FF93EF937DDFEF91FF91B7CFFF93EF9382
:10145000FC0181918030B9F360DFFBCFFF93EF9304
:1014600068DFF1CFDF93CF93CDB7DEB72596A3DF4B
:10147000CF91DF910895FC0180818C3FB1F481818F
:10148000823049F0833061F0813079F48DEF8183CF
:1014900082810C9447298DEF818382810C945C2991
:1014A0008DEF818382810C947D29089581E00895D8
:1014B00081E008950C94580A08950C945C0A1F93D7
:1014C000CF93DF9300D000D01F92CDB7DEB7498312
:1014D0005A836B833091FF0189819A81311114C045
:1014E000662359F0222349F00E94512A182F682FB1
:1014F00089819A810E94FA2903C00E94252A182F07
:1015000069817A81812F04C00E94512A69817A8180
:101510000F900F900F900F900F90DF91CF911F9130
:101520000C94DF1CFC01262F408151816281738164
:1015300084810C945F0ACF93DF93EC0160E00E94FA
:10154000920ABE01DF91CF910C945D0A8F929F9217
:10155000AF92BF92CF92DF92EF92FF920F931F93C1
:101560006B017C0181E090E0A0E0B0E04C015D0106
:1015700004C0880C991CAA1CBB1C4A95D2F7AC016C
:10158000BD0104C0440F551F661F771F2A95D2F76F
:10159000482959296A297B2904C0880F991FAA1F45
:1015A000BB1F0A95D2F78A019B010C211D212E2118
:1015B0003F21401751076207730739F4BC01CD0181
:1015C0006C297D298E299F290AC080959095A09528
:1015D000B095BC01CD016C217D218E219F211F91F1
:1015E0000F91FF90EF90DF90CF90BF90AF909F90C2
:1015F0008F9008950F93382F262F60918802709155
:10160000890280918A0290918B02042F432F0E94BD
:10161000A60A0F910C9436290E94052E0E94892B50
:10162000811102C00E94302C0C94260F0C94220FC2
:1016300008950E9406250E94180B2FEF84E39CE07A
:10164000215080409040E1F700C000000C94CC2D68
:101650000F931F93CF93DF938C01EB010E9400192E
:10166000882379F1BE01C8010E945A0A882349F1F2
:10167000BE01C8010E945C1E882319F1BE01C80189
:101680000E94AE1E8823E9F0BE01C8010E94D91F46
:101690008823B9F08A81882369F001158CE5180741
:1016A00031F00E3D1C4531F40E94302C0AC00E94DE
:1016B000190B07C0CE01DF91CF911F910F910C94B0
:1016C000560A80E0DF91CF911F910F910895CF933B
:1016D000DF93EC0161E00E94920ABE01DF91CF919D
:1016E0000C94280BDF92EF92FF920F931F93CF93EE
:1016F000DF93E82FF0E0E859FA4FD490282F269591
:101700002695269530E0F901E85FF94F049187703E
:1017100010E0082E02C0159507950A94E2F70170B3
:101720001127F901E850FA4FE490F12C082E02C07D
:10173000F594E7940A94E2F791E0E922FF24F90195
:10174000E851FA4FC491D0E002C0D595C7958A956B
:10175000E2F7C170DD270115110519F081EE0E9435
:10176000CD21E114F10419F086EE0E94CD218D2DDA
:101770000E947322EF2819F086EE0E942822012B86
:1017800019F081EE0E942822CD2B51F08CE2DF91DE
:10179000CF911F910F91FF90EF90DF900C947322E7
:1017A000DF91CF911F910F91FF90EF90DF900895FF
:1017B000EF92FF920F931F93CF93DF93EC01162FBD
:1017C0000AE08881882309F455C0813009F043C0BC
:1017D0008981813041F47E0182E0E80EF11C8A812A
:1017E0000E94732209C0823049F47E01E2E0EE0ECD
:1017F000F11C8A810E94CD21E7012FC0833041F482
:101800007E01F2E0EF0EF11C8A810E942822F4CFC3
:10181000843011F0219621C02A81229680E090E048
:1018200030E0205331092A30310558F4089FA001D7
:10183000099F500D1124C901840F951F21962881FD
:10184000EFCF009751F0EFE9FFE03197F1F700C0DB
:1018500000000197F6CF0E94720B2196812F8823FA
:1018600009F4AFCFEFE9FFE03197F1F700C00000D6
:101870008150F5CFDF91CF911F910F91FF90EF90A5
:10188000089560E00C94D80B8295982F937344E0F0
:10189000949F900111248C7C86958695282B822F0D
:1018A0008575880F2A7A2695822B0895CF93DF932A
:1018B000D92F0E94440CC82F8D2F0E94440C2C2F2E
:1018C00030E0322F2227A901482BCA01DF91CF91A6
:1018D0000895CF92DF92EF92FF920F931F93CF93D1
:1018E000DF936B017C01CB010E94560CEC01C70118
:1018F0000E94560CAC01CE01A0E0B0E0DC019927BB
:10190000882760E070E08C019D01042B152B262BAD
:10191000372BC901B801DF91CF911F910F91FF9033
:10192000EF90DF90CF90089508950C94940C81E08F
:1019300008950C94970CCF93C82F0E94950C8C2F70
:101940000E94990CCF91089580E090E00895089549
:10195000880F991FFC01E85EF94F859194910895D5
:10196000CF93DF930E94DF1C0E94C80DEC0181150C
:10197000904508F041C0C11580E4D80708F0D1C0F7
:10198000C83ED10510F5C03ED10508F0FDC0C83AEB
:10199000D10578F4C53AD10508F0A2C0C130D1050F
:1019A00009F4F2C008F4EEC0C430D10508F0ECC070
:1019B000E9C0CF3BD10508F49BC0C03CD10508F479
:1019C000E1C0CE01805C91099EC0C11590E2D907AB
:1019D00058F4C11521E0D20708F0D6C0C03FD105A8
:1019E00008F4D0C0D065D0C0C11580E3D80708F096
:1019F0008EC0CE019F7087C0C11595E5D90708F04C
:101A000043C0C11524E5D20708F0A2C0C11582E584
:101A1000D80708F5C11591E5D90708F085C0CE01B2
:101A200074E0969587957A95E1F783709C2F937073
:101A300021E030E002C0220F331F9A95E2F73C68A4
:101A4000382BCF70C695C69580E2C89FE00111245F
:101A5000C22BD32B99C09E01237033278C2F8695E0
:101A60008695C115D34508F064C0C1E0D0E002C03E
:101A7000CC0FDD1F2A95E2F720E2829FC0011124DE
:101A8000C82BD92BDC6880C0C11529E5D207A0F48A
:101A9000C11588E5D80708F060C0C11596E5D907DB
:101AA00008F070C08C2F0E945C0E8F71C82FD0E0A0
:101AB000DC2FCC27D06268C0C1152AE5D20708F414
:101AC00051C0CE0190568115904208F05BC08D2F19
:101AD0008F710E945C0EDD27D0628F71D82B54C0AD
:101AE000C55AD0E0C55BDE4FC881D0E0D0644CC0A1
:101AF000C85AD0E0CC0FDD1FC35EDE4F0990D881FD
:101B0000C02DD46441C00E94A80CEC013DC0CE01A0
:101B10009927D3FF03C0EC01D86C36C0EC01D06C20
:101B200033C0DF70D06A30C0DC2FCC27C16FD06AE1
:101B30002BC0C1E0D0E002C0CC0FDD1F2A95E2F738
:101B400020E2829FC0011124C82BD92BDA681CC067
:101B5000DC2FCC27C46FD06A17C0DC2FCC27C06F16
:101B6000D06A12C08C2F8F700E945C0E94E0D695C4
:101B7000C7959A95E1F7CF70D0E0DC2FCC27D069DC
:101B8000C82B02C0C0E0D0E0CE01DF91CF91089514
:101B90008238910569F1B0F48133910509F46DC083
:101BA00048F48932910509F463C08A32910509F439
:101BB00069C008958533910509F455C089339105AD
:101BC000B9F00895833E910569F138F4803E91059E
:101BD000B1F0823E910509F10895863E9105A9F183
:101BE000873E9105B9F1843E910509F064C023C098
:101BF0002091100320FD4FC021FD4DC0089580911C
:101C0000100380FD44C08091110380FF44C0809187
:101C1000100384FD42C083EE4DC08091100382FF0B
:101C200038C0F5CF8091100382FD33C0809111033D
:101C300080FD31C0ECCF8091110381FF32C08091D3
:101C4000100384FD2AC087EE35C08091100383FF06
:101C500026C0F5CF8091100383FD21C08091110330
:101C600081FD1FC0ECCF8091100385FD1CC01DC0FD
:101C70008091100385FD19C016C08091100386FD68
:101C800016C017C08091100386FD13C010C089E3F1
:101C900011C082EE0FC080EE0DC080E00BC086EE5A
:101CA00009C084EE07C089E205C085E303C08AE26B
:101CB00001C081E390E008959091100392FF0DC060
:101CC000282F2871283019F4877F846006C0282FB8
:101CD0002471243011F48B7F886093FF0DC0282F6E
:101CE0002871283119F4877E846106C0282F247159
:101CF000243111F48B7E88612091110320FF0DC0E7
:101D0000382F3871383019F4877F816006C0382F3A
:101D10003171313011F48E7F886021FF0DC0282F82
:101D20002871283119F4877E816106C0282F21711E
:101D3000213111F48E7E886194FD877E0895962F5F
:101D400024E0829FF0011124EC50FD4F41E050E06F
:101D500060E070E004C0440F551F661F771F9A951E
:101D6000D2F780819181A281B381482359236A23CC
:101D70007B2381E0452B462B472B09F480E0089517
:101D800024E0829FC0011124FC01EC50FD4F6081D2
:101D90007181828193810895CF92DF92EF92FF92B9
:101DA0000F931F93CF93DF9389E296E00E949909E6
:101DB00084EFE82E82E0F82EC0E0D0E094E2C92E55
:101DC00096E0D92E0AE116E0DF93CF93DF92CF920F
:101DD0000E94320A81E296E00E949909F70161911E
:101DE0007191819191917F010E94690C9F938F93D2
:101DF0007F936F931F930F930E94320A88E196E0BE
:101E00000E94990921968DB79EB70A960FB6F8944D
:101E10009EBF0FBE8DBFC630D105B1F6DF91CF9109
:101E20001F910F91FF90EF90DF90CF90089580EA7F
:101E30008A95F1F7089500C008950C94170F08953E
:101E40000C941F0F0C94200F0C941F0F0C94240F54
:101E5000F894E82FE295EF70F0E031A1282F2F7071
:101E600081E090E001C0880F2A95EAF7982F9095BD
:101E7000932391A392A1892B82A378940895CF9361
:101E8000DF93C3E6D1E089910E94280F81E0C93633
:101E9000D807C9F7CEE4D1E089910E94280F81E0EC
:101EA000C336D807C9F7ECEDF2E0A4EFB2E084EF57
:101EB00092E011921192119211921D921D921D9217
:101EC0001D928E179F07A9F786E00E941410DF91DC
:101ED000CF910C940C0B2F923F924F925F926F9286
:101EE0007F928F929F92AF92BF92DF92EF92FF927A
:101EF0000F931F93CF93DF930CED12E043E6E42E94
:101F000041E0F42EC0E0D0E0D12C1701F701808130
:101F1000F894E82FE295EF70F0E021A18F7088240B
:101F20008394912C02C0880C991C8A95E2F7C40115
:101F3000922F982B91A392A18095892382A37894C4
:101F40000E941B0FAEE4B1E080E090E0412C512CE8
:101F500032015D91E52FE295EF70F0E020A130E0D5
:101F60005F7002C0359527955A95E2F720FD0FC0A6
:101F7000812C912C54018394082E04C0880C991C48
:101F8000AA1CBB1C0A94D2F7B501A40103C040E00F
:101F900050E0BA01442A552A662A772A01968531EB
:101FA0009105B9F64FEFE41AF40AF10180810E941D
:101FB000280FC530D10511F00E941D0FF801808156
:101FC0009181A281B381481659066A067B0631F0D9
:101FD000408251826282738281E001C080E0D82A0F
:101FE00021960C5F1F4FC630D10509F08ECF2D2DE5
:101FF00046E064EF72E08CED92E00E9415100E94C2
:10200000160B8D2DDF91CF911F910F91FF90EF90C7
:10201000DF90BF90AF909F908F907F906F905F9078
:102020004F903F902F9008950895FF920F931F9324
:10203000CF93DF93F82ED92F8B01C42F222349F0A1
:1020400081E08093BC010E947F2D9093BB0180931F
:10205000BA018091BC018823F1F08091BA0190917E
:10206000BB010E94972D0697B0F0EF2DFD2FD801F0
:1020700080E090E04C2F50E08417950754F40191D4
:102080001191219131910D931D932D933D930196C3
:10209000F3CF1092BC01DF91CF911F910F91FF9070
:1020A000089580E598E00E9499091F9281E08F933E
:1020B0001F9285E08F9382E098E09F938F930E9418
:1020C000320A0F900F900F900F900F900F9008957D
:1020D0008330E9F128F4813061F0823009F108950C
:1020E000853009F462C008F449C0863009F474C030
:1020F000089580910701262F30E0280F311D2F3FD2
:10210000310524F4680F6093070103C08FEF8093BB
:102110000701809107011F928F938BE397E072C0B4
:1021200080910601262F30E0280F311D2F3F310509
:1021300024F4680F6093060103C08FEF80930601BB
:10214000809106011F928F9389E297E05BC0809196
:102150000501262F30E0280F311D2F3F310524F4D3
:10216000680F6093050103C08FEF80930501809194
:1021700005011F928F9386E197E044C0809104018E
:10218000262F30E0280F311D2F3F310524F4680F32
:102190006093040103C08FEF8093040180910401D8
:1021A0001F928F9381E097E02DC080910101262F2F
:1021B00030E0280F311D2F3F310524F4680F609364
:1021C000010103C08FEF80930101809101011F92F3
:1021D0008F9388EE96E016C080910001262F30E0A4
:1021E000280F311D2F3F310524F4680F6093000143
:1021F00003C08FEF80930001809100011F928F93A5
:102200008DEC96E09F938F930E94320A0F900F906F
:102210000F900F900895833081F128F4813059F0A8
:102220008230D1F00895853009F449C0B8F1863084
:1022300009F456C0089580910701681720F4861BA1
:102240008093070102C010920701809107011F923D
:102250008F938EEB96E054C080910601681720F4AE
:10226000861B8093060102C0109206018091060130
:102270001F928F938CEA96E043C080910501681706
:1022800020F4861B8093050102C010920501809105
:1022900005011F928F9389E996E032C08091040175
:1022A000681720F4861B8093040102C01092040179
:1022B000809104011F928F9384E896E021C0809161
:1022C0000101681720F4861B8093010102C010925F
:1022D0000101809101011F928F938BE696E010C05F
:1022E00080910001681720F4861B8093000102C0D2
:1022F00010920001809100011F928F9380E596E07B
:102300009F938F930E94320A0F900F900F900F901F
:102310000895CF93C82F1F928F9385E599E09F93DF
:102320008F930E94320A81E090E0A0E0B0E0BC010F
:10233000CD0104C0660F771F881F991FCA95D2F779
:102340000E94FC280F900F900F900F90CF910C944B
:102350000625CF93DF93482F50E0FA013597EF33EE
:10236000F10508F05AC2E45BFF4F0C94A6368CE9E5
:102370009EE00E94990988ED9DE00E9499090E94C3
:10238000982B1F928F9385ED9DE09F938F930E94D2
:10239000320A83ED9DE00E9499090E94942BC82F78
:1023A00080EC9DE00E9499091F92CF938BEB9DE0FA
:1023B0009F938F930E94320A89EB9DE00E949909B6
:1023C0008FEA9DE00E9499098C2F81701F928F9354
:1023D0008CEA9DE09F938F930E94320A8AEA9DE0E7
:1023E0000E94990980EA9DE00E949909C1FB882713
:1023F00080F91F928F938DE99DE09F938F930E94A8
:10240000320A8BE99DE00E9499098FE89DE00E94C5
:102410009909C2FB882780F91F928F938CE89DE071
:102420009F938F930E94320A8AE89DE00E94990947
:1024300081E89DE00E949909C3FBCC27C0F91F9257
:10244000CF938EE79DE09F938F930E94320A8CE793
:102450009DE00E9499090E949C2BEC0188E69DE07A
:102460000E949909DF93CF9383E69DE09F938F931A
:102470000E94320A81E69DE00E94990988E49DE06D
:102480000E9499098C2F81701F928F9385E49DE0A3
:102490009F938F930E94320A8DB79EB780960FB696
:1024A000F8949EBF0FBE8DBF83E49DE00E94990902
:1024B0008CE29DE00E949909C1FB882780F91F9258
:1024C0008F9389E29DE09F938F930E94320A87E267
:1024D0009DE00E94990985E19DE00E9499098D2F58
:1024E00081701F928F9382E19DE09F938F930E9452
:1024F000320A80E19DE00E9499098EEF9CE00E94E3
:102500009909D695D1701F92DF938BEF9CE09F9332
:102510008F930E94320A89EF9CE00E94990987EE0E
:102520009CE00E949909C2FB882780F91F928F9333
:1025300084EE9CE09F938F930E94320A82EE9CE08F
:102540000E94990980ED9CE00E949909C3FB8827AD
:1025500080F91F928F938DEC9CE09F938F930E9444
:10256000320A8BEC9CE00E94990981EC9CE00E946D
:102570009909C4FB882780F91F928F938EEB9CE00A
:102580009F938F930E94320A8CEB9CE00E949909E2
:102590008AEA9CE00E949909C5FB882780F91F926E
:1025A0008F9387EA9CE09F938F930E94320A85EA7B
:1025B0009CE00E94990989E89CE00E949909C6FB69
:1025C000882780F91F928F9386E89CE09F938F93D2
:1025D0000E94320A8DB79EB780960FB6F8949EBFC0
:1025E0000FBE8DBF84E89CE00E9499098CE79CE0B7
:1025F0000E949909C7FBCC27C0F91F92CF9389E7A6
:102600009CE09F938F930E94320A87E79CE00E9490
:1026100099090F900F900F900F9005C18BE89EE0E5
:102620000E9499090E94302CFEC085EC9AE07BC084
:102630008091B502817F8E7F8093B5028EE99AE00A
:102640000E94990987E89EE00E94990981E08093A1
:10265000BE01E9C08BE69EE00E9499098091D201FB
:102660009091D301892B09F4DEC00E94190BDBC0C5
:102670008091B502C82FC095C170C0FB80F98093CE
:10268000B502CC2319F08FE59EE0B9C082E59EE04B
:102690000E9499098091B502897F877F8093B50256
:1026A000C2C09091B50291FBCC27C0F981E0C82748
:1026B000892FC0FB81F98093B502CC2319F085E402
:1026C0009EE027C087E39EE02EC09091B50292FB6A
:1026D000CC27C0F981E0C827892FC0FB82F98093FD
:1026E000B502CC2319F088E29EE013C088E19EE099
:1026F0001AC09091B50293FBCC27C0F981E0C8279E
:10270000892FC0FB83F98093B502CC2351F08CE074
:102710009EE00E9499098091B50281608093B50284
:1027200083C08FEF9DE00E9499097DC08FE89AE0F9
:102730000E94990989E59AE00E94990982E49AE049
:102740000E94990987E09AE00E9499098BED99E02F
:10275000EACF8DEC99E00E9499090E940F201F9208
:102760008F9383EB99E09F938F930E94320A80911D
:1027700014011F928F938CE999E09F938F930E948D
:10278000320A8091DB021F928F9389E899E09F9330
:102790008F930E94320A8091100387FB882780F96B
:1027A0001F928F9381E799E09F938F930E94320A43
:1027B0000E948B2D9F938F937F936F938AE599E06F
:1027C0009F938F930E94320A8DB79EB746960FB69D
:1027D000F8949EBF0FBE8DBF26C00E940625909123
:1027E000100397FBCC27C0F981E0C827892FC0FBD5
:1027F00087F980931003CC2329F085EF9DE00E9498
:10280000990912C08AEE9DE08ECF895303C08D5185
:1028100001C080E00E94891106C088EE9DE00E9400
:102820009909C0E001C0C1E08C2FDF91CF910895DC
:1028300080E008950C9418148E518A3030F4E82FFB
:10284000F0E0E759FE4F8081089580E00895CF932E
:10285000C82F8091BE01813059F020F0823009F4F8
:1028600045C039C10E94D22A823209F036C104C063
:102870000E94D22A823261F48C2F0E941A14811194
:1028800004C08C2F0E94A9112FC081E090E02CC0C1
:102890008C2F0E941814811126C0C431E1F070F40D
:1028A000CB3081F0C031D1F40E9451108DE499E019
:1028B0000E94990982E08093BE0115C0C93259F087
:1028C000C83361F48EE99AE00E94990981E599E0A4
:1028D0000E94990908C01092BE0101C18BE499E0E1
:1028E0000E949909FCC081E08170FBC0C43228F5C8
:1028F000CE3108F0C1C0CB30A1F1D0F4C73009F01F
:10290000D0C08EE18093070182E3809306018AE0C4
:102910008093050184E18093040188E080930101A4
:1029200088E28093000181EF97E00E949909BCC082
:10293000C33149F1C431C1F0B4C0CB3409F4A6C0ED
:1029400028F4C93289F0C83361F0ABC0C13509F44D
:102950009BC0C23509F496C0CE3409F0A2C06AE02B
:102960009BC00E945110A0C08091BD01882319F026
:102970001092BD0199C08EEF97E00E94990981E005
:102980008093BE01AEC088ED97E00E94990986EC65
:1029900097E00E949909809107011F928F9383EC21
:1029A00097E09F938F930E94320A81EC97E00E94F8
:1029B00099098FEA97E00E949909809106011F9278
:1029C0008F938CEA97E09F938F930E94320A8AEA52
:1029D00097E00E9499098BE997E00E9499098091FC
:1029E00005011F928F9388E997E09F938F930E9430
:1029F000320A86E997E00E94990985E897E00E94EB
:102A00009909809104011F928F9382E897E09F9328
:102A10008F930E94320A80E897E00E9499098BE622
:102A200097E00E949909809101011F928F9388E697
:102A300097E09F938F930E94320A86E697E00E9468
:102A400099098FE497E00E949909809100011F92F3
:102A50008F938CE497E09F938F930E94320A8AE4CD
:102A600097E00E9499098DB79EB748960FB6F894E3
:102A70009EBF0FBE8DBF18C08C2F0E941C14809368
:102A8000BD0112C061E003C061E006C06AE0809150
:102A9000BD010E94681008C08091BD010E940B1109
:102AA00003C08FEE97E013C08091BD01882369F0C9
:102AB0001F928F9389EE97E09F938F930E94320A23
:102AC0000F900F900F900F9004C086EE97E00E9439
:102AD000990981E006C01092BE0180E002C080E04A
:102AE00003CFCF9108958091C50180FF0BC0609105
:102AF000050185E0689FB00111247595679575956E
:102B000067952BC081FF09C06091050185E0689F32
:102B1000B00111247595679520C082FF07C06091B0
:102B2000050185E0689FB001112417C09091C40190
:102B30009923D1F060910401961788F7209105013F
:102B400085E0289F90011124929FA001939F500D32
:102B5000112470E0CA010E9492366038710540F479
:102B60006115710519F406C065E070E0862F0895BF
:102B70008FE7089581E008958091C50180FF08C026
:102B80006091010170E0759567957595679521C015
:102B900081FF06C06091010170E07595679519C0CD
:102BA00082FF04C06091010170E010C09091C301E8
:102BB000992399F0609100019617A0F78091010187
:102BC000899FC001112470E00E949236603871051F
:102BD00040F46115710519F406C061E070E0862FBC
:102BE00008958FE7089581E00895803F21F40E94C1
:102BF0007315819504C0813F29F40E947315809359
:102C0000C9010895823F21F40E947315819504C083
:102C1000833F29F40E9473158093C8010895893F6A
:102C200019F40E94BC1505C08A3F31F40E94BC15FE
:102C300081958093CA0108958B3F21F40E94BC15B1
:102C4000819504C08C3F29F40E94BC158093CB0170
:102C50000895843F21F48091C701816017C0853FAA
:102C600021F48091C701826011C0863F21F48091D8
:102C7000C70184600BC0873F21F48091C701886041
:102C800005C0883F31F48091C70180618093C701FE
:102C900008958D3F21F48091C50181600BC08E3F66
:102CA00021F48091C501826005C08F3F29F4809195
:102CB000C50184608093C5010895803F39F48091F7
:102CC000C90187FF6AC01092C90167C0813F29F41A
:102CD0008091C9011816BCF360C09091C801823F71
:102CE00029F497FF5AC01092C80157C0833F19F4C6
:102CF0001916CCF352C09091CA01893F31F41916CC
:102D00000CF04BC01092CA0148C08A3F19F497FFDB
:102D100044C0F8CF8B3F39F48091CB0187FF3DC091
:102D20001092CB013AC08C3F29F48091CB01181648
:102D3000BCF333C0843F21F48091C7018E7F17C05C
:102D4000853F21F48091C7018D7F11C0863F21F41A
:102D50008091C7018B7F0BC0873F21F48091C70111
:102D6000877F05C0883F31F48091C7018F7E8093B3
:102D7000C70113C08D3F21F48091C5018E7F0BC028
:102D80008E3F21F48091C5018D7F05C08F3F29F4CE
:102D90008091C5018B7F8093C5018091C80181110D
:102DA00006C08091C901811102C01092C4018091B6
:102DB000CA01811106C08091CB01811102C010921D
:102DC000C30108958091B50283FF7EC08EEC9EE022
:102DD0000E9499098091C7011F928F9389EC9EE010
:102DE0009F938F930E94320A87EC9EE00E9499097C
:102DF0008091C801282F082E000C330B3F938F932E
:102E000084EC9EE09F938F930E94320A82EC9EE0B6
:102E10000E9499098091C901282F082E000C330BBC
:102E20003F938F938FEB9EE09F938F930E94320A84
:102E30008DEB9EE00E9499098091CA01282F082EEF
:102E4000000C330B3F938F938AEB9EE09F938F93FD
:102E50000E94320A88EB9EE00E9499098091CB0182
:102E6000282F082E000C330B3F938F9385EB9EE0A9
:102E70009F938F930E94320A82EB9EE00E949909F1
:102E80008091C4011F928F938FEA9EE09F938F934E
:102E90000E94320A8DEA9EE00E9499098091C50144
:102EA0001F928F938AEA9EE09F938F930E94320A2B
:102EB00087EA9EE00E9499098DB79EB74C960FB69F
:102EC000F8949EBF0FBE8DBF0E947F2D2091C80138
:102ED000211104C02091C901222321F09093C20145
:102EE0008093C1012091CA01211104C02091CB011E
:102EF000222321F09093C0018093BF0186EC91E0E2
:102F00000C943520EF92FF920F931F93CF93DF9392
:102F100000D000D000D0CDB7DEB786E0E6ECF1E01F
:102F2000DE01119601900D928A95E1F7E090C801BB
:102F3000F090C9010091CA011091CB011092C80113
:102F40001092C9011092CA011092CB01E11003C086
:102F5000FF2009F45DC08091C1019091C2010E94DF
:102F6000972DAC019091C401992339F0209106016D
:102F700030E02417350758F04BC0209107018AE054
:102F8000289F900111242417350718F041C09F3F56
:102F900019F09F5F9093C401EE2061F00E947315B9
:102FA0001E1414F09FEF01C091E0989F902D112402
:102FB0009093C801FF2061F00E9473151F1414F054
:102FC0009FEF01C091E0989F902D11249093C9012B
:102FD0003091C8013323E1F02091C9012223C1F0CF
:102FE00045EB3403C0011124992319F09093C801D3
:102FF00003C081E08093C80135EB2303C001112495
:10300000992319F09093C90103C081E08093C9010D
:10301000011103C0112309F45DC08091BF0190919B
:10302000C0010E94972DAC019091C301992339F002
:103030002091020130E02417350758F04BC0209151
:1030400003018AE0289F900111242417350718F006
:1030500041C09F3F19F09F5F9093C301002361F02F
:103060000E94BC15101614F09FEF01C091E0989FCC
:10307000902D11249093CA01112361F00E94BC1578
:10308000111614F09FEF01C091E0989F902D11242C
:103090009093CB013091CA013323E1F02091CB0111
:1030A0002223C1F045EB3403C0011124992319F008
:1030B0009093CA0103C081E08093CA0135EB2303DA
:1030C000C0011124992319F09093CB0103C081E032
:1030D0008093CB018091C80181110BC08091C901FF
:1030E000811107C08091CA01811103C08091CB0179
:1030F00081110E94E216EB82FC820D831E8386E022
:10310000FE013196A6ECB1E001900D928A95E1F7AF
:1031100026960FB6F894DEBF0FBECDBFDF91CF91DC
:103120001F910F91FF90EF900895E6ECF1E086E09B
:10313000DF011D928A95E9F71092C4011092C30134
:103140001092C501089582E290E00E94DA36833041
:1031500081F483E290E00E94DA368D3E51F484E2FD
:1031600090E00E94DA3691E0853309F090E0892FF3
:1031700001C080E081700895CF93C82F811102C0F3
:103180006FEF01C063E082E290E00E94E836C11177
:1031900002C06FEF01C06DEE83E290E00E94E8365E
:1031A000C11102C06FEF01C065E384E290E0CF91EE
:1031B0000C94E83680E00E94BC180C94832B089590
:1031C00085E290E00E94DA36682F70E080E090E0BF
:1031D000089585E290E00C94E8360E94DF180E9482
:1031E000A31881110CC060E070E0CB010E94E918C7
:1031F0000E94D31B0E943F1D81E00C94BC180895CF
:10320000CF93FB01C281CC23E9F09C0122513F45C1
:103210002031310520F482510E944F1D0CC08031B5
:10322000FFE59F0751F481E00E945C2943E062E0E2
:1032300081E00E94FA0AC0E018C081319F45A9F4DC
:1032400082E0F2CF8031EFE59E0711F481E004C007
:1032500081319F4549F482E00E947D2943E062E08C
:1032600081E00E94FA0A01C0C1E08C2FCF9108953D
:10327000EF92FF920F931F93CF93DF93EC01162FE2
:103280002091D0013091D1018881232B61F08E3FB4
:1032900009F00DC18981833008F400C18550833065
:1032A00008F005C1FBC08B3009F4E3C038F5853068
:1032B00009F476C0B8F48230E9F130F4813009F0D5
:1032C000F2C0198289E083C0833009F45CC0843085
:1032D00009F0E9C04B816A8189810E94891B9C8326
:1032E0008D83E5C0873009F469C008F464C0883074
:1032F00009F464C0893009F461C0D5C0803109F493
:1033000091C060F48D3009F45FC008F45AC08E306B
:1033100009F45FC08F3009F46DC0C5C0823109F473
:1033200088C008F482C0833109F493C08E3F09F449
:10333000B5C0B9C08981823041F0833069F08130F5
:1033400009F0B1C00E948B2D02C00E94E0189A8340
:103350008B837C836D83ABC08091D2019091D3012C
:10336000892B09F4A4C07E0100E0802F0E94C00ECA
:10337000F7018283738364830F5FF3E0EF0EF11C28
:10338000063099F794C08981823009F08CC06A8137
:103390007B818C819D810E94AF360E94E91887C095
:1033A0002C813D813227232732274B816A818981F5
:1033B0000E94AA1B7CC00E94D31B79C08FEF888318
:1033C00076C00E94F21C33C00E94F41C99838A8349
:1033D0006EC089819A819827892798276B8170E030
:1033E0006D31710508F063C0AE014C5F5F4F0E9404
:1033F000F71C5DC08091D2019091D301892B09F413
:1034000056C089819A819827892798276B8170E017
:103410006D31710508F04BC0AE014C5F5F4F0E94EB
:103420001C1D45C00E943F1D42C00E94761B89831F
:103430003EC089819A819827892798276B8170E0FF
:103440006D317105A0F5AE014C5F5F4F0E94241CE9
:103450002EC089819A819827892798276B8170E0EF
:103460006D31710520F5AE014C5F5F4F0E94481C25
:103470001EC08091D2019091D301892BC1F0CE0161
:103480000E94D82E2FEF81EE94E021508040904092
:10349000E1F700C000000E94CC2D09C0612FCE01D1
:1034A0000E94611A04C0612FCE010E943B0A612F65
:1034B000CE01DF91CF911F910F91FF90EF900C946F
:1034C000D82EEF92FF920F931F93CF93DF93CDB738
:1034D000DEB728970FB6F894DEBF0FBECDBF6032BF
:1034E00009F0F7C0DC011196EC9111974E2F50E0D6
:1034F0004930510508F0EDC08C01FA01E557FF4F46
:103500000C94A63688E0E5E1F1E0DE011196019029
:103510000D928A95E1F783E0F8018083118212828F
:10352000138288E0FE013196D801149601900D9225
:103530008A95E1F7CEC08CEA8C9381E011968C934A
:10354000119712961C92129713961C92C2C0FC01FE
:10355000838190E0982F88272281820F911D092E68
:10356000000CAA0BBB0B35E0880F991FAA1FBB1FCD
:103570003A95D1F7AC01BD01405E5F4F6F4F7F4F71
:10358000481759076A077B0708F4A3C08C3AF1E093
:103590009F07A105B10508F09CC04D3A21E05207F4
:1035A0006105710520F04CEA51E060E070E0481BD5
:1035B000590BBC016F50714FC80128960FB6F89493
:1035C000DEBF0FBECDBFDF91CF911F910F91FF9056
:1035D000EF900C94CA3640E250E06FEF70E00E942A
:1035E000D3368091D201D8018C938091D00111966D
:1035F0008C93119712961C92129713961C92139704
:1036000081E014968C93149782E015968C9361C098
:1036100081E090E09093D1018093D00182E390E02B
:103620009093CF018093CE010E947F2D9093CD0186
:103630008093CC014EC08091D0019091D101892B13
:10364000C9F160E080E00E949F0EE82E62E081E018
:103650000E949F0EF82E8091CC019091CD010E9486
:10366000972D8536910500F1EE20F1F0FF20E1F075
:103670000E947F2D9093CD018093CC018091CE014B
:103680009091CF0101979093CF018093CE01892B28
:1036900089F41092D1011092D00181E090E09093D2
:1036A000D3018093D20106C082E390E09093CF01D2
:1036B0008093CE018091D201F80180838091D00166
:1036C00081838091CE01828304C01092D301109235
:1036D000D20128960FB6F894DEBF0FBECDBFDF91A2
:1036E000CF911F910F91FF90EF90089584E008957E
:1036F00050E0440F551F2AE2629F400D511D1124D6
:103700009A016CEF869F200D311D1124C901869608
:1037100008950F931F93CF93DF938430A0F4663006
:1037200090F4453180F40E94781B8C010E94DA36B7
:1037300090E0D82FCC27C80101960E94DA369E016E
:10374000282BC90102C080E090E0DF91CF911F914A
:103750000F9108950F931F93CF93DF938430F0F46C
:103760006630E0F44531D0F421159CE5390731F499
:10377000E091D201F091D301EF2B81F0E9010E9499
:10378000781B8C016D2F0E94E8366C2FC8010196C2
:10379000DF91CF911F910F910C94E836DF91CF917B
:1037A0001F910F9108958F929F92AF92BF92CF92E7
:1037B000DF92EF92FF920F931F93CF93DF93C0900E
:1037C000D201D090D30181E090E09093D301809317
:1037D000D201812CE12CF12C912C00E010E0C0E012
:1037E000D0E05701A00EB11EFE01EE0FFF1FEA0D43
:1037F000FB1DE858FE4F259134914C2F692D882DE3
:103800000E94AA1B2196C531D10571F7065D1F4F95
:10381000939486E09812E3CF8CEFE80EF11C83942A
:1038200084E08812D9CFD092D301C092D201DF9127
:10383000CF911F910F91FF90EF90DF90CF90BF90AD
:10384000AF909F908F900895EF92FF920F931F93E8
:10385000CF93DF93EA017A01E60EF71E8C01C801CF
:103860008696CE15DF0569F0003F23E0120720F4AD
:103870000E94DA36888301C0188221960F5F1F4F9D
:10388000EECFDF91CF911F910F91FF90EF900895B0
:103890006F927F928F929F92AF92BF92CF92DF9260
:1038A000EF92FF920F931F93CF93DF93EC016B0185
:1038B0007A01803F934008F073C080EF93E08C1B47
:1038C0009D0B8617970708F46BC03E0136E2630E26
:1038D000711C8091D2019091D301892B19F0CE0CEB
:1038E000DF1C59C0C0FF11C0CE0185960E94DA3698
:1038F00090E0982F8827F7012081822B81159C4525
:1039000039F48FEFF701808303C000E010E002C0BC
:1039100001E010E0CE018C0D9D1D560180FF17C007
:10392000F1E0AF1AB10847018A0C9B1CC3018C0D52
:103930009D1D0E94DA36F401208130E0322F2227CB
:10394000282B21153C4519F48FEFF4018083F701F2
:10395000E00FF11F2FEFCF018E199F098A159B05EC
:1039600008F0BDCF808190E0982F88273181832B8C
:1039700081159C4511F4208321833296ECCFC03F02
:10398000E3E0DE0720F4F70160810E94E836FFEFF4
:10399000EF1AFF0A2196CE018696EC14FD0479F702
:1039A000DF91CF911F910F91FF90EF90DF90CF901B
:1039B000BF90AF909F908F907F906F900895462F0B
:1039C0002091D0013091D101232B49F4843038F477
:1039D000763028F4653118F4672F0C94891B80E049
:1039E00090E0089580E108958AEE93E00895EF92C3
:1039F000FF920F931F93CF93DF93EA017A01E60EB4
:103A0000F71E8C01C8018A5E9B4FCE15DF0569F059
:103A10000A3E23E0120720F40E94DA36888301C0B0
:103A2000188221960F5F1F4FEDCFDF91CF911F912D
:103A30000F91FF90EF900895EF92FF920F931F93D5
:103A4000CF93DF93EA017A01E60EF71E8C01C801DD
:103A50008A5E9B4FCE15DF0559F00A3E23E0120720
:103A600018F468810E94E83621960F5F1F4FEFCF50
:103A7000DF91CF911F910F91FF90EF900895CF9319
:103A8000DF93C6E1D4E060E0CE010E94E8362196E3
:103A9000C11588E0D807B9F7DF91CF910895AF92AB
:103AA000BF92CF92DF92EF92FF920F931F93CF932B
:103AB000DF9300D000D0CDB7DEB7F82E2FE0281767
:103AC00008F478C08FEF97E00E94DA36811172C057
:103AD00006E114E0FF2071F0011588E0180709F4F1
:103AE00069C0C8010E94DA36811101C0FA940F5FE3
:103AF0001F4FF0CF19821A821B821C82CC24CA94D9
:103B00007801EFEFEE1AFE0AC8010E94DA368983C7
:103B10001A82882309F44EC0813009F046C058014A
:103B2000F2E0AF0EB11CC7010E94DA368A83882307
:103B300009F440C09FEF980F933060F4780123E0C0
:103B4000E20EF11CC5010E94DA368B8381112DC073
:103B50008701D6CF843011F07501FACFC5010E94DC
:103B6000DA36D82E780184E0E80EF11CC8010396FD
:103B70000E94DA36DD20F1F08823E1F0282F30E0D2
:103B800021503109C29EA001C39E500D11248D2DDC
:103B900090E00197840F951F0197D0F2EFE9FFE0C5
:103BA0003197F1F700C00000F7CFCE0101960E94D7
:103BB000410CCECF0F900F900F900F90DF91CF91CF
:103BC0001F910F91FF90EF90DF90CF90BF90AF903B
:103BD00008950F931F93CF93DF93C42FD22FFC012F
:103BE00082818823C9F04093D6010E947F2D909353
:103BF000D5018093D40180E28C0F883008F057C043
:103C0000C77081E001C0880FCA95EAF7DF91CF91B4
:103C10001F910F910C947C228091D601481330C0E3
:103C20008091D4019091D5010E94972D883C9105F7
:103C300038F510E21D0FCD17B9F080E28C0F8830F7
:103C400040F4C77081E001C0880FCA95EAF70E946E
:103C50008322183028F581E09D2F977001C0880FCE
:103C60009A95EAF70E947C22802F0E9473221830D6
:103C7000F0F4D77081E001C0880FDA95EAF70AC046
:103C800080E28C0F883098F4C77081E001C0880F03
:103C9000CA95EAF7DF91CF911F910F910C9483227F
:103CA000802FDF91CF911F910F910C947322DF91A0
:103CB000CF911F910F9108950F939C01CB01233F4A
:103CC0004CE5340731F188F4283DFCE53F07D9F095
:103CD000293D4CE5340779F1273D3C45A9F506E23D
:103CE00021EE41EE67ED7CE52BC0253FFCE53F076B
:103CF000E1F0A8F0263F3C4539F507E225EE46EE17
:103D000066EF7CE51DC007E225EE45EE68ED7CE53B
:103D100017C006E221EE40EE63EF7CE511C007E23A
:103D200025EE44EE64EF7CE50BC006E221EE42EEA8
:103D300065EF7CE505C008E221E045EE69ED7CE534
:103D40000E94E91D80E008C0FC018281882319F0EF
:103D50001092D60101C081E00F910895CF93DF93B7
:103D6000EC01FB018281882309F41FC1C230FCE50C
:103D7000DF0708F41BC1C6319CE5D90738F09E0166
:103D80002A5F3C452930310508F010C10E949C2B68
:103D90009093110380931003C031ECE5DE0709F422
:103DA000C3C008F041C0C8308CE5D80709F49AC0F8
:103DB000F0F4C430ECE5DE0709F487C068F4C230E3
:103DC0008CE5D80709F477C0C330DC4509F0E3C0BF
:103DD00080911003826076C0C630ECE5DE0709F4FE
:103DE0006EC008F07BC08091100388606BC0CC303F
:103DF0008CE5D80709F485C068F4CA30ECE5DE0725
:103E000009F474C008F079C00E940625809110035F
:103E1000806858C0CE308CE5D80709F476C008F029
:103E20007FC0809110038BC0CB3FECE5DE0709F427
:103E30004FC018F5C3318CE5D80709F47DC078F47C
:103E4000C131ECE5DE0709F473C0C231DC4509F08D
:103E5000A2C00E940625809110038F7733C0C53120
:103E60008CE5D80709F472C008F486C0CA3FDC4567
:103E700009F091C0809111033EC0CF3FFCE5DF0700
:103E800009F45FC058F4CD3F9CE5D90709F444C05C
:103E900008F43FC08091110382602DC0C130FDE560
:103EA000DF0709F475C008F45DC0C230DD4509F0D4
:103EB00072C080E06EC080911003816003C0809169
:103EC000100380618093100366C08091100311C0BD
:103ED000809111038260809311035DC08091100373
:103EE0008062F0CF809110038064ECCF809110034A
:103EF00088608460E7CF8160EECF809110038E7F71
:103F0000E1CF809110038D7FDDCF80911003877FFB
:103F1000D9CF8091110318C0809111038D7FDBCF21
:103F2000809110038F7ECECF809110038F7DCACFFA
:103F3000809110038F7BC6CF80911003877F8B7F8A
:103F4000C1CF809111038D7F8E7FC5CF80911003EB
:103F500082FB222720F991E0922790FB82F990FBC7
:103F600083F9B0CF80911103982F909591708E7F37
:103F7000892B90FB81F9AFCF0E9406258091100319
:103F800087FB222720F991E0922790FB87F99ACFAF
:103F900081E00E94322C80911003909111030E94C5
:103FA000AD2B0E94062580E001C081E0DF91CF911A
:103FB0000895CF93DF9386319C4541F5EB010E9434
:103FC000D22A982F8A8120910801309109018823F3
:103FD00079F09A7A81E009F480E08093D701911119
:103FE00002C069E201C065E3C9010E94CD2C0AC08C
:103FF0008091D701811102C069E201C065E3C90166
:104000000E94D82C0E94202B80E001C081E0DF912B
:10401000CF9108959093DD018093DC010895E091A4
:10402000DC01F091DD01309721F00190F081E02D6D
:10403000099480E00895E091DC01F091DD01309772
:1040400099F020911401222359F02091100327FFA9
:1040500007C0DC012C9111962C93119725E02C932D
:104060000280F381E02D09940895E091DC01F09144
:10407000DD01309739F022E0DC012C930480F581DA
:10408000E02D099408952091DA013091DB01281781
:10409000390771F09093DB018093DA01E091DC0144
:1040A000F091DD01309721F00680F781E02D099431
:1040B00008952091D8013091D9012817390771F05E
:1040C0009093D9018093D801E091DC01F091DD015A
:1040D000309721F00084F185E02D099408950E9425
:1040E0008B2D6093FB017093FC018093FD019093F5
:1040F000FE016093F7017093F8018093F9019093AA
:10410000FA01089585B7806885BF85B7806885BF47
:10411000089581E008950C94892008950C948D20D1
:104120000C948D200C9490200C948D200C94942051
:104130000C948D200E9482208CE390E30E94FE2D3F
:104140000E9498200C9496200E94762D0E943F0F8A
:104150000E94ED180E94192E0C9492202F923F92EB
:104160004F925F926F927F928F929F92AF92BF9287
:10417000CF92DF92EF92FF920F931F93CF93DF9333
:10418000CDB7DEB72C970FB6F894DEBF0FBECDBF0C
:104190000E948E200E948D200E946B0F81110E9430
:1041A0006F208FED91E09C878B8700E010E0302E30
:1041B000802F0E94C00E2B013C01EB85FC85819174
:1041C0009191A191B191FC87EB875301420188261F
:1041D0009926AA26BB2681149104A104B104B1F446
:1041E0000F5F1F4F0630110511F78FEF89838A8308
:1041F0001B820E947F2D8160782F9D838C83498153
:104200005A816B818D810E9493214EC08091B502AD
:1042100081FD0E94CC0E212CC12CD12C7601C3949F
:10422000D501C4018C219D21AE21BF21892B8A2B70
:104230008B2B89F10E948B208823C9F02E823F822C
:104240004C205D206E207F2081E0452846284728AD
:1042500009F480E088870E947F2D8160782F9A87FB
:1042600089874E815F8168858A850E949321000F2E
:10427000111F000F111FF801E152FE4F8081918143
:10428000A281B381C826D926EA26FB26C082D18224
:10429000E282F38209C02394CC0CDD1CEE1CFF1CCF
:1042A000F5E12F12BDCF9CCF0E9482170E940F20F4
:1042B0009091DE018917F1F00E940F208093DE01BA
:1042C0002C960FB6F894DEBF0FBECDBFDF91CF9115
:1042D0001F910F91FF90EF90DF90CF90BF90AF9024
:1042E0009F908F907F906F905F904F903F902F9016
:1042F0000C949B0C2C960FB6F894DEBF0FBECDBF6E
:10430000DF91CF911F910F91FF90EF90DF90CF90B1
:10431000BF90AF909F908F907F906F905F904F90E5
:104320003F902F900895DF92EF92FF920F931F938B
:10433000CF93DF93CDB7DEB72B970FB6F894DEBFE0
:104340000FBECDBFF42E052F162FE72ED82E6111EC
:104350000E94F22AFE01319686E0DF011D928A95C5
:10436000E9F77E2D4F2D502F612F8D2D9E810E94BC
:10437000BF272B960FB6F894DEBF0FBECDBFDF91DF
:10438000CF911F910F91FF90EF90DF900895FC0166
:10439000808191810E94932A0895CF93882309F404
:1043A00055C0C82F8CEF8C0F813AF8F48C2F0E94E7
:1043B000271481114BC06C2F809108019091090145
:1043C0000E944D2C882349F06C2F80910801909118
:1043D00009010E94D82C0E94202B6C2F809108018B
:1043E000909109010E94CD2C0CC080E28C0F883086
:1043F00058F4C77081E001C0880FCA95EAF70E949F
:10440000D52ACF910C94202BEBE5EC0FE33040F450
:10441000F0E0EF55FE4F808190E0CF910C94432067
:10442000E8E5EC0FE73150F4F0E0EE0FFF1FED5838
:10443000FE4F80819181CF910C945920C03F30F084
:104440008C2F0E94F515CF910C94E216CF91089510
:10445000882389F19CEF980F913A40F4682F80915E
:104460000801909109010E94D82C0DC090E2980F8C
:10447000983058F4877091E001C0990F8A95EAF757
:10448000892F0E94DB2A0C94202B9BE5980F9330F8
:1044900020F480E090E00C94432098E5980F973149
:1044A00020F480E090E00C945920803F20F00E949E
:1044B0005D160C94E21608951F93CF93DF93182F87
:1044C000EB010E94CD21209741F08FE99FE00197F9
:1044D000F1F700C000002197F6CF812FDF91CF9137
:1044E0001F910C942822893319F060E070E002C01B
:1044F00060E570E00C945C22882321F00E94D52AAC
:104500000C94202B0895882321F00E94DB2A0C9420
:10451000202B0895CF92DF92EF92FF920F931F937B
:10452000CF93DF937C01062FC72FFC01D281158129
:1045300012951F700E94CB2A882399F0DD2389F001
:104540008C2F807F803421F080E2800F883048F00B
:1045500082E00E946A2B0E94CB2A91E0D82ED926B5
:1045600001C0D12CCC2EC2948FE0C8228C2D90E0BB
:10457000FC01EC56FF4F0C94A6368C2F807FCF7039
:10458000882311F0C295C07FDD2399F0CC2309F474
:104590008BC180E2800F883010F0011104C08C2F95
:1045A0000E94D52A03C08C2F0E94E52A0E94202B4E
:1045B0007BC1802F0E942822CC2309F499C180E27C
:1045C000800F883010F0011104C08C2F0E94DB2A6C
:1045D00003C08C2F0E94EB2A0E94202B89C18C2FB4
:1045E000807FCF70803211F0C295C07F002319F018
:1045F0000130C9F022C0DD2371F0112341F01130E8
:1046000031F40E94052B8C2B0E940D2B71C10E944E
:10461000052B8C2BF6C0112319F0113009F468C159
:104620000E94162B23C0DD2321F0163008F060C154
:104630000EC0153008F05CC119C0DD2351F0112304
:1046400031F0F701858180FF2FC18F7085838C2F1A
:10465000D8C0112359F0093309F037C1FFEF27EE15
:1046600083E0F15020408040E1F72DC18C2F0E9463
:1046700083223EC18C2F86958695837019F08130F8
:1046800061F036C1DD2321F0802F9C2F937002C092
:1046900080E090E00E9443202BC1DD2321F0802F99
:1046A0009C2F937002C080E090E00E94592020C1AE
:1046B000802FDD2329F00E94F5150E94E21602C02A
:1046C0000E945D160E94E21613C18C2F837009F0C0
:1046D00045C0D11111C1402F429546954770440FF6
:1046E000440F602F6F70862F90E0A0E0B0E0042EA2
:1046F00004C0880F991FAA1FBB1F0A94D2F704FF9A
:1047000010C00FE010E020E030E004C0000F111FE7
:10471000221F331F4A95D2F70095109520953095AA
:1047200003C000E010E09801C695C695C370BC01B7
:10473000CD01602B712B822B932BC23049F058F4A2
:10474000C13019F00E941029D3C00E94FE28D0C0A9
:104750000E942229CDC00E94FC28CAC0DD2319F086
:104760008C2F817001C08695882309F4C5C0402F25
:10477000429546954770440F440F602F6F70862F07
:1047800090E0A0E0B0E0042E04C0880F991FAA1F9B
:10479000BB1F0A94D2F704FF10C00FE010E020E026
:1047A00030E004C0000F111F221F331F4A95D2F7BB
:1047B000009510952095309503C000E010E0980119
:1047C000C695C695C370BC01CD01602B712B822BA1
:1047D000932BC23049F058F4C13019F00E94D5290A
:1047E00087C00E94C32984C00E94E72981C00E941B
:1047F00036297EC0CF70DD2339F08C2F0E945C29D2
:10480000802F0E947C2274C0802F0E9483228C2FD4
:1048100026C0023F01F128F4003F41F0013FA1F022
:104820003FC0033FF9F0043F39F13AC0DD2341F0C6
:10483000153008F05DC08C2F8F710E94A22958C0DE
:10484000163008F055C0F7CFDD2339F08C2F8F716B
:104850000E945C294DC0DD23C9F38C2F8F710E940B
:104860007D2946C0DD2329F08C2F8F710E944729B6
:104870003FC00E9442293CC0DD2349F0CF718C2FFC
:104880000E945C2963E08C2F0E94552B31C081E08F
:104890000E946A2B123060F182E00E946A2B28C0CD
:1048A000DD2331F0112391F2802F0E94CD2120C011
:1048B000112399F2093349F49FEFE7EEF3E09150A9
:1048C000E040F040E1F700C00000802F0E94282265
:1048D0000FC04C2F4F70602FC7010E94A40C0E9484
:1048E0006D2806C04C2F4F70602FC7010E94A70C87
:1048F00088EF8C0D843020F40E940F200E949B0CC6
:10490000DD20C9F00E94C72A80FD15C0F701128280
:104910000E94C12A0E945C29C7010E94BC240E94F7
:10492000C12ADF91CF911F910F91FF90EF90DF90FF
:10493000CF900C947D29DF91CF911F910F91FF9023
:10494000EF90DF90CF9008950F931F93CF93DF9355
:10495000EC01688179818A810E949E2A8C010E94E3
:10496000F9290E94EA28B801CE010E948A22DF912B
:10497000CF911F910F910895CF93DF93EC01988110
:1049800089812B813C81232B31F08F3F31F481E0F1
:104990009F3F19F403C081E001C080E080FD19C091
:1049A000CE010E94670B81110CC00E94CB2A882384
:1049B00081F08A81882369F082E0DF91CF910C94A5
:1049C0006A2BCE010E94A424CE01DF91CF910C94DA
:1049D0009B0ADF91CF91089580E090E00E944320F0
:1049E00080E090E00E9459200E94F22A0E94022B4F
:1049F0000E94202B0E9495180C94E21680910801C9
:104A0000909109010E94E32C0C94EC240E94E22A6C
:104A10000C94FE24E92FE295EF704E2F50E0FA013E
:104A20003297EE30F105B0F4EC55FF4F0C94A636FA
:104A3000803F91F018F4883E68F40EC0843F51F432
:104A40000BC0883E48F0813F29F406C093FB8827BD
:104A500080F9089580E0089581E008950E94932AE6
:104A60000E940A250895CF93DF9300D000D01F92B3
:104A7000CDB7DEB70F900F900F900F900F90DF9192
:104A8000CF910895CF93DF9300D000D000D0CDB761
:104A9000DEB726960FB6F894DEBF0FBECDBFDF910E
:104AA000CF9108951F93CF93DF93C091000216E03A
:104AB00080910102C81799F0D0E01C9FF0011D9F62
:104AC000F00D1124EE5FFD4F4081518162817381B1
:104AD000848195810E9442252196C770E9CFDF919C
:104AE000CF911F910895409132025091330260910D
:104AF00034027091350280913602909137020C9405
:104B000042250F931F93CF93DF93809137028295B5
:104B10008F7009F05DC080913402882309F458C079
:104B20008091000210910102609132027091330273
:104B3000C0913502D091360291E06F3F09F090E0CC
:104B4000292F06E0811709F443C0209721F07F3F09
:104B500021F030E003C031E001C0322F90E030FDA1
:104B600034C0089FF001099FF00D1124DF01AE5FF2
:104B7000BD4F11963C911197371327C03C913613C6
:104B800024C012963C91129731111FC013964D917B
:104B90005C9114974C1B5D0B483C5105B0F480911F
:104BA00037028F70806180933702E95FFD4F80810B
:104BB0008F708061808382E392E00E94BC24DF9149
:104BC000CF911F910F910C94522501968770BACF07
:104BD000DF91CF911F910F9108959F92AF92BF9255
:104BE000CF92DF92EF92FF920F931F93CF93DF93B9
:104BF000CDB7DEB761970FB6F894DEBF0FBECDBF5D
:104C00008C0185E0F801DE011D9601900D928A95D8
:104C1000E1F7F80140815181E28090913202609188
:104C2000330220913502309136022115310531F0E1
:104C30006F3F31F481E09F3F19F403C081E001C070
:104C400080E0F82FF1709F2E80FD46C1F801A3800F
:104C5000B48082E3C82E82E0D82EF0903402F501B1
:104C6000E21BF30BFF2009F4DFC080913702E83C20
:104C7000F10508F09BC0282F207F09F052C0561381
:104C800013C0491311C0FE2CE1100EC08F7080615B
:104C9000809337020E947325C6010E94BC24809134
:104CA0003702F801858358C1AB2831F05F3F31F4FA
:104CB00081E04F3F19F403C081E001C080E080FD36
:104CC00003C081E08E2502C080E090E0F82FF170F3
:104CD000FF2E80FF1CC0809100022091010236E06F
:104CE000821709F417C190E0389FF001399FF00D49
:104CF0001124EE5FFD4F6181561306C0608146139B
:104D000003C06281E61203C001968770E9CFFE2CD2
:104D1000EE2009F421C1809137028160809337022F
:104D20005AC0561306C0491304C0E11002C0F8016E
:104D30009FC04D875E878D859E850E942E25882386
:104D400079F1EE2069F120913702822F82958F70E0
:104D500090E0029774F0809132029091330298872C
:104D60008F831986BB86AA862C87CE0107960E9460
:104D7000BC2486E0F801A2E3B2E001900D928A958E
:104D8000E1F70E9481250E9473250DC0561729F175
:104D90004D875E878D859E850E942E2581112CC0B2
:104DA000C8010E94BC24FF24F394D6C0282F207F82
:104DB00069F77A2DB98AA88A6E2D89890E943325D0
:104DC00082E392E00E94BC2486E0F60111928A956B
:104DD000E9F70E947325F12CBFC04913D9CFE11028
:104DE000D7CFF8018583C8010E94BC2486E0F60174
:104DF00011928A95E9F7B0C0EE2091F22091370226
:104E0000822F82958F7090E002970CF4B2CF809140
:104E10003202909133029A8389831B82BD82AC82D5
:104E20002E83CE010196A3CFE83CF10508F047C0E0
:104E3000FE2CEE2009F4B4CF561330C049132EC017
:104E40002091370220FD21C0822F82958F70482F3C
:104E500050E041155105C9F0F80125834F30510547
:104E600041F08F5F982F9295907F822F8F70892BC2
:104E70008583C8010E94BC2486E0F801A2E3B2E069
:104E800001900D928A95E1F742C086E0F801A2E315
:104E9000B2E001900D928A95E1F75EC04D875E8782
:104EA0008D859E850E942E25811163CF80913702CA
:104EB000816080933702C8010E94BC244DC07A2DC6
:104EC000B98AA88A6E2D89890E94332586E0F60169
:104ED00011928A95E9F71BC0EE2009F461CF4D8746
:104EE0005E878D859E850E942E25F82E882309F4E5
:104EF00057CF86E0F801A2E3B2E001900D928A95C7
:104F0000E1F782E392E00E94C7210E9481250E947E
:104F1000732522C04D875E878D859E850E94932ACA
:104F2000292F22952F70223028F49F7039F081119B
:104F300005C00BC0243028F49F7049F4805E88308F
:104F400020F0C8010E94BC249F2CF92C05C0F80158
:104F50009581907F99F7F9CF8F2D61960FB6F894D0
:104F6000DEBF0FBECDBFDF91CF911F910F91FF909C
:104F7000EF90DF90CF90BF90AF909F9008951F93D8
:104F8000CF93DF93CDB7DEB72C970FB6F894DEBF83
:104F90000FBECDBF4F83588769877A878B879C87E1
:104FA000CE0107960E94ED258823D1F09F81888548
:104FB0002A853B85232B31F08F3F31F481E09F3FE1
:104FC00019F403C081E001C080E080FD47C04F813B
:104FD000588569857A858B859C850E9442253EC0CF
:104FE00086E0FE013796DE01119601900D928A95BA
:104FF000E1F7FF81E8856A857B856115710531F0F0
:10500000EF3F31F481E0FF3F19F403C081E001C0BC
:1050100080E080FD23C02091010230E0C9010196AB
:10502000877099274091000250E084179507F1F1AD
:10503000F983EA837D836C8396E0929FD001939FEE
:10504000B00D1124AE5FBD4FFE01319601900D925F
:105050009A95E1F7809301020E94522516E0809113
:10506000000290910102891771F1189FC00111246B
:105070008E5F9D4F0E94ED25882329F1E09100026B
:105080001E9FF0011124EE5FFD4F4081518162812E
:105090007381848195810E9442258091000290E075
:1050A00001968770992780930002D9CF0E94062528
:1050B0001092010210920002E2E3F2E086E0DF01CA
:1050C0001D928A95E9F72C960FB6F894DEBF0FBEB5
:1050D000CDBFDF91CF911F910895EF92FF920F9373
:1050E0001F93CF93DF938C01892B09F46CC0F12CB3
:1050F000EE24E394E8012196F8018491843740F48A
:10510000843008F051C0813081F0823019F15BC0E9
:10511000853709F444C0A8F19CE7980F903708F050
:1051200052C08F770E94282241C00E5F1F4FFE01A0
:10513000849190E2980F983050F48770FE2D01C052
:10514000FF0F8A95EAF78F2F0E94F52A14C00E945C
:10515000CD212DC00E5F1F4FFE01849190E2980F6C
:10516000983060F48770FE2D01C0FF0F8A95EAF732
:105170008F2F0E94FB2A0E94202B19C00E942822F8
:1051800016C00E5F1F4FFE01C491CC2381F08FE942
:105190009FE00197F1F700C00000C150F6CF0E5F0D
:1051A0001F4FFE01F49003C00E94CD218E018F2D70
:1051B000882309F49FCFEFE9FFE03197F1F700C0B2
:1051C00000008150F5CFDF91CF911F910F91FF909B
:1051D000EF900895089508950C94EB280C94EC2812
:1051E0000E94EE2860938C0270938D0280938E0251
:1051F00090938F020C94EC240C94F0280F931F933F
:1052000000918C0210918D0220918E0230918F02BC
:10521000602B712B822B932B1F910F910C94F028F4
:105220000F931F9300918C0210918D0220918E029A
:1052300030918F0260237123822393231F910F915A
:105240000C94F0280F931F9300918C0210918D0203
:1052500020918E0230918F02602771278227932739
:105260001F910F910C94F0280C94EB280E94342984
:10527000609388027093890280938A0290938B02D4
:105280000C94EC2460E070E0CB010C9436290F9371
:105290001F9341E050E060E070E08A019B0104C090
:1052A000000F111F221F331F8A95D2F7C901B801C1
:1052B0001F910F910C9436290F931F9341E050E0FA
:1052C00060E070E004C0440F551F661F771F8A9589
:1052D000D2F78091880290918902A0918A02B091C0
:1052E0008B028A019B01082B192B2A2B3B2BC9010E
:1052F000B8011F910F910C9436290F931F9341E031
:1053000050E060E070E004C0440F551F661F771F37
:105310008A95D2F740955095609570958091880256
:1053200090918902A0918A02B0918B028A019B011F
:10533000082319232A233B23C901B8011F910F9188
:105340000C9436290F931F9341E050E060E070E029
:1053500004C0440F551F661F771F8A95D2F78091AE
:10536000880290918902A0918A02B0918B028A01F1
:105370009B01082719272A273B27C901B8011F913C
:105380000F910C9436290F931F930091880210916E
:10539000890220918A0230918B02602B712B822B23
:1053A000932B1F910F910C9436290F931F9300910B
:1053B00088021091890220918A0230918B02602329
:1053C0007123822393231F910F910C9436290F93FD
:1053D0001F93009188021091890220918A023091D6
:1053E0008B0260277127822793271F910F910C94BE
:1053F0003629089525E1929F800D1124E82FE69526
:10540000E695E695877051E001C0550F8A95EAF759
:1054100085E0E89FF0011124E85CFD4F20E030E0DA
:1054200070E04081CB01022E02C0969587950A94C8
:10543000E2F78170819584278523842781932F5FEC
:105440003F4F2530310569F7089525E1929F800D82
:105450001124682F669566956695982F977085E05C
:10546000689FB001112440E050E080E0FB01E40FB0
:10547000F51FE85CFD4F208130E0092E02C0369513
:1054800027950A94E2F721703327042E01C0220FDA
:105490000A94EAF7822B4F5F5F4F4530510531F791
:1054A0000895BF92CF92DF92EF92FF920F931F93D6
:1054B000CF93DF938C01C0908802D0908902E09056
:1054C0008A02F0908B0280918C0290918D02A091C3
:1054D0008E02B0918F02C82AD92AEA2AFB2ACFE18C
:1054E000D0E0D701C6010C2E04C0B695A7959795BC
:1054F00087950A94D2F780FD04C0219790F7B12CCC
:1055000007C0BC2EB8018C2F0E94B00C0197A9F3E4
:105510008B2DDF91CF911F910F91FF90EF90DF9036
:10552000CF90BF900895CF93DF93EC010E94512A52
:10553000BE010E94B00CDF91CF9108951F93CF93CD
:10554000DF93EB019091FF01992321F0CB010E94A1
:10555000932A13C0882349F0CB010E94512A182FA7
:10556000682FCE010E94FA2904C0CB010E94252A8F
:10557000182FBE01812F0E94B00CDF91CF911F9197
:1055800008958091900285958595859508958091DF
:1055900090028770089590919002977081E009F4CD
:1055A00080E008958091B40208959091B402892B0F
:1055B0008093B402089580959091B40289238093DA
:1055C000B40208951092B40208959091B302892B09
:1055D0008093B302089580959091B30289238093BC
:1055E000B30208951092B30208959091B202892BEC
:1055F0008093B202089580959091B202892380939E
:10560000B20208951092B202089580919102089515
:1056100008950C94082B0C94092B909191029817E3
:1056200021F0809391020C940B2B089580919102AC
:10563000882329F01092910280E00C940B2B08959E
:10564000E0910801F09109018091B4028083E0911A
:105650000801F091090190818091B302892B808328
:10566000E0910801F091090190818091B202892BAB
:10567000808380919102882381F0E0910801F0916C
:1056800009019081892B8083809108019091090103
:105690000E94372C81110E94162B80910801909155
:1056A00009010C941B200C94082B98E0899F900111
:1056B0001124262B209390020E945C298091900255
:1056C0008595859585950C94532B1092900280E0DA
:1056D0000C94532B2091900280958223809390020A
:1056E000982F977079F430E0482F082E000C550B56
:1056F0002417350739F08595859585950E947D2974
:105700000C94652B08956FEF7FEF80E090E00C9490
:10571000063780E090E00E94E23621E08B3E9E4F0B
:1057200009F020E0822F089582E090E00C94DA36B0
:1057300083E090E00C94DA36CF9384E090E00E940E
:10574000DA36C82F81E290E00E94DA362C2F30E062
:10575000A901582BCA01CF910895CF93C92F682F63
:1057600084E090E00E94E8366C2F81E290E0CF91D7
:105770000C94E836AB01BC018FE090E00C94FA3653
:10578000AB01BC0183E190E00C94FA3660E070E07C
:10579000CB010C94C02B60E070E0CB010E94BA2BCF
:1057A0000C94C62B6BEE7EEF80E090E00E940637F3
:1057B00060E082E090E00E94E83660E083E090E004
:1057C0000E94E83610928C0210928D0210928E0286
:1057D00010928F0260E084E090E00E94E83660E082
:1057E00081E290E00E94E83660E085E090E00E946F
:1057F000E83660E086E090E00E94E8366FEF87E0F0
:1058000090E00E94E83640E050E0BA0188E090E085
:105810000E94FA3660E08DE090E00E94E83640E0B9
:1058200050E0BA0188E190E00E94FA3660E087E13A
:1058300090E00E94E83640E050E0BA018CE190E050
:105840000E94FA3660E080E290E00E94E83640E094
:1058500050E0BA0188E190E00E94FA360C94CB2B1C
:105860000C94D22B682F8EE090E00C94E836FC016B
:10587000329680911401882331F08091100387FFC4
:1058800002C09EE101C096E080E0915028F0219195
:105890002223D9F38F5FF9CF0895662351F1209128
:1058A00014012223E9F02091100327FF19C0462F8D
:1058B0004695469546954E31E0F4677021E030E01C
:1058C00002C0220F331F6A95E2F7FC01E40FF11DBD
:1058D000828190E02823392381E0232B69F409C0D9
:1058E000FC01329608962191621729F0E817F90712
:1058F000D1F780E0089581E008959C01FC01329683
:105900009FEF80E04191461789F09F3F19F44111C4
:1059100001C0982F8F5F8630A9F79F3F39F0F901BA
:10592000E90FF11D97FDFA956283089508959C0192
:105930002A5F3F4FFC014281461301C0128201964B
:1059400082179307B9F70895262F26952695269551
:105950002E3168F4FC01E20FF11D677021E030E0A8
:1059600001C0220F6A95EAF78281282B22830895CD
:10597000262F2695269526952E3170F4FC01E20FF0
:10598000F11D677021E030E001C0220F6A95EAF74F
:1059900020958281282322830895209114012223B7
:1059A00029F02091100327FD0C94A42C0C947D2C3D
:1059B00020911401222329F02091100327FD0C943B
:1059C000B82C0C94972C20911401FC0132962223C0
:1059D00031F08091100387FF02C08EE101C086E0A4
:1059E000DF011D928A95E9F7089508950C94F52C2E
:1059F0000C94F52CCF930E94F82C0E946B0F0E9400
:105A0000F62CC0E08C2F0E94C00E672B682B692BF0
:105A100029F4CF5FC630B1F780E001C081E0CF91BB
:105A200008950C94F52C0C94112D8091160384305C
:105A300049F10E94132D80E00E949B0C1092B60247
:105A400020E488E190E00FB6F894A8958093600078
:105A50000FBE2093600083B7817F846083BF83B7CC
:105A6000816083BF7894889583B78E7F83BF0FB69C
:105A7000F894A895809160008861809360001092EE
:105A800060000FBE08950C94F52C0E9406250E941C
:105A90000F200E949B0C0C94432D1F920F920FB667
:105AA0000F9211248F939F93AF93BF938091B6026F
:105AB000811113C080910C0390910D03A0910E03EE
:105AC000B0910F034196A11DB11D80930C039093DB
:105AD0000D03A0930E03B0930F03BF91AF919F915D
